{
  "contractName": "DecentralizedPassport",
  "abi": [
    {
      "inputs": [],
      "stateMutability": "nonpayable",
      "type": "constructor"
    },
    {
      "anonymous": false,
      "inputs": [
        {
          "indexed": false,
          "internalType": "uint256",
          "name": "countryId",
          "type": "uint256"
        },
        {
          "indexed": false,
          "internalType": "string",
          "name": "countryName",
          "type": "string"
        },
        {
          "indexed": false,
          "internalType": "string",
          "name": "latLong",
          "type": "string"
        },
        {
          "indexed": false,
          "internalType": "uint256",
          "name": "createdAt",
          "type": "uint256"
        }
      ],
      "name": "CountryAdded",
      "type": "event"
    },
    {
      "anonymous": false,
      "inputs": [
        {
          "indexed": false,
          "internalType": "uint256",
          "name": "countryId",
          "type": "uint256"
        },
        {
          "indexed": false,
          "internalType": "string",
          "name": "countryName",
          "type": "string"
        },
        {
          "indexed": false,
          "internalType": "string",
          "name": "latLong",
          "type": "string"
        },
        {
          "indexed": false,
          "internalType": "uint256",
          "name": "updatedAt",
          "type": "uint256"
        }
      ],
      "name": "CountryUpdated",
      "type": "event"
    },
    {
      "anonymous": false,
      "inputs": [
        {
          "indexed": false,
          "internalType": "uint256",
          "name": "issuerId",
          "type": "uint256"
        },
        {
          "indexed": false,
          "internalType": "address",
          "name": "issuerAddress",
          "type": "address"
        },
        {
          "indexed": false,
          "internalType": "string",
          "name": "issuerName",
          "type": "string"
        },
        {
          "indexed": false,
          "internalType": "uint256",
          "name": "issuerCountryId",
          "type": "uint256"
        },
        {
          "indexed": false,
          "internalType": "uint256",
          "name": "createdAt",
          "type": "uint256"
        }
      ],
      "name": "IssuerAdded",
      "type": "event"
    },
    {
      "inputs": [
        {
          "internalType": "string",
          "name": "",
          "type": "string"
        }
      ],
      "name": "countryByName",
      "outputs": [
        {
          "internalType": "uint256",
          "name": "countryId",
          "type": "uint256"
        },
        {
          "internalType": "string",
          "name": "countryName",
          "type": "string"
        },
        {
          "internalType": "string",
          "name": "latLong",
          "type": "string"
        },
        {
          "internalType": "uint256",
          "name": "createdAt",
          "type": "uint256"
        },
        {
          "internalType": "uint256",
          "name": "updatedAt",
          "type": "uint256"
        }
      ],
      "stateMutability": "view",
      "type": "function",
      "constant": true
    },
    {
      "inputs": [
        {
          "internalType": "uint256",
          "name": "",
          "type": "uint256"
        }
      ],
      "name": "countryData",
      "outputs": [
        {
          "internalType": "uint256",
          "name": "countryId",
          "type": "uint256"
        },
        {
          "internalType": "string",
          "name": "countryName",
          "type": "string"
        },
        {
          "internalType": "string",
          "name": "latLong",
          "type": "string"
        },
        {
          "internalType": "uint256",
          "name": "createdAt",
          "type": "uint256"
        },
        {
          "internalType": "uint256",
          "name": "updatedAt",
          "type": "uint256"
        }
      ],
      "stateMutability": "view",
      "type": "function",
      "constant": true
    },
    {
      "inputs": [
        {
          "internalType": "string",
          "name": "",
          "type": "string"
        }
      ],
      "name": "isCountry",
      "outputs": [
        {
          "internalType": "bool",
          "name": "",
          "type": "bool"
        }
      ],
      "stateMutability": "view",
      "type": "function",
      "constant": true
    },
    {
      "inputs": [
        {
          "internalType": "address",
          "name": "",
          "type": "address"
        }
      ],
      "name": "isIssuer",
      "outputs": [
        {
          "internalType": "bool",
          "name": "",
          "type": "bool"
        }
      ],
      "stateMutability": "view",
      "type": "function",
      "constant": true
    },
    {
      "inputs": [],
      "name": "isAdmin",
      "outputs": [
        {
          "internalType": "bool",
          "name": "",
          "type": "bool"
        }
      ],
      "stateMutability": "view",
      "type": "function",
      "constant": true
    },
    {
      "inputs": [
        {
          "internalType": "string",
          "name": "_countryName",
          "type": "string"
        },
        {
          "internalType": "string",
          "name": "_latLong",
          "type": "string"
        }
      ],
      "name": "addCountry",
      "outputs": [],
      "stateMutability": "nonpayable",
      "type": "function"
    },
    {
      "inputs": [
        {
          "internalType": "uint256",
          "name": "_countryId",
          "type": "uint256"
        },
        {
          "internalType": "string",
          "name": "_countryName",
          "type": "string"
        },
        {
          "internalType": "string",
          "name": "_latLong",
          "type": "string"
        }
      ],
      "name": "updateCountry",
      "outputs": [],
      "stateMutability": "nonpayable",
      "type": "function"
    },
    {
      "inputs": [],
      "name": "getCountries",
      "outputs": [
        {
          "components": [
            {
              "internalType": "uint256",
              "name": "countryId",
              "type": "uint256"
            },
            {
              "internalType": "string",
              "name": "countryName",
              "type": "string"
            },
            {
              "internalType": "string",
              "name": "latLong",
              "type": "string"
            },
            {
              "internalType": "uint256",
              "name": "createdAt",
              "type": "uint256"
            },
            {
              "internalType": "uint256",
              "name": "updatedAt",
              "type": "uint256"
            }
          ],
          "internalType": "struct DecentralizedPassport.Country[]",
          "name": "",
          "type": "tuple[]"
        }
      ],
      "stateMutability": "view",
      "type": "function",
      "constant": true
    },
    {
      "inputs": [
        {
          "internalType": "address",
          "name": "_issuerAddress",
          "type": "address"
        },
        {
          "internalType": "string",
          "name": "_issuerName",
          "type": "string"
        },
        {
          "internalType": "string",
          "name": "_issuerCountry",
          "type": "string"
        }
      ],
      "name": "registerIssuer",
      "outputs": [],
      "stateMutability": "nonpayable",
      "type": "function"
    },
    {
      "inputs": [
        {
          "internalType": "string",
          "name": "_countryName",
          "type": "string"
        }
      ],
      "name": "getIssuerByCountry",
      "outputs": [
        {
          "components": [
            {
              "internalType": "uint256",
              "name": "issuerId",
              "type": "uint256"
            },
            {
              "internalType": "address",
              "name": "issuerAddress",
              "type": "address"
            },
            {
              "internalType": "string",
              "name": "issuerName",
              "type": "string"
            },
            {
              "internalType": "uint256",
              "name": "issuerCountryId",
              "type": "uint256"
            },
            {
              "internalType": "uint256",
              "name": "createdAt",
              "type": "uint256"
            }
          ],
          "internalType": "struct DecentralizedPassport.Issuer[]",
          "name": "",
          "type": "tuple[]"
        }
      ],
      "stateMutability": "view",
      "type": "function",
      "constant": true
    },
    {
      "inputs": [
        {
          "internalType": "string",
          "name": "_userName",
          "type": "string"
        },
        {
          "internalType": "string",
          "name": "_userDob",
          "type": "string"
        },
        {
          "internalType": "string",
          "name": "_userCountry",
          "type": "string"
        }
      ],
      "name": "requestPassport",
      "outputs": [],
      "stateMutability": "nonpayable",
      "type": "function"
    },
    {
      "inputs": [],
      "name": "getPendingPassport",
      "outputs": [
        {
          "components": [
            {
              "internalType": "uint256",
              "name": "passportId",
              "type": "uint256"
            },
            {
              "internalType": "address",
              "name": "userAddress",
              "type": "address"
            },
            {
              "internalType": "string",
              "name": "userName",
              "type": "string"
            },
            {
              "internalType": "string",
              "name": "userDob",
              "type": "string"
            },
            {
              "internalType": "uint256",
              "name": "userCountryId",
              "type": "uint256"
            },
            {
              "internalType": "uint256",
              "name": "issuedBy",
              "type": "uint256"
            },
            {
              "internalType": "uint256",
              "name": "createdAt",
              "type": "uint256"
            }
          ],
          "internalType": "struct DecentralizedPassport.PassportData[]",
          "name": "",
          "type": "tuple[]"
        }
      ],
      "stateMutability": "view",
      "type": "function",
      "constant": true
    },
    {
      "inputs": [
        {
          "internalType": "uint256",
          "name": "_passportId",
          "type": "uint256"
        }
      ],
      "name": "approvePassport",
      "outputs": [],
      "stateMutability": "nonpayable",
      "type": "function"
    },
    {
      "inputs": [],
      "name": "getPassport",
      "outputs": [
        {
          "components": [
            {
              "internalType": "uint256",
              "name": "passportId",
              "type": "uint256"
            },
            {
              "internalType": "address",
              "name": "userAddress",
              "type": "address"
            },
            {
              "internalType": "string",
              "name": "userName",
              "type": "string"
            },
            {
              "internalType": "string",
              "name": "userDob",
              "type": "string"
            },
            {
              "internalType": "uint256",
              "name": "userCountryId",
              "type": "uint256"
            },
            {
              "internalType": "uint256",
              "name": "issuedBy",
              "type": "uint256"
            },
            {
              "internalType": "uint256",
              "name": "createdAt",
              "type": "uint256"
            }
          ],
          "internalType": "struct DecentralizedPassport.PassportData",
          "name": "",
          "type": "tuple"
        }
      ],
      "stateMutability": "view",
      "type": "function",
      "constant": true
    },
    {
      "inputs": [
        {
          "internalType": "address",
          "name": "_userAddress",
          "type": "address"
        }
      ],
      "name": "getPassportByAddress",
      "outputs": [
        {
          "components": [
            {
              "internalType": "uint256",
              "name": "passportId",
              "type": "uint256"
            },
            {
              "internalType": "address",
              "name": "userAddress",
              "type": "address"
            },
            {
              "internalType": "string",
              "name": "userName",
              "type": "string"
            },
            {
              "internalType": "string",
              "name": "userDob",
              "type": "string"
            },
            {
              "internalType": "uint256",
              "name": "userCountryId",
              "type": "uint256"
            },
            {
              "internalType": "uint256",
              "name": "issuedBy",
              "type": "uint256"
            },
            {
              "internalType": "uint256",
              "name": "createdAt",
              "type": "uint256"
            }
          ],
          "internalType": "struct DecentralizedPassport.PassportData",
          "name": "",
          "type": "tuple"
        }
      ],
      "stateMutability": "view",
      "type": "function",
      "constant": true
    },
    {
      "inputs": [
        {
          "internalType": "address",
          "name": "_userAddress",
          "type": "address"
        }
      ],
      "name": "verifyPassport",
      "outputs": [
        {
          "internalType": "bool",
          "name": "",
          "type": "bool"
        }
      ],
      "stateMutability": "view",
      "type": "function",
      "constant": true
    }
  ],
  "bytecode": "0x608060405260006001556000600255600060035534801561001f57600080fd5b50336000806101000a81548173ffffffffffffffffffffffffffffffffffffffff021916908373ffffffffffffffffffffffffffffffffffffffff16021790555061442f8061006f6000396000f3fe608060405234801561001057600080fd5b50600436106101005760003560e01c8063877b9a6711610097578063beca800911610066578063beca8009146102c3578063c80039fb146102e1578063e69b664c14610311578063f021bdd51461032d57610100565b8063877b9a67146102275780638eb20b0b14610257578063aa033a1a14610275578063b6db75a0146102a557610100565b806363e41021116100d357806363e41021146101a157806366025dc8146101bd5780636b725a98146101d95780637d45e2d6146101f757610100565b80633072158214610105578063406d9209146101215780634e6b0158146101515780635884a05214610185575b600080fd5b61011f600480360381019061011a91906132ea565b610361565b005b61013b60048036038101906101369190613391565b6106d6565b60405161014891906135f4565b60405180910390f35b61016b60048036038101906101669190613642565b6108da565b60405161017c9594939291906136c8565b60405180910390f35b61019f600480360381019061019a9190613729565b610a30565b005b6101bb60048036038101906101b691906137e0565b610d17565b005b6101d760048036038101906101d2919061386b565b611224565b005b6101e161154f565b6040516101ee9190613a48565b60405180910390f35b610211600480360381019061020c9190613a6a565b6118bb565b60405161021e9190613ab2565b60405180910390f35b610241600480360381019061023c9190613a6a565b611b5a565b60405161024e9190613ab2565b60405180910390f35b61025f611b7a565b60405161026c9190613b70565b60405180910390f35b61028f600480360381019061028a9190613a6a565b611dff565b60405161029c9190613b70565b60405180910390f35b6102ad612112565b6040516102ba9190613ab2565b60405180910390f35b6102cb612169565b6040516102d89190613cd1565b60405180910390f35b6102fb60048036038101906102f69190613391565b61230a565b6040516103089190613ab2565b60405180910390f35b61032b60048036038101906103269190613642565b612340565b005b61034760048036038101906103429190613391565b612e71565b6040516103589594939291906136c8565b60405180910390f35b600c60003373ffffffffffffffffffffffffffffffffffffffff1673ffffffffffffffffffffffffffffffffffffffff16815260200190815260200160002060009054906101000a900460ff16156103ee576040517f08c379a00000000000000000000000000000000000000000000000000000000081526004016103e590613d3f565b60405180910390fd5b600d60003373ffffffffffffffffffffffffffffffffffffffff1673ffffffffffffffffffffffffffffffffffffffff16815260200190815260200160002060009054906101000a900460ff161561047b576040517f08c379a000000000000000000000000000000000000000000000000000000000815260040161047290613dab565b60405180910390fd5b60048160405161048b9190613e07565b908152602001604051809103902060009054906101000a900460ff166104e6576040517f08c379a00000000000000000000000000000000000000000000000000000000081526004016104dd90613e6a565b60405180910390fd5b600360008154809291906104f990613eb9565b919050555060006040518060e0016040528060035481526020013373ffffffffffffffffffffffffffffffffffffffff16815260200185815260200184815260200160068460405161054b9190613e07565b908152602001604051809103902060000154815260200160008152602001428152509050600e60006006846040516105839190613e07565b90815260200160405180910390206000015481526020019081526020016000208190806001815401808255809150506001900390600052602060002090600702016000909190919091506000820151816000015560208201518160010160006101000a81548173ffffffffffffffffffffffffffffffffffffffff021916908373ffffffffffffffffffffffffffffffffffffffff160217905550604082015181600201908051906020019061063a929190612fcd565b506060820151816003019080519060200190610657929190612fcd565b506080820151816004015560a0820151816005015560c0820151816006015550506001600d60003373ffffffffffffffffffffffffffffffffffffffff1673ffffffffffffffffffffffffffffffffffffffff16815260200190815260200160002060006101000a81548160ff02191690831515021790555050505050565b60606004826040516106e89190613e07565b908152602001604051809103902060009054906101000a900460ff16610743576040517f08c379a000000000000000000000000000000000000000000000000000000000815260040161073a90613e6a565b60405180910390fd5b600b60006006846040516107579190613e07565b9081526020016040518091039020600001548152602001908152602001600020805480602002602001604051908101604052809291908181526020016000905b828210156108cf57838290600052602060002090600502016040518060a0016040529081600082015481526020016001820160009054906101000a900473ffffffffffffffffffffffffffffffffffffffff1673ffffffffffffffffffffffffffffffffffffffff1673ffffffffffffffffffffffffffffffffffffffff16815260200160028201805461082a90613f30565b80601f016020809104026020016040519081016040528092919081815260200182805461085690613f30565b80156108a35780601f10610878576101008083540402835291602001916108a3565b820191906000526020600020905b81548152906001019060200180831161088657829003601f168201915b505050505081526020016003820154815260200160048201548152505081526020019060010190610797565b505050509050919050565b600781815481106108ea57600080fd5b906000526020600020906005020160009150905080600001549080600101805461091390613f30565b80601f016020809104026020016040519081016040528092919081815260200182805461093f90613f30565b801561098c5780601f106109615761010080835404028352916020019161098c565b820191906000526020600020905b81548152906001019060200180831161096f57829003601f168201915b5050505050908060020180546109a190613f30565b80601f01602080910402602001604051908101604052809291908181526020018280546109cd90613f30565b8015610a1a5780601f106109ef57610100808354040283529160200191610a1a565b820191906000526020600020905b8154815290600101906020018083116109fd57829003601f168201915b5050505050908060030154908060040154905085565b60008054906101000a900473ffffffffffffffffffffffffffffffffffffffff1673ffffffffffffffffffffffffffffffffffffffff163373ffffffffffffffffffffffffffffffffffffffff1614610abe576040517f08c379a0000000000000000000000000000000000000000000000000000000008152600401610ab590613fad565b60405180910390fd5b600482604051610ace9190613e07565b908152602001604051809103902060009054906101000a900460ff16610b29576040517f08c379a0000000000000000000000000000000000000000000000000000000008152600401610b2090613e6a565b60405180910390fd5b600060056000858152602001908152602001600020905082816001019080519060200190610b58929190612fcd565b5081816002019080519060200190610b71929190612fcd565b5042816004018190555080600684604051610b8c9190613e07565b9081526020016040518091039020600082015481600001556001820181600101908054610bb890613f30565b610bc3929190613053565b506002820181600201908054610bd890613f30565b610be3929190613053565b50600382015481600301556004820154816004015590505060005b600780549050811015610cd3578460078281548110610c2057610c1f613fcd565b5b90600052602060002090600502016000015403610cc0578160078281548110610c4c57610c4b613fcd565b5b9060005260206000209060050201600082015481600001556001820181600101908054610c7890613f30565b610c83929190613053565b506002820181600201908054610c9890613f30565b610ca3929190613053565b506003820154816003015560048201548160040155905050610cd3565b8080610ccb90613eb9565b915050610bfe565b507fdcd4acac1d3ad3ee43d1d6f76367777717477bbf3dfdb0f47d27e51178d1974384848442604051610d099493929190613ffc565b60405180910390a150505050565b60008054906101000a900473ffffffffffffffffffffffffffffffffffffffff1673ffffffffffffffffffffffffffffffffffffffff163373ffffffffffffffffffffffffffffffffffffffff1614610da5576040517f08c379a0000000000000000000000000000000000000000000000000000000008152600401610d9c90613fad565b60405180910390fd5b600860008473ffffffffffffffffffffffffffffffffffffffff1673ffffffffffffffffffffffffffffffffffffffff16815260200190815260200160002060009054906101000a900460ff1615610e32576040517f08c379a0000000000000000000000000000000000000000000000000000000008152600401610e299061409b565b60405180910390fd5b600481604051610e429190613e07565b908152602001604051809103902060009054906101000a900460ff16610e9d576040517f08c379a0000000000000000000000000000000000000000000000000000000008152600401610e9490613e6a565b60405180910390fd5b60026000815480929190610eb090613eb9565b919050555060006040518060a0016040528060025481526020018573ffffffffffffffffffffffffffffffffffffffff168152602001848152602001600684604051610efc9190613e07565b908152602001604051809103902060000154815260200142815250905080600984604051610f2a9190613e07565b90815260200160405180910390206000820151816000015560208201518160010160006101000a81548173ffffffffffffffffffffffffffffffffffffffff021916908373ffffffffffffffffffffffffffffffffffffffff1602179055506040820151816002019080519060200190610fa5929190612fcd565b50606082015181600301556080820151816004015590505080600a60008673ffffffffffffffffffffffffffffffffffffffff1673ffffffffffffffffffffffffffffffffffffffff1681526020019081526020016000206000820151816000015560208201518160010160006101000a81548173ffffffffffffffffffffffffffffffffffffffff021916908373ffffffffffffffffffffffffffffffffffffffff160217905550604082015181600201908051906020019061106a929190612fcd565b5060608201518160030155608082015181600401559050506001600860008673ffffffffffffffffffffffffffffffffffffffff1673ffffffffffffffffffffffffffffffffffffffff16815260200190815260200160002060006101000a81548160ff021916908315150217905550600b60006006846040516110ee9190613e07565b90815260200160405180910390206000015481526020019081526020016000208190806001815401808255809150506001900390600052602060002090600502016000909190919091506000820151816000015560208201518160010160006101000a81548173ffffffffffffffffffffffffffffffffffffffff021916908373ffffffffffffffffffffffffffffffffffffffff16021790555060408201518160020190805190602001906111a5929190612fcd565b50606082015181600301556080820151816004015550507f5ebd941c28a27cc5db0027bf5bb808e09998115a0582c6175eeec728cb1bd66c60025485856006866040516111f29190613e07565b908152602001604051809103902060000154426040516112169594939291906140ca565b60405180910390a150505050565b60008054906101000a900473ffffffffffffffffffffffffffffffffffffffff1673ffffffffffffffffffffffffffffffffffffffff163373ffffffffffffffffffffffffffffffffffffffff16146112b2576040517f08c379a00000000000000000000000000000000000000000000000000000000081526004016112a990613fad565b60405180910390fd5b6004826040516112c29190613e07565b908152602001604051809103902060009054906101000a900460ff161561131e576040517f08c379a000000000000000000000000000000000000000000000000000000000815260040161131590614170565b60405180910390fd5b6001600081548092919061133190613eb9565b919050555060006040518060a0016040528060015481526020018481526020018381526020014281526020014281525090508060056000600154815260200190815260200160002060008201518160000155602082015181600101908051906020019061139f929190612fcd565b5060408201518160020190805190602001906113bc929190612fcd565b506060820151816003015560808201518160040155905050806006846040516113e59190613e07565b9081526020016040518091039020600082015181600001556020820151816001019080519060200190611419929190612fcd565b506040820151816002019080519060200190611436929190612fcd565b50606082015181600301556080820151816004015590505060016004846040516114609190613e07565b908152602001604051809103902060006101000a81548160ff02191690831515021790555060078190806001815401808255809150506001900390600052602060002090600502016000909190919091506000820151816000015560208201518160010190805190602001906114d7929190612fcd565b5060408201518160020190805190602001906114f4929190612fcd565b50606082015181600301556080820151816004015550507f9cc00184c35d52b732fdd263771c662c54c428b823531516efd3a7cf56586b7b6001548484426040516115429493929190613ffc565b60405180910390a1505050565b6060600860003373ffffffffffffffffffffffffffffffffffffffff1673ffffffffffffffffffffffffffffffffffffffff16815260200190815260200160002060009054906101000a900460ff166115dd576040517f08c379a00000000000000000000000000000000000000000000000000000000081526004016115d4906141dc565b60405180910390fd5b600860003373ffffffffffffffffffffffffffffffffffffffff1673ffffffffffffffffffffffffffffffffffffffff16815260200190815260200160002060009054906101000a900460ff16611669576040517f08c379a0000000000000000000000000000000000000000000000000000000008152600401611660906141dc565b60405180910390fd5b600e6000600a60003373ffffffffffffffffffffffffffffffffffffffff1673ffffffffffffffffffffffffffffffffffffffff168152602001908152602001600020600301548152602001908152602001600020805480602002602001604051908101604052809291908181526020016000905b828210156118b257838290600052602060002090600702016040518060e0016040529081600082015481526020016001820160009054906101000a900473ffffffffffffffffffffffffffffffffffffffff1673ffffffffffffffffffffffffffffffffffffffff1673ffffffffffffffffffffffffffffffffffffffff16815260200160028201805461177190613f30565b80601f016020809104026020016040519081016040528092919081815260200182805461179d90613f30565b80156117ea5780601f106117bf576101008083540402835291602001916117ea565b820191906000526020600020905b8154815290600101906020018083116117cd57829003601f168201915b5050505050815260200160038201805461180390613f30565b80601f016020809104026020016040519081016040528092919081815260200182805461182f90613f30565b801561187c5780601f106118515761010080835404028352916020019161187c565b820191906000526020600020905b81548152906001019060200180831161185f57829003601f168201915b505050505081526020016004820154815260200160058201548152602001600682015481525050815260200190600101906116de565b50505050905090565b6000600c60008373ffffffffffffffffffffffffffffffffffffffff1673ffffffffffffffffffffffffffffffffffffffff16815260200190815260200160002060009054906101000a900460ff16611949576040517f08c379a000000000000000000000000000000000000000000000000000000000815260040161194090614248565b60405180910390fd5b6000601060008473ffffffffffffffffffffffffffffffffffffffff1673ffffffffffffffffffffffffffffffffffffffff1681526020019081526020016000206040518060e0016040529081600082015481526020016001820160009054906101000a900473ffffffffffffffffffffffffffffffffffffffff1673ffffffffffffffffffffffffffffffffffffffff1673ffffffffffffffffffffffffffffffffffffffff168152602001600282018054611a0590613f30565b80601f0160208091040260200160405190810160405280929190818152602001828054611a3190613f30565b8015611a7e5780601f10611a5357610100808354040283529160200191611a7e565b820191906000526020600020905b815481529060010190602001808311611a6157829003601f168201915b50505050508152602001600382018054611a9790613f30565b80601f0160208091040260200160405190810160405280929190818152602001828054611ac390613f30565b8015611b105780601f10611ae557610100808354040283529160200191611b10565b820191906000526020600020905b815481529060010190602001808311611af357829003601f168201915b505050505081526020016004820154815260200160058201548152602001600682015481525050905060008160a0015103611b4f576000915050611b55565b60019150505b919050565b60086020528060005260406000206000915054906101000a900460ff1681565b611b826130e0565b600c60003373ffffffffffffffffffffffffffffffffffffffff1673ffffffffffffffffffffffffffffffffffffffff16815260200190815260200160002060009054906101000a900460ff16611c0e576040517f08c379a0000000000000000000000000000000000000000000000000000000008152600401611c0590614248565b60405180910390fd5b601060003373ffffffffffffffffffffffffffffffffffffffff1673ffffffffffffffffffffffffffffffffffffffff1681526020019081526020016000206040518060e0016040529081600082015481526020016001820160009054906101000a900473ffffffffffffffffffffffffffffffffffffffff1673ffffffffffffffffffffffffffffffffffffffff1673ffffffffffffffffffffffffffffffffffffffff168152602001600282018054611cc890613f30565b80601f0160208091040260200160405190810160405280929190818152602001828054611cf490613f30565b8015611d415780601f10611d1657610100808354040283529160200191611d41565b820191906000526020600020905b815481529060010190602001808311611d2457829003601f168201915b50505050508152602001600382018054611d5a90613f30565b80601f0160208091040260200160405190810160405280929190818152602001828054611d8690613f30565b8015611dd35780601f10611da857610100808354040283529160200191611dd3565b820191906000526020600020905b815481529060010190602001808311611db657829003601f168201915b505050505081526020016004820154815260200160058201548152602001600682015481525050905090565b611e076130e0565b600860003373ffffffffffffffffffffffffffffffffffffffff1673ffffffffffffffffffffffffffffffffffffffff16815260200190815260200160002060009054906101000a900460ff16611e93576040517f08c379a0000000000000000000000000000000000000000000000000000000008152600401611e8a906141dc565b60405180910390fd5b600c60008373ffffffffffffffffffffffffffffffffffffffff1673ffffffffffffffffffffffffffffffffffffffff16815260200190815260200160002060009054906101000a900460ff16611f1f576040517f08c379a0000000000000000000000000000000000000000000000000000000008152600401611f1690614248565b60405180910390fd5b601060008373ffffffffffffffffffffffffffffffffffffffff1673ffffffffffffffffffffffffffffffffffffffff1681526020019081526020016000206040518060e0016040529081600082015481526020016001820160009054906101000a900473ffffffffffffffffffffffffffffffffffffffff1673ffffffffffffffffffffffffffffffffffffffff1673ffffffffffffffffffffffffffffffffffffffff168152602001600282018054611fd990613f30565b80601f016020809104026020016040519081016040528092919081815260200182805461200590613f30565b80156120525780601f1061202757610100808354040283529160200191612052565b820191906000526020600020905b81548152906001019060200180831161203557829003601f168201915b5050505050815260200160038201805461206b90613f30565b80601f016020809104026020016040519081016040528092919081815260200182805461209790613f30565b80156120e45780601f106120b9576101008083540402835291602001916120e4565b820191906000526020600020905b8154815290600101906020018083116120c757829003601f168201915b5050505050815260200160048201548152602001600582015481526020016006820154815250509050919050565b60008060009054906101000a900473ffffffffffffffffffffffffffffffffffffffff1673ffffffffffffffffffffffffffffffffffffffff163373ffffffffffffffffffffffffffffffffffffffff1614905090565b60606007805480602002602001604051908101604052809291908181526020016000905b8282101561230157838290600052602060002090600502016040518060a0016040529081600082015481526020016001820180546121ca90613f30565b80601f01602080910402602001604051908101604052809291908181526020018280546121f690613f30565b80156122435780601f1061221857610100808354040283529160200191612243565b820191906000526020600020905b81548152906001019060200180831161222657829003601f168201915b5050505050815260200160028201805461225c90613f30565b80601f016020809104026020016040519081016040528092919081815260200182805461228890613f30565b80156122d55780601f106122aa576101008083540402835291602001916122d5565b820191906000526020600020905b8154815290600101906020018083116122b857829003601f168201915b50505050508152602001600382015481526020016004820154815250508152602001906001019061218d565b50505050905090565b6004818051602081018201805184825260208301602085012081835280955050505050506000915054906101000a900460ff1681565b600860003373ffffffffffffffffffffffffffffffffffffffff1673ffffffffffffffffffffffffffffffffffffffff16815260200190815260200160002060009054906101000a900460ff166123cc576040517f08c379a00000000000000000000000000000000000000000000000000000000081526004016123c3906141dc565b60405180910390fd5b600860003373ffffffffffffffffffffffffffffffffffffffff1673ffffffffffffffffffffffffffffffffffffffff16815260200190815260200160002060009054906101000a900460ff16612458576040517f08c379a000000000000000000000000000000000000000000000000000000000815260040161244f906141dc565b60405180910390fd5b6000600e6000600a60003373ffffffffffffffffffffffffffffffffffffffff1673ffffffffffffffffffffffffffffffffffffffff16815260200190815260200160002060030154815260200190815260200160002080549050116124f3576040517f08c379a00000000000000000000000000000000000000000000000000000000081526004016124ea906142b4565b60405180910390fd5b6000805b600e6000600a60003373ffffffffffffffffffffffffffffffffffffffff1673ffffffffffffffffffffffffffffffffffffffff16815260200190815260200160002060030154815260200190815260200160002080549050811015612e2c5782600e6000600a60003373ffffffffffffffffffffffffffffffffffffffff1673ffffffffffffffffffffffffffffffffffffffff16815260200190815260200160002060030154815260200190815260200160002082815481106125bf576125be613fcd565b5b90600052602060002090600702016000015403612e1957600191506000600e6000600a60003373ffffffffffffffffffffffffffffffffffffffff1673ffffffffffffffffffffffffffffffffffffffff168152602001908152602001600020600301548152602001908152602001600020828154811061264357612642613fcd565b5b90600052602060002090600702016040518060e0016040529081600082015481526020016001820160009054906101000a900473ffffffffffffffffffffffffffffffffffffffff1673ffffffffffffffffffffffffffffffffffffffff1673ffffffffffffffffffffffffffffffffffffffff1681526020016002820180546126cc90613f30565b80601f01602080910402602001604051908101604052809291908181526020018280546126f890613f30565b80156127455780601f1061271a57610100808354040283529160200191612745565b820191906000526020600020905b81548152906001019060200180831161272857829003601f168201915b5050505050815260200160038201805461275e90613f30565b80601f016020809104026020016040519081016040528092919081815260200182805461278a90613f30565b80156127d75780601f106127ac576101008083540402835291602001916127d7565b820191906000526020600020905b8154815290600101906020018083116127ba57829003601f168201915b5050505050815260200160048201548152602001600582015481526020016006820154815250509050600a60003373ffffffffffffffffffffffffffffffffffffffff1673ffffffffffffffffffffffffffffffffffffffff168152602001908152602001600020600001548160a0018181525050600f6000826080015181526020019081526020016000208190806001815401808255809150506001900390600052602060002090600702016000909190919091506000820151816000015560208201518160010160006101000a81548173ffffffffffffffffffffffffffffffffffffffff021916908373ffffffffffffffffffffffffffffffffffffffff16021790555060408201518160020190805190602001906128fa929190612fcd565b506060820151816003019080519060200190612917929190612fcd565b506080820151816004015560a0820151816005015560c0820151816006015550506001600c6000836020015173ffffffffffffffffffffffffffffffffffffffff1673ffffffffffffffffffffffffffffffffffffffff16815260200190815260200160002060006101000a81548160ff0219169083151502179055506000600d6000836020015173ffffffffffffffffffffffffffffffffffffffff1673ffffffffffffffffffffffffffffffffffffffff16815260200190815260200160002060006101000a81548160ff0219169083151502179055508060106000836020015173ffffffffffffffffffffffffffffffffffffffff1673ffffffffffffffffffffffffffffffffffffffff1681526020019081526020016000206000820151816000015560208201518160010160006101000a81548173ffffffffffffffffffffffffffffffffffffffff021916908373ffffffffffffffffffffffffffffffffffffffff1602179055506040820151816002019080519060200190612aa1929190612fcd565b506060820151816003019080519060200190612abe929190612fcd565b506080820151816004015560a0820151816005015560c0820151816006015590505060008290505b6001600e6000600a60003373ffffffffffffffffffffffffffffffffffffffff1673ffffffffffffffffffffffffffffffffffffffff16815260200190815260200160002060030154815260200190815260200160002080549050612b4b91906142d4565b811015612d2d57600e6000600a60003373ffffffffffffffffffffffffffffffffffffffff1673ffffffffffffffffffffffffffffffffffffffff168152602001908152602001600020600301548152602001908152602001600020600182612bb49190614308565b81548110612bc557612bc4613fcd565b5b9060005260206000209060070201600e6000600a60003373ffffffffffffffffffffffffffffffffffffffff1673ffffffffffffffffffffffffffffffffffffffff1681526020019081526020016000206003015481526020019081526020016000208281548110612c3a57612c39613fcd565b5b9060005260206000209060070201600082015481600001556001820160009054906101000a900473ffffffffffffffffffffffffffffffffffffffff168160010160006101000a81548173ffffffffffffffffffffffffffffffffffffffff021916908373ffffffffffffffffffffffffffffffffffffffff1602179055506002820181600201908054612ccd90613f30565b612cd8929190613053565b506003820181600301908054612ced90613f30565b612cf8929190613053565b506004820154816004015560058201548160050155600682015481600601559050508080612d2590613eb9565b915050612ae6565b50600e6000600a60003373ffffffffffffffffffffffffffffffffffffffff1673ffffffffffffffffffffffffffffffffffffffff168152602001908152602001600020600301548152602001908152602001600020805480612d9357612d9261435e565b5b60019003818190600052602060002090600702016000808201600090556001820160006101000a81549073ffffffffffffffffffffffffffffffffffffffff0219169055600282016000612de79190613133565b600382016000612df79190613133565b6004820160009055600582016000905560068201600090555050905550612e2c565b8080612e2490613eb9565b9150506124f7565b5080612e6d576040517f08c379a0000000000000000000000000000000000000000000000000000000008152600401612e64906143d9565b60405180910390fd5b5050565b600681805160208101820180518482526020830160208501208183528095505050505050600091509050806000015490806001018054612eb090613f30565b80601f0160208091040260200160405190810160405280929190818152602001828054612edc90613f30565b8015612f295780601f10612efe57610100808354040283529160200191612f29565b820191906000526020600020905b815481529060010190602001808311612f0c57829003601f168201915b505050505090806002018054612f3e90613f30565b80601f0160208091040260200160405190810160405280929190818152602001828054612f6a90613f30565b8015612fb75780601f10612f8c57610100808354040283529160200191612fb7565b820191906000526020600020905b815481529060010190602001808311612f9a57829003601f168201915b5050505050908060030154908060040154905085565b828054612fd990613f30565b90600052602060002090601f016020900481019282612ffb5760008555613042565b82601f1061301457805160ff1916838001178555613042565b82800160010185558215613042579182015b82811115613041578251825591602001919060010190613026565b5b50905061304f9190613173565b5090565b82805461305f90613f30565b90600052602060002090601f01602090048101928261308157600085556130cf565b82601f1061309257805485556130cf565b828001600101855582156130cf57600052602060002091601f016020900482015b828111156130ce5782548255916001019190600101906130b3565b5b5090506130dc9190613173565b5090565b6040518060e0016040528060008152602001600073ffffffffffffffffffffffffffffffffffffffff16815260200160608152602001606081526020016000815260200160008152602001600081525090565b50805461313f90613f30565b6000825580601f106131515750613170565b601f01602090049060005260206000209081019061316f9190613173565b5b50565b5b8082111561318c576000816000905550600101613174565b5090565b6000604051905090565b600080fd5b600080fd5b600080fd5b600080fd5b6000601f19601f8301169050919050565b7f4e487b7100000000000000000000000000000000000000000000000000000000600052604160045260246000fd5b6131f7826131ae565b810181811067ffffffffffffffff82111715613216576132156131bf565b5b80604052505050565b6000613229613190565b905061323582826131ee565b919050565b600067ffffffffffffffff821115613255576132546131bf565b5b61325e826131ae565b9050602081019050919050565b82818337600083830152505050565b600061328d6132888461323a565b61321f565b9050828152602081018484840111156132a9576132a86131a9565b5b6132b484828561326b565b509392505050565b600082601f8301126132d1576132d06131a4565b5b81356132e184826020860161327a565b91505092915050565b6000806000606084860312156133035761330261319a565b5b600084013567ffffffffffffffff8111156133215761332061319f565b5b61332d868287016132bc565b935050602084013567ffffffffffffffff81111561334e5761334d61319f565b5b61335a868287016132bc565b925050604084013567ffffffffffffffff81111561337b5761337a61319f565b5b613387868287016132bc565b9150509250925092565b6000602082840312156133a7576133a661319a565b5b600082013567ffffffffffffffff8111156133c5576133c461319f565b5b6133d1848285016132bc565b91505092915050565b600081519050919050565b600082825260208201905092915050565b6000819050602082019050919050565b6000819050919050565b61341981613406565b82525050565b600073ffffffffffffffffffffffffffffffffffffffff82169050919050565b600061344a8261341f565b9050919050565b61345a8161343f565b82525050565b600081519050919050565b600082825260208201905092915050565b60005b8381101561349a57808201518184015260208101905061347f565b838111156134a9576000848401525b50505050565b60006134ba82613460565b6134c4818561346b565b93506134d481856020860161347c565b6134dd816131ae565b840191505092915050565b600060a0830160008301516135006000860182613410565b5060208301516135136020860182613451565b506040830151848203604086015261352b82826134af565b91505060608301516135406060860182613410565b5060808301516135536080860182613410565b508091505092915050565b600061356a83836134e8565b905092915050565b6000602082019050919050565b600061358a826133da565b61359481856133e5565b9350836020820285016135a6856133f6565b8060005b858110156135e257848403895281516135c3858261355e565b94506135ce83613572565b925060208a019950506001810190506135aa565b50829750879550505050505092915050565b6000602082019050818103600083015261360e818461357f565b905092915050565b61361f81613406565b811461362a57600080fd5b50565b60008135905061363c81613616565b92915050565b6000602082840312156136585761365761319a565b5b60006136668482850161362d565b91505092915050565b61367881613406565b82525050565b600082825260208201905092915050565b600061369a82613460565b6136a4818561367e565b93506136b481856020860161347c565b6136bd816131ae565b840191505092915050565b600060a0820190506136dd600083018861366f565b81810360208301526136ef818761368f565b90508181036040830152613703818661368f565b9050613712606083018561366f565b61371f608083018461366f565b9695505050505050565b6000806000606084860312156137425761374161319a565b5b60006137508682870161362d565b935050602084013567ffffffffffffffff8111156137715761377061319f565b5b61377d868287016132bc565b925050604084013567ffffffffffffffff81111561379e5761379d61319f565b5b6137aa868287016132bc565b9150509250925092565b6137bd8161343f565b81146137c857600080fd5b50565b6000813590506137da816137b4565b92915050565b6000806000606084860312156137f9576137f861319a565b5b6000613807868287016137cb565b935050602084013567ffffffffffffffff8111156138285761382761319f565b5b613834868287016132bc565b925050604084013567ffffffffffffffff8111156138555761385461319f565b5b613861868287016132bc565b9150509250925092565b600080604083850312156138825761388161319a565b5b600083013567ffffffffffffffff8111156138a05761389f61319f565b5b6138ac858286016132bc565b925050602083013567ffffffffffffffff8111156138cd576138cc61319f565b5b6138d9858286016132bc565b9150509250929050565b600081519050919050565b600082825260208201905092915050565b6000819050602082019050919050565b600060e0830160008301516139276000860182613410565b50602083015161393a6020860182613451565b506040830151848203604086015261395282826134af565b9150506060830151848203606086015261396c82826134af565b91505060808301516139816080860182613410565b5060a083015161399460a0860182613410565b5060c08301516139a760c0860182613410565b508091505092915050565b60006139be838361390f565b905092915050565b6000602082019050919050565b60006139de826138e3565b6139e881856138ee565b9350836020820285016139fa856138ff565b8060005b85811015613a365784840389528151613a1785826139b2565b9450613a22836139c6565b925060208a019950506001810190506139fe565b50829750879550505050505092915050565b60006020820190508181036000830152613a6281846139d3565b905092915050565b600060208284031215613a8057613a7f61319a565b5b6000613a8e848285016137cb565b91505092915050565b60008115159050919050565b613aac81613a97565b82525050565b6000602082019050613ac76000830184613aa3565b92915050565b600060e083016000830151613ae56000860182613410565b506020830151613af86020860182613451565b5060408301518482036040860152613b1082826134af565b91505060608301518482036060860152613b2a82826134af565b9150506080830151613b3f6080860182613410565b5060a0830151613b5260a0860182613410565b5060c0830151613b6560c0860182613410565b508091505092915050565b60006020820190508181036000830152613b8a8184613acd565b905092915050565b600081519050919050565b600082825260208201905092915050565b6000819050602082019050919050565b600060a083016000830151613bd66000860182613410565b5060208301518482036020860152613bee82826134af565b91505060408301518482036040860152613c0882826134af565b9150506060830151613c1d6060860182613410565b506080830151613c306080860182613410565b508091505092915050565b6000613c478383613bbe565b905092915050565b6000602082019050919050565b6000613c6782613b92565b613c718185613b9d565b935083602082028501613c8385613bae565b8060005b85811015613cbf5784840389528151613ca08582613c3b565b9450613cab83613c4f565b925060208a01995050600181019050613c87565b50829750879550505050505092915050565b60006020820190508181036000830152613ceb8184613c5c565b905092915050565b7f50617373706f727420616c726561647920657869737473000000000000000000600082015250565b6000613d2960178361367e565b9150613d3482613cf3565b602082019050919050565b60006020820190508181036000830152613d5881613d1c565b9050919050565b7f50617373706f727420616c726561647920726571756573746564000000000000600082015250565b6000613d95601a8361367e565b9150613da082613d5f565b602082019050919050565b60006020820190508181036000830152613dc481613d88565b9050919050565b600081905092915050565b6000613de182613460565b613deb8185613dcb565b9350613dfb81856020860161347c565b80840191505092915050565b6000613e138284613dd6565b915081905092915050565b7f436f756e74727920646f6573206e6f7420657869737473000000000000000000600082015250565b6000613e5460178361367e565b9150613e5f82613e1e565b602082019050919050565b60006020820190508181036000830152613e8381613e47565b9050919050565b7f4e487b7100000000000000000000000000000000000000000000000000000000600052601160045260246000fd5b6000613ec482613406565b91507fffffffffffffffffffffffffffffffffffffffffffffffffffffffffffffffff8203613ef657613ef5613e8a565b5b600182019050919050565b7f4e487b7100000000000000000000000000000000000000000000000000000000600052602260045260246000fd5b60006002820490506001821680613f4857607f821691505b602082108103613f5b57613f5a613f01565b5b50919050565b7f4f6e6c792041646d696e00000000000000000000000000000000000000000000600082015250565b6000613f97600a8361367e565b9150613fa282613f61565b602082019050919050565b60006020820190508181036000830152613fc681613f8a565b9050919050565b7f4e487b7100000000000000000000000000000000000000000000000000000000600052603260045260246000fd5b6000608082019050614011600083018761366f565b8181036020830152614023818661368f565b90508181036040830152614037818561368f565b9050614046606083018461366f565b95945050505050565b7f49737375657220616c7265616479206578697374730000000000000000000000600082015250565b600061408560158361367e565b91506140908261404f565b602082019050919050565b600060208201905081810360008301526140b481614078565b9050919050565b6140c48161343f565b82525050565b600060a0820190506140df600083018861366f565b6140ec60208301876140bb565b81810360408301526140fe818661368f565b905061410d606083018561366f565b61411a608083018461366f565b9695505050505050565b7f436f756e74727920616c72656164792065786973747300000000000000000000600082015250565b600061415a60168361367e565b915061416582614124565b602082019050919050565b600060208201905081810360008301526141898161414d565b9050919050565b7f4f6e6c7920497373756572000000000000000000000000000000000000000000600082015250565b60006141c6600b8361367e565b91506141d182614190565b602082019050919050565b600060208201905081810360008301526141f5816141b9565b9050919050565b7f50617373706f727420646f6573206e6f74206578697374730000000000000000600082015250565b600061423260188361367e565b915061423d826141fc565b602082019050919050565b6000602082019050818103600083015261426181614225565b9050919050565b7f4e6f2070656e64696e672070617373706f727400000000000000000000000000600082015250565b600061429e60138361367e565b91506142a982614268565b602082019050919050565b600060208201905081810360008301526142cd81614291565b9050919050565b60006142df82613406565b91506142ea83613406565b9250828210156142fd576142fc613e8a565b5b828203905092915050565b600061431382613406565b915061431e83613406565b9250827fffffffffffffffffffffffffffffffffffffffffffffffffffffffffffffffff0382111561435357614352613e8a565b5b828201905092915050565b7f4e487b7100000000000000000000000000000000000000000000000000000000600052603160045260246000fd5b7f50617373706f7274206e6f7420666f756e640000000000000000000000000000600082015250565b60006143c360128361367e565b91506143ce8261438d565b602082019050919050565b600060208201905081810360008301526143f2816143b6565b905091905056fea2646970667358221220edf1a00f73bcd1d9b8c734646d51f516e1663820ee830f49d886c6feff1d488664736f6c634300080d0033",
  "immutableReferences": {},
  "source": "// SPDX-License-Identifier: MIT\npragma solidity ^0.8.0;\n\ncontract DecentralizedPassport {\n    address private admin;\n    uint256 auto_increment_country_id = 0;\n    uint256 auto_increment_issuer_id = 0;\n    uint256 auto_increment_passport_id = 0;\n\n    constructor() {\n        admin = msg.sender;\n    }\n\n    struct Country {\n        uint256 countryId;\n        string countryName;\n        string latLong;\n        uint256 createdAt;\n        uint256 updatedAt;\n    }\n\n    struct Issuer {\n        uint256 issuerId;\n        address issuerAddress;\n        string issuerName;\n        uint256 issuerCountryId;\n        uint256 createdAt;\n    }\n\n    struct PassportData {\n        uint256 passportId;\n        address userAddress;\n        string userName;\n        string userDob;\n        uint256 userCountryId;\n        uint256 issuedBy;\n        uint256 createdAt;\n    }\n\n    mapping(string => bool) public isCountry;\n    mapping(uint256 => Country) private countryById;\n    mapping(string => Country) public countryByName;\n    Country[] public countryData;\n\n    mapping(address => bool) public isIssuer;\n    mapping(string => Issuer) private issuerByName;\n    mapping(address => Issuer) private issuerByAddress;\n    mapping(uint256 => Issuer[]) private issuerData;\n\n    mapping(address => bool) hasPassport;\n    mapping(address => bool) hasPendingPassport;\n    mapping(uint256 => PassportData[]) private pendingPassportData;\n    mapping(uint256 => PassportData[]) private passportData;\n    mapping(address => PassportData) private myPassport;\n\n    modifier onlyAdmin() {\n        require(msg.sender == admin, \"Only Admin\");\n        _;\n    }\n\n    modifier onlyIssuer() {\n        require(isIssuer[msg.sender], \"Only Issuer\");\n        _;\n    }\n\n    function isAdmin() public view returns (bool) {\n        return msg.sender == admin;\n    }\n\n    // Country API\n    event CountryAdded(\n        uint256 countryId,\n        string countryName,\n        string latLong,\n        uint256 createdAt\n    );\n    function addCountry(\n        string memory _countryName,\n        string memory _latLong\n    ) public onlyAdmin {\n        require(!isCountry[_countryName], \"Country already exists\");\n        auto_increment_country_id++;\n        Country memory country = Country(\n            auto_increment_country_id,\n            _countryName,\n            _latLong,\n            block.timestamp,\n            block.timestamp\n        );\n        countryById[auto_increment_country_id] = country;\n        countryByName[_countryName] = country;\n        isCountry[_countryName] = true;\n\n        countryData.push(country);\n\n        emit CountryAdded(\n            auto_increment_country_id,\n            _countryName,\n            _latLong,\n            block.timestamp\n        );\n    }\n\n    event CountryUpdated(\n        uint256 countryId,\n        string countryName,\n        string latLong,\n        uint256 updatedAt\n    );\n    function updateCountry(\n        uint256 _countryId,\n        string memory _countryName,\n        string memory _latLong\n    ) public onlyAdmin {\n        require(isCountry[_countryName], \"Country does not exists\");\n        Country storage country = countryById[_countryId];\n        country.countryName = _countryName;\n        country.latLong = _latLong;\n        country.updatedAt = block.timestamp;\n        countryByName[_countryName] = country;\n\n\n        // update array\n        for (uint256 i = 0; i < countryData.length; i++) {\n            if (countryData[i].countryId == _countryId) {\n                countryData[i] = country;\n                break;\n            }\n        }\n\n        emit CountryUpdated(\n            _countryId,\n            _countryName,\n            _latLong,\n            block.timestamp\n        );\n    }\n\n    function getCountries() public view returns (Country[] memory) {\n        return countryData;\n    }\n\n    // Issuer API\n    event IssuerAdded(\n        uint256 issuerId,\n        address issuerAddress,\n        string issuerName,\n        uint256 issuerCountryId,\n        uint256 createdAt\n    );\n    function registerIssuer(\n        address _issuerAddress,\n        string memory _issuerName,\n        string memory _issuerCountry\n    ) public onlyAdmin {\n        require(!isIssuer[_issuerAddress], \"Issuer already exists\");\n        require(isCountry[_issuerCountry], \"Country does not exists\");\n        auto_increment_issuer_id++;\n        Issuer memory issuer = Issuer(\n            auto_increment_issuer_id,\n            _issuerAddress,\n            _issuerName,\n            countryByName[_issuerCountry].countryId,\n            block.timestamp\n        );\n        issuerByName[_issuerName] = issuer;\n        issuerByAddress[_issuerAddress] = issuer;\n        isIssuer[_issuerAddress] = true;\n        issuerData[countryByName[_issuerCountry].countryId].push(issuer);\n\n        emit IssuerAdded(\n            auto_increment_issuer_id,\n            _issuerAddress,\n            _issuerName,\n            countryByName[_issuerCountry].countryId,\n            block.timestamp\n        );\n    }\n\n    function getIssuerByCountry(\n        string memory _countryName\n    ) public view returns (Issuer[] memory) {\n        require(isCountry[_countryName], \"Country does not exists\");\n        return issuerData[countryByName[_countryName].countryId];\n    }\n\n    // Passport API\n    // requestPassport, no issuer\n    function requestPassport(\n        string memory _userName,\n        string memory _userDob,\n        string memory _userCountry\n    ) public {\n        require(!hasPassport[msg.sender], \"Passport already exists\");\n        require(!hasPendingPassport[msg.sender], \"Passport already requested\");\n        require(isCountry[_userCountry], \"Country does not exists\");\n        auto_increment_passport_id++;\n        PassportData memory passport = PassportData(\n            auto_increment_passport_id,\n            msg.sender,\n            _userName,\n            _userDob,\n            countryByName[_userCountry].countryId,\n            0,\n            block.timestamp\n        );\n        pendingPassportData[countryByName[_userCountry].countryId].push(\n            passport\n        );\n        hasPendingPassport[msg.sender] = true;\n    }\n\n    // getPendingPassport, issuer, no params. use msg.sender\n    function getPendingPassport()\n        public\n        view\n        onlyIssuer\n        returns (PassportData[] memory)\n    {\n        require(isIssuer[msg.sender], \"Only Issuer\");\n        return pendingPassportData[issuerByAddress[msg.sender].issuerCountryId];\n    }\n\n    // approvePassport, issuer, passportId\n    function approvePassport(uint256 _passportId) public onlyIssuer {\n        require(isIssuer[msg.sender], \"Only Issuer\");\n        require(\n            pendingPassportData[issuerByAddress[msg.sender].issuerCountryId]\n                .length > 0,\n            \"No pending passport\"\n        );\n        bool found = false;\n        for (\n            uint256 i = 0;\n            i <\n            pendingPassportData[issuerByAddress[msg.sender].issuerCountryId]\n                .length;\n            i++\n        ) {\n            if (\n                pendingPassportData[\n                    issuerByAddress[msg.sender].issuerCountryId\n                ][i].passportId == _passportId\n            ) {\n                found = true;\n                PassportData memory passport = pendingPassportData[\n                    issuerByAddress[msg.sender].issuerCountryId\n                ][i];\n                passport.issuedBy = issuerByAddress[msg.sender].issuerId;\n                passportData[passport.userCountryId].push(passport);\n                hasPassport[passport.userAddress] = true;\n                hasPendingPassport[passport.userAddress] = false;\n                myPassport[passport.userAddress] = passport;\n\n                // remove from pending\n                for (\n                    uint256 j = i;\n                    j <\n                    pendingPassportData[\n                        issuerByAddress[msg.sender].issuerCountryId\n                    ].length -\n                        1;\n                    j++\n                ) {\n                    pendingPassportData[\n                        issuerByAddress[msg.sender].issuerCountryId\n                    ][j] = pendingPassportData[\n                        issuerByAddress[msg.sender].issuerCountryId\n                    ][j + 1];\n                }\n                pendingPassportData[issuerByAddress[msg.sender].issuerCountryId]\n                    .pop();\n\n                break;\n            }\n        }\n        require(found, \"Passport not found\");\n    }\n\n    // getPassport, user\n    function getPassport() public view returns (PassportData memory) {\n        require(hasPassport[msg.sender], \"Passport does not exists\");\n        return myPassport[msg.sender];\n    }\n\n    // getPassportByAddress, user\n    function getPassportByAddress(\n        address _userAddress\n    ) public view onlyIssuer returns (PassportData memory) {\n        require(hasPassport[_userAddress], \"Passport does not exists\");\n        return myPassport[_userAddress];\n    }\n\n    // public to verify user passport\n    function verifyPassport(address _userAddress) public view returns (bool) {\n        require(hasPassport[_userAddress], \"Passport does not exists\");\n\n        PassportData memory passport = myPassport[_userAddress];\n\n        if (passport.issuedBy == 0) {\n            return false;\n        }\n\n        return true;\n    }\n}\n",
  "sourcePath": "/Users/ashrock_m13/Ashrockzzz/2024/blockchain/pcontract/contracts/Passport.sol",
  "compiler": {
    "name": "solc",
    "version": "0.8.13+commit.abaa5c0e.Emscripten.clang"
  },
  "schemaVersion": "3.4.16",
  "updatedAt": "2024-05-06T14:16:46.263Z",
  "networkType": "ethereum",
  "devdoc": {
    "kind": "dev",
    "methods": {},
    "version": 1
  },
  "userdoc": {
    "kind": "user",
    "methods": {},
    "version": 1
  }
}