{
  "contractName": "DecentralizedPassport",
  "abi": [
    {
      "inputs": [],
      "stateMutability": "nonpayable",
      "type": "constructor"
    },
    {
      "anonymous": false,
      "inputs": [
        {
          "indexed": false,
          "internalType": "uint256",
          "name": "countryId",
          "type": "uint256"
        },
        {
          "indexed": false,
          "internalType": "string",
          "name": "countryName",
          "type": "string"
        },
        {
          "indexed": false,
          "internalType": "string",
          "name": "latLong",
          "type": "string"
        },
        {
          "indexed": false,
          "internalType": "uint256",
          "name": "createdAt",
          "type": "uint256"
        }
      ],
      "name": "CountryAdded",
      "type": "event"
    },
    {
      "anonymous": false,
      "inputs": [
        {
          "indexed": false,
          "internalType": "uint256",
          "name": "countryId",
          "type": "uint256"
        },
        {
          "indexed": false,
          "internalType": "string",
          "name": "countryName",
          "type": "string"
        },
        {
          "indexed": false,
          "internalType": "string",
          "name": "latLong",
          "type": "string"
        },
        {
          "indexed": false,
          "internalType": "uint256",
          "name": "updatedAt",
          "type": "uint256"
        }
      ],
      "name": "CountryUpdated",
      "type": "event"
    },
    {
      "anonymous": false,
      "inputs": [
        {
          "indexed": false,
          "internalType": "uint256",
          "name": "issuerId",
          "type": "uint256"
        },
        {
          "indexed": false,
          "internalType": "address",
          "name": "issuerAddress",
          "type": "address"
        },
        {
          "indexed": false,
          "internalType": "string",
          "name": "issuerName",
          "type": "string"
        },
        {
          "indexed": false,
          "internalType": "uint256",
          "name": "issuerCountryId",
          "type": "uint256"
        },
        {
          "indexed": false,
          "internalType": "uint256",
          "name": "createdAt",
          "type": "uint256"
        }
      ],
      "name": "IssuerAdded",
      "type": "event"
    },
    {
      "inputs": [
        {
          "internalType": "string",
          "name": "",
          "type": "string"
        }
      ],
      "name": "countryByName",
      "outputs": [
        {
          "internalType": "uint256",
          "name": "countryId",
          "type": "uint256"
        },
        {
          "internalType": "string",
          "name": "countryName",
          "type": "string"
        },
        {
          "internalType": "string",
          "name": "latLong",
          "type": "string"
        },
        {
          "internalType": "uint256",
          "name": "createdAt",
          "type": "uint256"
        },
        {
          "internalType": "uint256",
          "name": "updatedAt",
          "type": "uint256"
        }
      ],
      "stateMutability": "view",
      "type": "function",
      "constant": true
    },
    {
      "inputs": [
        {
          "internalType": "string",
          "name": "",
          "type": "string"
        }
      ],
      "name": "isCountry",
      "outputs": [
        {
          "internalType": "bool",
          "name": "",
          "type": "bool"
        }
      ],
      "stateMutability": "view",
      "type": "function",
      "constant": true
    },
    {
      "inputs": [
        {
          "internalType": "address",
          "name": "",
          "type": "address"
        }
      ],
      "name": "isIssuer",
      "outputs": [
        {
          "internalType": "bool",
          "name": "",
          "type": "bool"
        }
      ],
      "stateMutability": "view",
      "type": "function",
      "constant": true
    },
    {
      "inputs": [],
      "name": "isAdmin",
      "outputs": [
        {
          "internalType": "bool",
          "name": "",
          "type": "bool"
        }
      ],
      "stateMutability": "view",
      "type": "function",
      "constant": true
    },
    {
      "inputs": [
        {
          "internalType": "string",
          "name": "_countryName",
          "type": "string"
        },
        {
          "internalType": "string",
          "name": "_latLong",
          "type": "string"
        }
      ],
      "name": "addCountry",
      "outputs": [],
      "stateMutability": "nonpayable",
      "type": "function"
    },
    {
      "inputs": [
        {
          "internalType": "uint256",
          "name": "_countryId",
          "type": "uint256"
        },
        {
          "internalType": "string",
          "name": "_countryName",
          "type": "string"
        },
        {
          "internalType": "string",
          "name": "_latLong",
          "type": "string"
        }
      ],
      "name": "updateCountry",
      "outputs": [],
      "stateMutability": "nonpayable",
      "type": "function"
    },
    {
      "inputs": [
        {
          "internalType": "address",
          "name": "_issuerAddress",
          "type": "address"
        },
        {
          "internalType": "string",
          "name": "_issuerName",
          "type": "string"
        },
        {
          "internalType": "string",
          "name": "_issuerCountry",
          "type": "string"
        }
      ],
      "name": "registerIssuer",
      "outputs": [],
      "stateMutability": "nonpayable",
      "type": "function"
    },
    {
      "inputs": [
        {
          "internalType": "string",
          "name": "_countryName",
          "type": "string"
        }
      ],
      "name": "getIssuerByCountry",
      "outputs": [
        {
          "components": [
            {
              "internalType": "uint256",
              "name": "issuerId",
              "type": "uint256"
            },
            {
              "internalType": "address",
              "name": "issuerAddress",
              "type": "address"
            },
            {
              "internalType": "string",
              "name": "issuerName",
              "type": "string"
            },
            {
              "internalType": "uint256",
              "name": "issuerCountryId",
              "type": "uint256"
            },
            {
              "internalType": "uint256",
              "name": "createdAt",
              "type": "uint256"
            }
          ],
          "internalType": "struct DecentralizedPassport.Issuer[]",
          "name": "",
          "type": "tuple[]"
        }
      ],
      "stateMutability": "view",
      "type": "function",
      "constant": true
    },
    {
      "inputs": [
        {
          "internalType": "string",
          "name": "_userName",
          "type": "string"
        },
        {
          "internalType": "string",
          "name": "_userDob",
          "type": "string"
        },
        {
          "internalType": "string",
          "name": "_userCountry",
          "type": "string"
        }
      ],
      "name": "requestPassport",
      "outputs": [],
      "stateMutability": "nonpayable",
      "type": "function"
    },
    {
      "inputs": [],
      "name": "getPendingPassport",
      "outputs": [
        {
          "components": [
            {
              "internalType": "uint256",
              "name": "passportId",
              "type": "uint256"
            },
            {
              "internalType": "address",
              "name": "userAddress",
              "type": "address"
            },
            {
              "internalType": "string",
              "name": "userName",
              "type": "string"
            },
            {
              "internalType": "string",
              "name": "userDob",
              "type": "string"
            },
            {
              "internalType": "uint256",
              "name": "userCountryId",
              "type": "uint256"
            },
            {
              "internalType": "uint256",
              "name": "issuedBy",
              "type": "uint256"
            },
            {
              "internalType": "uint256",
              "name": "createdAt",
              "type": "uint256"
            }
          ],
          "internalType": "struct DecentralizedPassport.PassportData[]",
          "name": "",
          "type": "tuple[]"
        }
      ],
      "stateMutability": "view",
      "type": "function",
      "constant": true
    },
    {
      "inputs": [
        {
          "internalType": "uint256",
          "name": "_passportId",
          "type": "uint256"
        }
      ],
      "name": "approvePassport",
      "outputs": [],
      "stateMutability": "nonpayable",
      "type": "function"
    },
    {
      "inputs": [],
      "name": "getPassport",
      "outputs": [
        {
          "components": [
            {
              "internalType": "uint256",
              "name": "passportId",
              "type": "uint256"
            },
            {
              "internalType": "address",
              "name": "userAddress",
              "type": "address"
            },
            {
              "internalType": "string",
              "name": "userName",
              "type": "string"
            },
            {
              "internalType": "string",
              "name": "userDob",
              "type": "string"
            },
            {
              "internalType": "uint256",
              "name": "userCountryId",
              "type": "uint256"
            },
            {
              "internalType": "uint256",
              "name": "issuedBy",
              "type": "uint256"
            },
            {
              "internalType": "uint256",
              "name": "createdAt",
              "type": "uint256"
            }
          ],
          "internalType": "struct DecentralizedPassport.PassportData",
          "name": "",
          "type": "tuple"
        }
      ],
      "stateMutability": "view",
      "type": "function",
      "constant": true
    },
    {
      "inputs": [
        {
          "internalType": "address",
          "name": "_userAddress",
          "type": "address"
        }
      ],
      "name": "getPassportByAddress",
      "outputs": [
        {
          "components": [
            {
              "internalType": "uint256",
              "name": "passportId",
              "type": "uint256"
            },
            {
              "internalType": "address",
              "name": "userAddress",
              "type": "address"
            },
            {
              "internalType": "string",
              "name": "userName",
              "type": "string"
            },
            {
              "internalType": "string",
              "name": "userDob",
              "type": "string"
            },
            {
              "internalType": "uint256",
              "name": "userCountryId",
              "type": "uint256"
            },
            {
              "internalType": "uint256",
              "name": "issuedBy",
              "type": "uint256"
            },
            {
              "internalType": "uint256",
              "name": "createdAt",
              "type": "uint256"
            }
          ],
          "internalType": "struct DecentralizedPassport.PassportData",
          "name": "",
          "type": "tuple"
        }
      ],
      "stateMutability": "view",
      "type": "function",
      "constant": true
    },
    {
      "inputs": [
        {
          "internalType": "address",
          "name": "_userAddress",
          "type": "address"
        }
      ],
      "name": "verifyPassport",
      "outputs": [
        {
          "internalType": "bool",
          "name": "",
          "type": "bool"
        }
      ],
      "stateMutability": "view",
      "type": "function",
      "constant": true
    }
  ],
  "bytecode": "0x608060405260006001556000600255600060035534801561001f57600080fd5b50336000806101000a81548173ffffffffffffffffffffffffffffffffffffffff021916908373ffffffffffffffffffffffffffffffffffffffff160217905550613e108061006f6000396000f3fe608060405234801561001057600080fd5b50600436106100ea5760003560e01c8063877b9a671161008c578063b6db75a011610066578063b6db75a01461025b578063c80039fb14610279578063e69b664c146102a9578063f021bdd5146102c5576100ea565b8063877b9a67146101dd5780638eb20b0b1461020d578063aa033a1a1461022b576100ea565b806363e41021116100c857806363e410211461015757806366025dc8146101735780636b725a981461018f5780637d45e2d6146101ad576100ea565b806330721582146100ef578063406d92091461010b5780635884a0521461013b575b600080fd5b61010960048036038101906101049190612e2c565b6102f9565b005b61012560048036038101906101209190612ed3565b61066e565b6040516101329190613136565b60405180910390f35b61015560048036038101906101509190613184565b610872565b005b610171600480360381019061016c919061323b565b610a80565b005b61018d600480360381019061018891906132c6565b610f8d565b005b610197611232565b6040516101a491906134a3565b60405180910390f35b6101c760048036038101906101c291906134c5565b61159e565b6040516101d4919061350d565b60405180910390f35b6101f760048036038101906101f291906134c5565b61183d565b604051610204919061350d565b60405180910390f35b61021561185d565b60405161022291906135cb565b60405180910390f35b610245600480360381019061024091906134c5565b611ae2565b60405161025291906135cb565b60405180910390f35b610263611df5565b604051610270919061350d565b60405180910390f35b610293600480360381019061028e9190612ed3565b611e4c565b6040516102a0919061350d565b60405180910390f35b6102c360048036038101906102be91906135ed565b611e82565b005b6102df60048036038101906102da9190612ed3565b6129b3565b6040516102f0959493929190613673565b60405180910390f35b600b60003373ffffffffffffffffffffffffffffffffffffffff1673ffffffffffffffffffffffffffffffffffffffff16815260200190815260200160002060009054906101000a900460ff1615610386576040517f08c379a000000000000000000000000000000000000000000000000000000000815260040161037d90613720565b60405180910390fd5b600c60003373ffffffffffffffffffffffffffffffffffffffff1673ffffffffffffffffffffffffffffffffffffffff16815260200190815260200160002060009054906101000a900460ff1615610413576040517f08c379a000000000000000000000000000000000000000000000000000000000815260040161040a9061378c565b60405180910390fd5b60048160405161042391906137e8565b908152602001604051809103902060009054906101000a900460ff1661047e576040517f08c379a00000000000000000000000000000000000000000000000000000000081526004016104759061384b565b60405180910390fd5b600360008154809291906104919061389a565b919050555060006040518060e0016040528060035481526020013373ffffffffffffffffffffffffffffffffffffffff1681526020018581526020018481526020016006846040516104e391906137e8565b908152602001604051809103902060000154815260200160008152602001428152509050600d600060068460405161051b91906137e8565b90815260200160405180910390206000015481526020019081526020016000208190806001815401808255809150506001900390600052602060002090600702016000909190919091506000820151816000015560208201518160010160006101000a81548173ffffffffffffffffffffffffffffffffffffffff021916908373ffffffffffffffffffffffffffffffffffffffff16021790555060408201518160020190805190602001906105d2929190612b0f565b5060608201518160030190805190602001906105ef929190612b0f565b506080820151816004015560a0820151816005015560c0820151816006015550506001600c60003373ffffffffffffffffffffffffffffffffffffffff1673ffffffffffffffffffffffffffffffffffffffff16815260200190815260200160002060006101000a81548160ff02191690831515021790555050505050565b606060048260405161068091906137e8565b908152602001604051809103902060009054906101000a900460ff166106db576040517f08c379a00000000000000000000000000000000000000000000000000000000081526004016106d29061384b565b60405180910390fd5b600a60006006846040516106ef91906137e8565b9081526020016040518091039020600001548152602001908152602001600020805480602002602001604051908101604052809291908181526020016000905b8282101561086757838290600052602060002090600502016040518060a0016040529081600082015481526020016001820160009054906101000a900473ffffffffffffffffffffffffffffffffffffffff1673ffffffffffffffffffffffffffffffffffffffff1673ffffffffffffffffffffffffffffffffffffffff1681526020016002820180546107c290613911565b80601f01602080910402602001604051908101604052809291908181526020018280546107ee90613911565b801561083b5780601f106108105761010080835404028352916020019161083b565b820191906000526020600020905b81548152906001019060200180831161081e57829003601f168201915b50505050508152602001600382015481526020016004820154815250508152602001906001019061072f565b505050509050919050565b60008054906101000a900473ffffffffffffffffffffffffffffffffffffffff1673ffffffffffffffffffffffffffffffffffffffff163373ffffffffffffffffffffffffffffffffffffffff1614610900576040517f08c379a00000000000000000000000000000000000000000000000000000000081526004016108f79061398e565b60405180910390fd5b60048260405161091091906137e8565b908152602001604051809103902060009054906101000a900460ff1661096b576040517f08c379a00000000000000000000000000000000000000000000000000000000081526004016109629061384b565b60405180910390fd5b60006005600085815260200190815260200160002090508281600101908051906020019061099a929190612b0f565b50818160020190805190602001906109b3929190612b0f565b50428160040181905550806006846040516109ce91906137e8565b90815260200160405180910390206000820154816000015560018201816001019080546109fa90613911565b610a05929190612b95565b506002820181600201908054610a1a90613911565b610a25929190612b95565b5060038201548160030155600482015481600401559050507fdcd4acac1d3ad3ee43d1d6f76367777717477bbf3dfdb0f47d27e51178d1974384848442604051610a7294939291906139ae565b60405180910390a150505050565b60008054906101000a900473ffffffffffffffffffffffffffffffffffffffff1673ffffffffffffffffffffffffffffffffffffffff163373ffffffffffffffffffffffffffffffffffffffff1614610b0e576040517f08c379a0000000000000000000000000000000000000000000000000000000008152600401610b059061398e565b60405180910390fd5b600760008473ffffffffffffffffffffffffffffffffffffffff1673ffffffffffffffffffffffffffffffffffffffff16815260200190815260200160002060009054906101000a900460ff1615610b9b576040517f08c379a0000000000000000000000000000000000000000000000000000000008152600401610b9290613a4d565b60405180910390fd5b600481604051610bab91906137e8565b908152602001604051809103902060009054906101000a900460ff16610c06576040517f08c379a0000000000000000000000000000000000000000000000000000000008152600401610bfd9061384b565b60405180910390fd5b60026000815480929190610c199061389a565b919050555060006040518060a0016040528060025481526020018573ffffffffffffffffffffffffffffffffffffffff168152602001848152602001600684604051610c6591906137e8565b908152602001604051809103902060000154815260200142815250905080600884604051610c9391906137e8565b90815260200160405180910390206000820151816000015560208201518160010160006101000a81548173ffffffffffffffffffffffffffffffffffffffff021916908373ffffffffffffffffffffffffffffffffffffffff1602179055506040820151816002019080519060200190610d0e929190612b0f565b50606082015181600301556080820151816004015590505080600960008673ffffffffffffffffffffffffffffffffffffffff1673ffffffffffffffffffffffffffffffffffffffff1681526020019081526020016000206000820151816000015560208201518160010160006101000a81548173ffffffffffffffffffffffffffffffffffffffff021916908373ffffffffffffffffffffffffffffffffffffffff1602179055506040820151816002019080519060200190610dd3929190612b0f565b5060608201518160030155608082015181600401559050506001600760008673ffffffffffffffffffffffffffffffffffffffff1673ffffffffffffffffffffffffffffffffffffffff16815260200190815260200160002060006101000a81548160ff021916908315150217905550600a6000600684604051610e5791906137e8565b90815260200160405180910390206000015481526020019081526020016000208190806001815401808255809150506001900390600052602060002090600502016000909190919091506000820151816000015560208201518160010160006101000a81548173ffffffffffffffffffffffffffffffffffffffff021916908373ffffffffffffffffffffffffffffffffffffffff1602179055506040820151816002019080519060200190610f0e929190612b0f565b50606082015181600301556080820151816004015550507f5ebd941c28a27cc5db0027bf5bb808e09998115a0582c6175eeec728cb1bd66c6002548585600686604051610f5b91906137e8565b90815260200160405180910390206000015442604051610f7f959493929190613a7c565b60405180910390a150505050565b60008054906101000a900473ffffffffffffffffffffffffffffffffffffffff1673ffffffffffffffffffffffffffffffffffffffff163373ffffffffffffffffffffffffffffffffffffffff161461101b576040517f08c379a00000000000000000000000000000000000000000000000000000000081526004016110129061398e565b60405180910390fd5b60048260405161102b91906137e8565b908152602001604051809103902060009054906101000a900460ff1615611087576040517f08c379a000000000000000000000000000000000000000000000000000000000815260040161107e90613b22565b60405180910390fd5b6001600081548092919061109a9061389a565b919050555060006040518060a00160405280600154815260200184815260200183815260200142815260200142815250905080600560006001548152602001908152602001600020600082015181600001556020820151816001019080519060200190611108929190612b0f565b506040820151816002019080519060200190611125929190612b0f565b5060608201518160030155608082015181600401559050508060068460405161114e91906137e8565b9081526020016040518091039020600082015181600001556020820151816001019080519060200190611182929190612b0f565b50604082015181600201908051906020019061119f929190612b0f565b50606082015181600301556080820151816004015590505060016004846040516111c991906137e8565b908152602001604051809103902060006101000a81548160ff0219169083151502179055507f9cc00184c35d52b732fdd263771c662c54c428b823531516efd3a7cf56586b7b60015484844260405161122594939291906139ae565b60405180910390a1505050565b6060600760003373ffffffffffffffffffffffffffffffffffffffff1673ffffffffffffffffffffffffffffffffffffffff16815260200190815260200160002060009054906101000a900460ff166112c0576040517f08c379a00000000000000000000000000000000000000000000000000000000081526004016112b790613b8e565b60405180910390fd5b600760003373ffffffffffffffffffffffffffffffffffffffff1673ffffffffffffffffffffffffffffffffffffffff16815260200190815260200160002060009054906101000a900460ff1661134c576040517f08c379a000000000000000000000000000000000000000000000000000000000815260040161134390613b8e565b60405180910390fd5b600d6000600960003373ffffffffffffffffffffffffffffffffffffffff1673ffffffffffffffffffffffffffffffffffffffff168152602001908152602001600020600301548152602001908152602001600020805480602002602001604051908101604052809291908181526020016000905b8282101561159557838290600052602060002090600702016040518060e0016040529081600082015481526020016001820160009054906101000a900473ffffffffffffffffffffffffffffffffffffffff1673ffffffffffffffffffffffffffffffffffffffff1673ffffffffffffffffffffffffffffffffffffffff16815260200160028201805461145490613911565b80601f016020809104026020016040519081016040528092919081815260200182805461148090613911565b80156114cd5780601f106114a2576101008083540402835291602001916114cd565b820191906000526020600020905b8154815290600101906020018083116114b057829003601f168201915b505050505081526020016003820180546114e690613911565b80601f016020809104026020016040519081016040528092919081815260200182805461151290613911565b801561155f5780601f106115345761010080835404028352916020019161155f565b820191906000526020600020905b81548152906001019060200180831161154257829003601f168201915b505050505081526020016004820154815260200160058201548152602001600682015481525050815260200190600101906113c1565b50505050905090565b6000600b60008373ffffffffffffffffffffffffffffffffffffffff1673ffffffffffffffffffffffffffffffffffffffff16815260200190815260200160002060009054906101000a900460ff1661162c576040517f08c379a000000000000000000000000000000000000000000000000000000000815260040161162390613bfa565b60405180910390fd5b6000600f60008473ffffffffffffffffffffffffffffffffffffffff1673ffffffffffffffffffffffffffffffffffffffff1681526020019081526020016000206040518060e0016040529081600082015481526020016001820160009054906101000a900473ffffffffffffffffffffffffffffffffffffffff1673ffffffffffffffffffffffffffffffffffffffff1673ffffffffffffffffffffffffffffffffffffffff1681526020016002820180546116e890613911565b80601f016020809104026020016040519081016040528092919081815260200182805461171490613911565b80156117615780601f1061173657610100808354040283529160200191611761565b820191906000526020600020905b81548152906001019060200180831161174457829003601f168201915b5050505050815260200160038201805461177a90613911565b80601f01602080910402602001604051908101604052809291908181526020018280546117a690613911565b80156117f35780601f106117c8576101008083540402835291602001916117f3565b820191906000526020600020905b8154815290600101906020018083116117d657829003601f168201915b505050505081526020016004820154815260200160058201548152602001600682015481525050905060008160a0015103611832576000915050611838565b60019150505b919050565b60076020528060005260406000206000915054906101000a900460ff1681565b611865612c22565b600b60003373ffffffffffffffffffffffffffffffffffffffff1673ffffffffffffffffffffffffffffffffffffffff16815260200190815260200160002060009054906101000a900460ff166118f1576040517f08c379a00000000000000000000000000000000000000000000000000000000081526004016118e890613bfa565b60405180910390fd5b600f60003373ffffffffffffffffffffffffffffffffffffffff1673ffffffffffffffffffffffffffffffffffffffff1681526020019081526020016000206040518060e0016040529081600082015481526020016001820160009054906101000a900473ffffffffffffffffffffffffffffffffffffffff1673ffffffffffffffffffffffffffffffffffffffff1673ffffffffffffffffffffffffffffffffffffffff1681526020016002820180546119ab90613911565b80601f01602080910402602001604051908101604052809291908181526020018280546119d790613911565b8015611a245780601f106119f957610100808354040283529160200191611a24565b820191906000526020600020905b815481529060010190602001808311611a0757829003601f168201915b50505050508152602001600382018054611a3d90613911565b80601f0160208091040260200160405190810160405280929190818152602001828054611a6990613911565b8015611ab65780601f10611a8b57610100808354040283529160200191611ab6565b820191906000526020600020905b815481529060010190602001808311611a9957829003601f168201915b505050505081526020016004820154815260200160058201548152602001600682015481525050905090565b611aea612c22565b600760003373ffffffffffffffffffffffffffffffffffffffff1673ffffffffffffffffffffffffffffffffffffffff16815260200190815260200160002060009054906101000a900460ff16611b76576040517f08c379a0000000000000000000000000000000000000000000000000000000008152600401611b6d90613b8e565b60405180910390fd5b600b60008373ffffffffffffffffffffffffffffffffffffffff1673ffffffffffffffffffffffffffffffffffffffff16815260200190815260200160002060009054906101000a900460ff16611c02576040517f08c379a0000000000000000000000000000000000000000000000000000000008152600401611bf990613bfa565b60405180910390fd5b600f60008373ffffffffffffffffffffffffffffffffffffffff1673ffffffffffffffffffffffffffffffffffffffff1681526020019081526020016000206040518060e0016040529081600082015481526020016001820160009054906101000a900473ffffffffffffffffffffffffffffffffffffffff1673ffffffffffffffffffffffffffffffffffffffff1673ffffffffffffffffffffffffffffffffffffffff168152602001600282018054611cbc90613911565b80601f0160208091040260200160405190810160405280929190818152602001828054611ce890613911565b8015611d355780601f10611d0a57610100808354040283529160200191611d35565b820191906000526020600020905b815481529060010190602001808311611d1857829003601f168201915b50505050508152602001600382018054611d4e90613911565b80601f0160208091040260200160405190810160405280929190818152602001828054611d7a90613911565b8015611dc75780601f10611d9c57610100808354040283529160200191611dc7565b820191906000526020600020905b815481529060010190602001808311611daa57829003601f168201915b5050505050815260200160048201548152602001600582015481526020016006820154815250509050919050565b60008060009054906101000a900473ffffffffffffffffffffffffffffffffffffffff1673ffffffffffffffffffffffffffffffffffffffff163373ffffffffffffffffffffffffffffffffffffffff1614905090565b6004818051602081018201805184825260208301602085012081835280955050505050506000915054906101000a900460ff1681565b600760003373ffffffffffffffffffffffffffffffffffffffff1673ffffffffffffffffffffffffffffffffffffffff16815260200190815260200160002060009054906101000a900460ff16611f0e576040517f08c379a0000000000000000000000000000000000000000000000000000000008152600401611f0590613b8e565b60405180910390fd5b600760003373ffffffffffffffffffffffffffffffffffffffff1673ffffffffffffffffffffffffffffffffffffffff16815260200190815260200160002060009054906101000a900460ff16611f9a576040517f08c379a0000000000000000000000000000000000000000000000000000000008152600401611f9190613b8e565b60405180910390fd5b6000600d6000600960003373ffffffffffffffffffffffffffffffffffffffff1673ffffffffffffffffffffffffffffffffffffffff1681526020019081526020016000206003015481526020019081526020016000208054905011612035576040517f08c379a000000000000000000000000000000000000000000000000000000000815260040161202c90613c66565b60405180910390fd5b6000805b600d6000600960003373ffffffffffffffffffffffffffffffffffffffff1673ffffffffffffffffffffffffffffffffffffffff1681526020019081526020016000206003015481526020019081526020016000208054905081101561296e5782600d6000600960003373ffffffffffffffffffffffffffffffffffffffff1673ffffffffffffffffffffffffffffffffffffffff168152602001908152602001600020600301548152602001908152602001600020828154811061210157612100613c86565b5b9060005260206000209060070201600001540361295b57600191506000600d6000600960003373ffffffffffffffffffffffffffffffffffffffff1673ffffffffffffffffffffffffffffffffffffffff168152602001908152602001600020600301548152602001908152602001600020828154811061218557612184613c86565b5b90600052602060002090600702016040518060e0016040529081600082015481526020016001820160009054906101000a900473ffffffffffffffffffffffffffffffffffffffff1673ffffffffffffffffffffffffffffffffffffffff1673ffffffffffffffffffffffffffffffffffffffff16815260200160028201805461220e90613911565b80601f016020809104026020016040519081016040528092919081815260200182805461223a90613911565b80156122875780601f1061225c57610100808354040283529160200191612287565b820191906000526020600020905b81548152906001019060200180831161226a57829003601f168201915b505050505081526020016003820180546122a090613911565b80601f01602080910402602001604051908101604052809291908181526020018280546122cc90613911565b80156123195780601f106122ee57610100808354040283529160200191612319565b820191906000526020600020905b8154815290600101906020018083116122fc57829003601f168201915b5050505050815260200160048201548152602001600582015481526020016006820154815250509050600960003373ffffffffffffffffffffffffffffffffffffffff1673ffffffffffffffffffffffffffffffffffffffff168152602001908152602001600020600001548160a0018181525050600e6000826080015181526020019081526020016000208190806001815401808255809150506001900390600052602060002090600702016000909190919091506000820151816000015560208201518160010160006101000a81548173ffffffffffffffffffffffffffffffffffffffff021916908373ffffffffffffffffffffffffffffffffffffffff160217905550604082015181600201908051906020019061243c929190612b0f565b506060820151816003019080519060200190612459929190612b0f565b506080820151816004015560a0820151816005015560c0820151816006015550506001600b6000836020015173ffffffffffffffffffffffffffffffffffffffff1673ffffffffffffffffffffffffffffffffffffffff16815260200190815260200160002060006101000a81548160ff0219169083151502179055506000600c6000836020015173ffffffffffffffffffffffffffffffffffffffff1673ffffffffffffffffffffffffffffffffffffffff16815260200190815260200160002060006101000a81548160ff02191690831515021790555080600f6000836020015173ffffffffffffffffffffffffffffffffffffffff1673ffffffffffffffffffffffffffffffffffffffff1681526020019081526020016000206000820151816000015560208201518160010160006101000a81548173ffffffffffffffffffffffffffffffffffffffff021916908373ffffffffffffffffffffffffffffffffffffffff16021790555060408201518160020190805190602001906125e3929190612b0f565b506060820151816003019080519060200190612600929190612b0f565b506080820151816004015560a0820151816005015560c0820151816006015590505060008290505b6001600d6000600960003373ffffffffffffffffffffffffffffffffffffffff1673ffffffffffffffffffffffffffffffffffffffff1681526020019081526020016000206003015481526020019081526020016000208054905061268d9190613cb5565b81101561286f57600d6000600960003373ffffffffffffffffffffffffffffffffffffffff1673ffffffffffffffffffffffffffffffffffffffff1681526020019081526020016000206003015481526020019081526020016000206001826126f69190613ce9565b8154811061270757612706613c86565b5b9060005260206000209060070201600d6000600960003373ffffffffffffffffffffffffffffffffffffffff1673ffffffffffffffffffffffffffffffffffffffff168152602001908152602001600020600301548152602001908152602001600020828154811061277c5761277b613c86565b5b9060005260206000209060070201600082015481600001556001820160009054906101000a900473ffffffffffffffffffffffffffffffffffffffff168160010160006101000a81548173ffffffffffffffffffffffffffffffffffffffff021916908373ffffffffffffffffffffffffffffffffffffffff160217905550600282018160020190805461280f90613911565b61281a929190612b95565b50600382018160030190805461282f90613911565b61283a929190612b95565b5060048201548160040155600582015481600501556006820154816006015590505080806128679061389a565b915050612628565b50600d6000600960003373ffffffffffffffffffffffffffffffffffffffff1673ffffffffffffffffffffffffffffffffffffffff1681526020019081526020016000206003015481526020019081526020016000208054806128d5576128d4613d3f565b5b60019003818190600052602060002090600702016000808201600090556001820160006101000a81549073ffffffffffffffffffffffffffffffffffffffff02191690556002820160006129299190612c75565b6003820160006129399190612c75565b600482016000905560058201600090556006820160009055505090555061296e565b80806129669061389a565b915050612039565b50806129af576040517f08c379a00000000000000000000000000000000000000000000000000000000081526004016129a690613dba565b60405180910390fd5b5050565b6006818051602081018201805184825260208301602085012081835280955050505050506000915090508060000154908060010180546129f290613911565b80601f0160208091040260200160405190810160405280929190818152602001828054612a1e90613911565b8015612a6b5780601f10612a4057610100808354040283529160200191612a6b565b820191906000526020600020905b815481529060010190602001808311612a4e57829003601f168201915b505050505090806002018054612a8090613911565b80601f0160208091040260200160405190810160405280929190818152602001828054612aac90613911565b8015612af95780601f10612ace57610100808354040283529160200191612af9565b820191906000526020600020905b815481529060010190602001808311612adc57829003601f168201915b5050505050908060030154908060040154905085565b828054612b1b90613911565b90600052602060002090601f016020900481019282612b3d5760008555612b84565b82601f10612b5657805160ff1916838001178555612b84565b82800160010185558215612b84579182015b82811115612b83578251825591602001919060010190612b68565b5b509050612b919190612cb5565b5090565b828054612ba190613911565b90600052602060002090601f016020900481019282612bc35760008555612c11565b82601f10612bd45780548555612c11565b82800160010185558215612c1157600052602060002091601f016020900482015b82811115612c10578254825591600101919060010190612bf5565b5b509050612c1e9190612cb5565b5090565b6040518060e0016040528060008152602001600073ffffffffffffffffffffffffffffffffffffffff16815260200160608152602001606081526020016000815260200160008152602001600081525090565b508054612c8190613911565b6000825580601f10612c935750612cb2565b601f016020900490600052602060002090810190612cb19190612cb5565b5b50565b5b80821115612cce576000816000905550600101612cb6565b5090565b6000604051905090565b600080fd5b600080fd5b600080fd5b600080fd5b6000601f19601f8301169050919050565b7f4e487b7100000000000000000000000000000000000000000000000000000000600052604160045260246000fd5b612d3982612cf0565b810181811067ffffffffffffffff82111715612d5857612d57612d01565b5b80604052505050565b6000612d6b612cd2565b9050612d778282612d30565b919050565b600067ffffffffffffffff821115612d9757612d96612d01565b5b612da082612cf0565b9050602081019050919050565b82818337600083830152505050565b6000612dcf612dca84612d7c565b612d61565b905082815260208101848484011115612deb57612dea612ceb565b5b612df6848285612dad565b509392505050565b600082601f830112612e1357612e12612ce6565b5b8135612e23848260208601612dbc565b91505092915050565b600080600060608486031215612e4557612e44612cdc565b5b600084013567ffffffffffffffff811115612e6357612e62612ce1565b5b612e6f86828701612dfe565b935050602084013567ffffffffffffffff811115612e9057612e8f612ce1565b5b612e9c86828701612dfe565b925050604084013567ffffffffffffffff811115612ebd57612ebc612ce1565b5b612ec986828701612dfe565b9150509250925092565b600060208284031215612ee957612ee8612cdc565b5b600082013567ffffffffffffffff811115612f0757612f06612ce1565b5b612f1384828501612dfe565b91505092915050565b600081519050919050565b600082825260208201905092915050565b6000819050602082019050919050565b6000819050919050565b612f5b81612f48565b82525050565b600073ffffffffffffffffffffffffffffffffffffffff82169050919050565b6000612f8c82612f61565b9050919050565b612f9c81612f81565b82525050565b600081519050919050565b600082825260208201905092915050565b60005b83811015612fdc578082015181840152602081019050612fc1565b83811115612feb576000848401525b50505050565b6000612ffc82612fa2565b6130068185612fad565b9350613016818560208601612fbe565b61301f81612cf0565b840191505092915050565b600060a0830160008301516130426000860182612f52565b5060208301516130556020860182612f93565b506040830151848203604086015261306d8282612ff1565b91505060608301516130826060860182612f52565b5060808301516130956080860182612f52565b508091505092915050565b60006130ac838361302a565b905092915050565b6000602082019050919050565b60006130cc82612f1c565b6130d68185612f27565b9350836020820285016130e885612f38565b8060005b85811015613124578484038952815161310585826130a0565b9450613110836130b4565b925060208a019950506001810190506130ec565b50829750879550505050505092915050565b6000602082019050818103600083015261315081846130c1565b905092915050565b61316181612f48565b811461316c57600080fd5b50565b60008135905061317e81613158565b92915050565b60008060006060848603121561319d5761319c612cdc565b5b60006131ab8682870161316f565b935050602084013567ffffffffffffffff8111156131cc576131cb612ce1565b5b6131d886828701612dfe565b925050604084013567ffffffffffffffff8111156131f9576131f8612ce1565b5b61320586828701612dfe565b9150509250925092565b61321881612f81565b811461322357600080fd5b50565b6000813590506132358161320f565b92915050565b60008060006060848603121561325457613253612cdc565b5b600061326286828701613226565b935050602084013567ffffffffffffffff81111561328357613282612ce1565b5b61328f86828701612dfe565b925050604084013567ffffffffffffffff8111156132b0576132af612ce1565b5b6132bc86828701612dfe565b9150509250925092565b600080604083850312156132dd576132dc612cdc565b5b600083013567ffffffffffffffff8111156132fb576132fa612ce1565b5b61330785828601612dfe565b925050602083013567ffffffffffffffff81111561332857613327612ce1565b5b61333485828601612dfe565b9150509250929050565b600081519050919050565b600082825260208201905092915050565b6000819050602082019050919050565b600060e0830160008301516133826000860182612f52565b5060208301516133956020860182612f93565b50604083015184820360408601526133ad8282612ff1565b915050606083015184820360608601526133c78282612ff1565b91505060808301516133dc6080860182612f52565b5060a08301516133ef60a0860182612f52565b5060c083015161340260c0860182612f52565b508091505092915050565b6000613419838361336a565b905092915050565b6000602082019050919050565b60006134398261333e565b6134438185613349565b9350836020820285016134558561335a565b8060005b858110156134915784840389528151613472858261340d565b945061347d83613421565b925060208a01995050600181019050613459565b50829750879550505050505092915050565b600060208201905081810360008301526134bd818461342e565b905092915050565b6000602082840312156134db576134da612cdc565b5b60006134e984828501613226565b91505092915050565b60008115159050919050565b613507816134f2565b82525050565b600060208201905061352260008301846134fe565b92915050565b600060e0830160008301516135406000860182612f52565b5060208301516135536020860182612f93565b506040830151848203604086015261356b8282612ff1565b915050606083015184820360608601526135858282612ff1565b915050608083015161359a6080860182612f52565b5060a08301516135ad60a0860182612f52565b5060c08301516135c060c0860182612f52565b508091505092915050565b600060208201905081810360008301526135e58184613528565b905092915050565b60006020828403121561360357613602612cdc565b5b60006136118482850161316f565b91505092915050565b61362381612f48565b82525050565b600082825260208201905092915050565b600061364582612fa2565b61364f8185613629565b935061365f818560208601612fbe565b61366881612cf0565b840191505092915050565b600060a082019050613688600083018861361a565b818103602083015261369a818761363a565b905081810360408301526136ae818661363a565b90506136bd606083018561361a565b6136ca608083018461361a565b9695505050505050565b7f50617373706f727420616c726561647920657869737473000000000000000000600082015250565b600061370a601783613629565b9150613715826136d4565b602082019050919050565b60006020820190508181036000830152613739816136fd565b9050919050565b7f50617373706f727420616c726561647920726571756573746564000000000000600082015250565b6000613776601a83613629565b915061378182613740565b602082019050919050565b600060208201905081810360008301526137a581613769565b9050919050565b600081905092915050565b60006137c282612fa2565b6137cc81856137ac565b93506137dc818560208601612fbe565b80840191505092915050565b60006137f482846137b7565b915081905092915050565b7f436f756e74727920646f6573206e6f7420657869737473000000000000000000600082015250565b6000613835601783613629565b9150613840826137ff565b602082019050919050565b6000602082019050818103600083015261386481613828565b9050919050565b7f4e487b7100000000000000000000000000000000000000000000000000000000600052601160045260246000fd5b60006138a582612f48565b91507fffffffffffffffffffffffffffffffffffffffffffffffffffffffffffffffff82036138d7576138d661386b565b5b600182019050919050565b7f4e487b7100000000000000000000000000000000000000000000000000000000600052602260045260246000fd5b6000600282049050600182168061392957607f821691505b60208210810361393c5761393b6138e2565b5b50919050565b7f4f6e6c792041646d696e00000000000000000000000000000000000000000000600082015250565b6000613978600a83613629565b915061398382613942565b602082019050919050565b600060208201905081810360008301526139a78161396b565b9050919050565b60006080820190506139c3600083018761361a565b81810360208301526139d5818661363a565b905081810360408301526139e9818561363a565b90506139f8606083018461361a565b95945050505050565b7f49737375657220616c7265616479206578697374730000000000000000000000600082015250565b6000613a37601583613629565b9150613a4282613a01565b602082019050919050565b60006020820190508181036000830152613a6681613a2a565b9050919050565b613a7681612f81565b82525050565b600060a082019050613a91600083018861361a565b613a9e6020830187613a6d565b8181036040830152613ab0818661363a565b9050613abf606083018561361a565b613acc608083018461361a565b9695505050505050565b7f436f756e74727920616c72656164792065786973747300000000000000000000600082015250565b6000613b0c601683613629565b9150613b1782613ad6565b602082019050919050565b60006020820190508181036000830152613b3b81613aff565b9050919050565b7f4f6e6c7920497373756572000000000000000000000000000000000000000000600082015250565b6000613b78600b83613629565b9150613b8382613b42565b602082019050919050565b60006020820190508181036000830152613ba781613b6b565b9050919050565b7f50617373706f727420646f6573206e6f74206578697374730000000000000000600082015250565b6000613be4601883613629565b9150613bef82613bae565b602082019050919050565b60006020820190508181036000830152613c1381613bd7565b9050919050565b7f4e6f2070656e64696e672070617373706f727400000000000000000000000000600082015250565b6000613c50601383613629565b9150613c5b82613c1a565b602082019050919050565b60006020820190508181036000830152613c7f81613c43565b9050919050565b7f4e487b7100000000000000000000000000000000000000000000000000000000600052603260045260246000fd5b6000613cc082612f48565b9150613ccb83612f48565b925082821015613cde57613cdd61386b565b5b828203905092915050565b6000613cf482612f48565b9150613cff83612f48565b9250827fffffffffffffffffffffffffffffffffffffffffffffffffffffffffffffffff03821115613d3457613d3361386b565b5b828201905092915050565b7f4e487b7100000000000000000000000000000000000000000000000000000000600052603160045260246000fd5b7f50617373706f7274206e6f7420666f756e640000000000000000000000000000600082015250565b6000613da4601283613629565b9150613daf82613d6e565b602082019050919050565b60006020820190508181036000830152613dd381613d97565b905091905056fea26469706673582212206c4cdc53159e3f45a92c3a98bbcb42f35f0d109b300194d533956e47f27f53ea64736f6c634300080d0033",
  "immutableReferences": {},
  "source": "// SPDX-License-Identifier: MIT\npragma solidity ^0.8.0;\n\ncontract DecentralizedPassport {\n    address private admin;\n    uint256 auto_increment_country_id = 0;\n    uint256 auto_increment_issuer_id = 0;\n    uint256 auto_increment_passport_id = 0;\n\n    constructor() {\n        admin = msg.sender;\n    }\n\n    struct Country {\n        uint256 countryId;\n        string countryName;\n        string latLong;\n        uint256 createdAt;\n        uint256 updatedAt;\n    }\n\n    struct Issuer {\n        uint256 issuerId;\n        address issuerAddress;\n        string issuerName;\n        uint256 issuerCountryId;\n        uint256 createdAt;\n    }\n\n    struct PassportData {\n        uint256 passportId;\n        address userAddress;\n        string userName;\n        string userDob;\n        uint256 userCountryId;\n        uint256 issuedBy;\n        uint256 createdAt;\n    }\n\n    mapping(string => bool) public isCountry;\n    mapping(uint256 => Country) private countryById;\n    mapping(string => Country) public countryByName;\n\n    mapping(address => bool) public isIssuer;\n    mapping(string => Issuer) private issuerByName;\n    mapping(address => Issuer) private issuerByAddress;\n    mapping(uint256 => Issuer[]) private issuerData;\n\n    mapping(address => bool) hasPassport;\n    mapping(address => bool) hasPendingPassport;\n    mapping(uint256 => PassportData[]) private pendingPassportData;\n    mapping(uint256 => PassportData[]) private passportData;\n    mapping(address => PassportData) private myPassport;\n\n    modifier onlyAdmin() {\n        require(msg.sender == admin, \"Only Admin\");\n        _;\n    }\n\n    modifier onlyIssuer() {\n        require(isIssuer[msg.sender], \"Only Issuer\");\n        _;\n    }\n\n    function isAdmin() public view returns (bool) {\n        return msg.sender == admin;\n    }\n\n    // Country API\n    event CountryAdded(\n        uint256 countryId,\n        string countryName,\n        string latLong,\n        uint256 createdAt\n    );\n    function addCountry(\n        string memory _countryName,\n        string memory _latLong\n    ) public onlyAdmin {\n        require(!isCountry[_countryName], \"Country already exists\");\n        auto_increment_country_id++;\n        Country memory country = Country(\n            auto_increment_country_id,\n            _countryName,\n            _latLong,\n            block.timestamp,\n            block.timestamp\n        );\n        countryById[auto_increment_country_id] = country;\n        countryByName[_countryName] = country;\n        isCountry[_countryName] = true;\n\n        emit CountryAdded(\n            auto_increment_country_id,\n            _countryName,\n            _latLong,\n            block.timestamp\n        );\n    }\n\n    event CountryUpdated(\n        uint256 countryId,\n        string countryName,\n        string latLong,\n        uint256 updatedAt\n    );\n    function updateCountry(\n        uint256 _countryId,\n        string memory _countryName,\n        string memory _latLong\n    ) public onlyAdmin {\n        require(isCountry[_countryName], \"Country does not exists\");\n        Country storage country = countryById[_countryId];\n        country.countryName = _countryName;\n        country.latLong = _latLong;\n        country.updatedAt = block.timestamp;\n        countryByName[_countryName] = country;\n\n        emit CountryUpdated(\n            _countryId,\n            _countryName,\n            _latLong,\n            block.timestamp\n        );\n    }\n\n    // Issuer API\n    event IssuerAdded(\n        uint256 issuerId,\n        address issuerAddress,\n        string issuerName,\n        uint256 issuerCountryId,\n        uint256 createdAt\n    );\n    function registerIssuer(\n        address _issuerAddress,\n        string memory _issuerName,\n        string memory _issuerCountry\n    ) public onlyAdmin {\n        require(!isIssuer[_issuerAddress], \"Issuer already exists\");\n        require(isCountry[_issuerCountry], \"Country does not exists\");\n        auto_increment_issuer_id++;\n        Issuer memory issuer = Issuer(\n            auto_increment_issuer_id,\n            _issuerAddress,\n            _issuerName,\n            countryByName[_issuerCountry].countryId,\n            block.timestamp\n        );\n        issuerByName[_issuerName] = issuer;\n        issuerByAddress[_issuerAddress] = issuer;\n        isIssuer[_issuerAddress] = true;\n        issuerData[countryByName[_issuerCountry].countryId].push(issuer);\n\n        emit IssuerAdded(\n            auto_increment_issuer_id,\n            _issuerAddress,\n            _issuerName,\n            countryByName[_issuerCountry].countryId,\n            block.timestamp\n        );\n    }\n\n    function getIssuerByCountry(\n        string memory _countryName\n    ) public view returns (Issuer[] memory) {\n        require(isCountry[_countryName], \"Country does not exists\");\n        return issuerData[countryByName[_countryName].countryId];\n    }\n\n    // Passport API\n    // requestPassport, no issuer\n    function requestPassport(\n        string memory _userName,\n        string memory _userDob,\n        string memory _userCountry\n    ) public {\n        require(!hasPassport[msg.sender], \"Passport already exists\");\n        require(!hasPendingPassport[msg.sender], \"Passport already requested\");\n        require(isCountry[_userCountry], \"Country does not exists\");\n        auto_increment_passport_id++;\n        PassportData memory passport = PassportData(\n            auto_increment_passport_id,\n            msg.sender,\n            _userName,\n            _userDob,\n            countryByName[_userCountry].countryId,\n            0,\n            block.timestamp\n        );\n        pendingPassportData[countryByName[_userCountry].countryId].push(\n            passport\n        );\n        hasPendingPassport[msg.sender] = true;\n    }\n\n    // getPendingPassport, issuer, no params. use msg.sender\n    function getPendingPassport()\n        public\n        view\n        onlyIssuer\n        returns (PassportData[] memory)\n    {\n        require(isIssuer[msg.sender], \"Only Issuer\");\n        return pendingPassportData[issuerByAddress[msg.sender].issuerCountryId];\n    }\n\n    // approvePassport, issuer, passportId\n    function approvePassport(uint256 _passportId) public onlyIssuer {\n        require(isIssuer[msg.sender], \"Only Issuer\");\n        require(\n            pendingPassportData[issuerByAddress[msg.sender].issuerCountryId]\n                .length > 0,\n            \"No pending passport\"\n        );\n        bool found = false;\n        for (\n            uint256 i = 0;\n            i <\n            pendingPassportData[issuerByAddress[msg.sender].issuerCountryId]\n                .length;\n            i++\n        ) {\n            if (\n                pendingPassportData[\n                    issuerByAddress[msg.sender].issuerCountryId\n                ][i].passportId == _passportId\n            ) {\n                found = true;\n                PassportData memory passport = pendingPassportData[\n                    issuerByAddress[msg.sender].issuerCountryId\n                ][i];\n                passport.issuedBy = issuerByAddress[msg.sender].issuerId;\n                passportData[passport.userCountryId].push(passport);\n                hasPassport[passport.userAddress] = true;\n                hasPendingPassport[passport.userAddress] = false;\n                myPassport[passport.userAddress] = passport;\n\n                // remove from pending\n                for (\n                    uint256 j = i;\n                    j <\n                    pendingPassportData[\n                        issuerByAddress[msg.sender].issuerCountryId\n                    ].length -\n                        1;\n                    j++\n                ) {\n                    pendingPassportData[\n                        issuerByAddress[msg.sender].issuerCountryId\n                    ][j] = pendingPassportData[\n                        issuerByAddress[msg.sender].issuerCountryId\n                    ][j + 1];\n                }\n                pendingPassportData[issuerByAddress[msg.sender].issuerCountryId]\n                    .pop();\n\n                break;\n            }\n        }\n        require(found, \"Passport not found\");\n    }\n\n    // getPassport, user\n    function getPassport() public view returns (PassportData memory) {\n        require(hasPassport[msg.sender], \"Passport does not exists\");\n        return myPassport[msg.sender];\n    }\n\n    // getPassportByAddress, user\n    function getPassportByAddress(\n        address _userAddress\n    ) public view onlyIssuer returns (PassportData memory) {\n        require(hasPassport[_userAddress], \"Passport does not exists\");\n        return myPassport[_userAddress];\n    }\n\n    // public to verify user passport\n    function verifyPassport(address _userAddress) public view returns (bool) {\n        require(hasPassport[_userAddress], \"Passport does not exists\");\n\n        PassportData memory passport = myPassport[_userAddress];\n\n        if (passport.issuedBy == 0) {\n            return false;\n        }\n\n        return true;\n    }\n}\n",
  "sourcePath": "/Users/ashrock_m13/Ashrockzzz/2024/blockchain/pcontract/contracts/Passport.sol",
  "compiler": {
    "name": "solc",
    "version": "0.8.13+commit.abaa5c0e.Emscripten.clang"
  },
  "schemaVersion": "3.4.16",
  "updatedAt": "2024-05-04T15:42:09.512Z",
  "networkType": "ethereum",
  "devdoc": {
    "kind": "dev",
    "methods": {},
    "version": 1
  },
  "userdoc": {
    "kind": "user",
    "methods": {},
    "version": 1
  }
}