{
  "contractName": "DecentralizedPassport",
  "abi": [
    {
      "inputs": [],
      "stateMutability": "nonpayable",
      "type": "constructor"
    },
    {
      "anonymous": false,
      "inputs": [
        {
          "indexed": false,
          "internalType": "uint256",
          "name": "countryId",
          "type": "uint256"
        },
        {
          "indexed": false,
          "internalType": "string",
          "name": "countryName",
          "type": "string"
        },
        {
          "indexed": false,
          "internalType": "string",
          "name": "latLong",
          "type": "string"
        },
        {
          "indexed": false,
          "internalType": "uint256",
          "name": "createdAt",
          "type": "uint256"
        }
      ],
      "name": "CountryAdded",
      "type": "event"
    },
    {
      "anonymous": false,
      "inputs": [
        {
          "indexed": false,
          "internalType": "uint256",
          "name": "countryId",
          "type": "uint256"
        },
        {
          "indexed": false,
          "internalType": "string",
          "name": "countryName",
          "type": "string"
        },
        {
          "indexed": false,
          "internalType": "string",
          "name": "latLong",
          "type": "string"
        },
        {
          "indexed": false,
          "internalType": "uint256",
          "name": "updatedAt",
          "type": "uint256"
        }
      ],
      "name": "CountryUpdated",
      "type": "event"
    },
    {
      "anonymous": false,
      "inputs": [
        {
          "indexed": false,
          "internalType": "uint256",
          "name": "issuerId",
          "type": "uint256"
        },
        {
          "indexed": false,
          "internalType": "address",
          "name": "issuerAddress",
          "type": "address"
        },
        {
          "indexed": false,
          "internalType": "string",
          "name": "issuerName",
          "type": "string"
        },
        {
          "indexed": false,
          "internalType": "uint256",
          "name": "issuerCountryId",
          "type": "uint256"
        },
        {
          "indexed": false,
          "internalType": "uint256",
          "name": "createdAt",
          "type": "uint256"
        }
      ],
      "name": "IssuerAdded",
      "type": "event"
    },
    {
      "inputs": [
        {
          "internalType": "string",
          "name": "",
          "type": "string"
        }
      ],
      "name": "countryByName",
      "outputs": [
        {
          "internalType": "uint256",
          "name": "countryId",
          "type": "uint256"
        },
        {
          "internalType": "string",
          "name": "countryName",
          "type": "string"
        },
        {
          "internalType": "string",
          "name": "latLong",
          "type": "string"
        },
        {
          "internalType": "uint256",
          "name": "createdAt",
          "type": "uint256"
        },
        {
          "internalType": "uint256",
          "name": "updatedAt",
          "type": "uint256"
        }
      ],
      "stateMutability": "view",
      "type": "function",
      "constant": true
    },
    {
      "inputs": [
        {
          "internalType": "uint256",
          "name": "",
          "type": "uint256"
        }
      ],
      "name": "countryData",
      "outputs": [
        {
          "internalType": "uint256",
          "name": "countryId",
          "type": "uint256"
        },
        {
          "internalType": "string",
          "name": "countryName",
          "type": "string"
        },
        {
          "internalType": "string",
          "name": "latLong",
          "type": "string"
        },
        {
          "internalType": "uint256",
          "name": "createdAt",
          "type": "uint256"
        },
        {
          "internalType": "uint256",
          "name": "updatedAt",
          "type": "uint256"
        }
      ],
      "stateMutability": "view",
      "type": "function",
      "constant": true
    },
    {
      "inputs": [
        {
          "internalType": "string",
          "name": "",
          "type": "string"
        }
      ],
      "name": "isCountry",
      "outputs": [
        {
          "internalType": "bool",
          "name": "",
          "type": "bool"
        }
      ],
      "stateMutability": "view",
      "type": "function",
      "constant": true
    },
    {
      "inputs": [
        {
          "internalType": "address",
          "name": "",
          "type": "address"
        }
      ],
      "name": "isIssuer",
      "outputs": [
        {
          "internalType": "bool",
          "name": "",
          "type": "bool"
        }
      ],
      "stateMutability": "view",
      "type": "function",
      "constant": true
    },
    {
      "inputs": [],
      "name": "isAdmin",
      "outputs": [
        {
          "internalType": "bool",
          "name": "",
          "type": "bool"
        }
      ],
      "stateMutability": "view",
      "type": "function",
      "constant": true
    },
    {
      "inputs": [
        {
          "internalType": "string",
          "name": "_countryName",
          "type": "string"
        },
        {
          "internalType": "string",
          "name": "_latLong",
          "type": "string"
        }
      ],
      "name": "addCountry",
      "outputs": [],
      "stateMutability": "nonpayable",
      "type": "function"
    },
    {
      "inputs": [
        {
          "internalType": "uint256",
          "name": "_countryId",
          "type": "uint256"
        },
        {
          "internalType": "string",
          "name": "_countryName",
          "type": "string"
        },
        {
          "internalType": "string",
          "name": "_latLong",
          "type": "string"
        }
      ],
      "name": "updateCountry",
      "outputs": [],
      "stateMutability": "nonpayable",
      "type": "function"
    },
    {
      "inputs": [],
      "name": "getCountries",
      "outputs": [
        {
          "components": [
            {
              "internalType": "uint256",
              "name": "countryId",
              "type": "uint256"
            },
            {
              "internalType": "string",
              "name": "countryName",
              "type": "string"
            },
            {
              "internalType": "string",
              "name": "latLong",
              "type": "string"
            },
            {
              "internalType": "uint256",
              "name": "createdAt",
              "type": "uint256"
            },
            {
              "internalType": "uint256",
              "name": "updatedAt",
              "type": "uint256"
            }
          ],
          "internalType": "struct DecentralizedPassport.Country[]",
          "name": "",
          "type": "tuple[]"
        }
      ],
      "stateMutability": "view",
      "type": "function",
      "constant": true
    },
    {
      "inputs": [
        {
          "internalType": "address",
          "name": "_issuerAddress",
          "type": "address"
        },
        {
          "internalType": "string",
          "name": "_issuerName",
          "type": "string"
        },
        {
          "internalType": "string",
          "name": "_issuerCountry",
          "type": "string"
        }
      ],
      "name": "registerIssuer",
      "outputs": [],
      "stateMutability": "nonpayable",
      "type": "function"
    },
    {
      "inputs": [
        {
          "internalType": "string",
          "name": "_countryName",
          "type": "string"
        }
      ],
      "name": "getIssuerByCountry",
      "outputs": [
        {
          "components": [
            {
              "internalType": "uint256",
              "name": "issuerId",
              "type": "uint256"
            },
            {
              "internalType": "address",
              "name": "issuerAddress",
              "type": "address"
            },
            {
              "internalType": "string",
              "name": "issuerName",
              "type": "string"
            },
            {
              "internalType": "uint256",
              "name": "issuerCountryId",
              "type": "uint256"
            },
            {
              "internalType": "uint256",
              "name": "createdAt",
              "type": "uint256"
            }
          ],
          "internalType": "struct DecentralizedPassport.Issuer[]",
          "name": "",
          "type": "tuple[]"
        }
      ],
      "stateMutability": "view",
      "type": "function",
      "constant": true
    },
    {
      "inputs": [
        {
          "internalType": "string",
          "name": "_userName",
          "type": "string"
        },
        {
          "internalType": "string",
          "name": "_userDob",
          "type": "string"
        },
        {
          "internalType": "string",
          "name": "_userCountry",
          "type": "string"
        }
      ],
      "name": "requestPassport",
      "outputs": [],
      "stateMutability": "nonpayable",
      "type": "function"
    },
    {
      "inputs": [],
      "name": "getPendingPassport",
      "outputs": [
        {
          "components": [
            {
              "internalType": "uint256",
              "name": "passportId",
              "type": "uint256"
            },
            {
              "internalType": "address",
              "name": "userAddress",
              "type": "address"
            },
            {
              "internalType": "string",
              "name": "userName",
              "type": "string"
            },
            {
              "internalType": "string",
              "name": "userDob",
              "type": "string"
            },
            {
              "internalType": "uint256",
              "name": "userCountryId",
              "type": "uint256"
            },
            {
              "internalType": "uint256",
              "name": "issuedBy",
              "type": "uint256"
            },
            {
              "internalType": "uint256",
              "name": "createdAt",
              "type": "uint256"
            }
          ],
          "internalType": "struct DecentralizedPassport.PassportData[]",
          "name": "",
          "type": "tuple[]"
        }
      ],
      "stateMutability": "view",
      "type": "function",
      "constant": true
    },
    {
      "inputs": [
        {
          "internalType": "uint256",
          "name": "_passportId",
          "type": "uint256"
        }
      ],
      "name": "approvePassport",
      "outputs": [],
      "stateMutability": "nonpayable",
      "type": "function"
    },
    {
      "inputs": [],
      "name": "getPassport",
      "outputs": [
        {
          "components": [
            {
              "internalType": "uint256",
              "name": "passportId",
              "type": "uint256"
            },
            {
              "internalType": "address",
              "name": "userAddress",
              "type": "address"
            },
            {
              "internalType": "string",
              "name": "userName",
              "type": "string"
            },
            {
              "internalType": "string",
              "name": "userDob",
              "type": "string"
            },
            {
              "internalType": "uint256",
              "name": "userCountryId",
              "type": "uint256"
            },
            {
              "internalType": "uint256",
              "name": "issuedBy",
              "type": "uint256"
            },
            {
              "internalType": "uint256",
              "name": "createdAt",
              "type": "uint256"
            }
          ],
          "internalType": "struct DecentralizedPassport.PassportData",
          "name": "",
          "type": "tuple"
        }
      ],
      "stateMutability": "view",
      "type": "function",
      "constant": true
    },
    {
      "inputs": [
        {
          "internalType": "address",
          "name": "_userAddress",
          "type": "address"
        }
      ],
      "name": "getPassportByAddress",
      "outputs": [
        {
          "components": [
            {
              "internalType": "uint256",
              "name": "passportId",
              "type": "uint256"
            },
            {
              "internalType": "address",
              "name": "userAddress",
              "type": "address"
            },
            {
              "internalType": "string",
              "name": "userName",
              "type": "string"
            },
            {
              "internalType": "string",
              "name": "userDob",
              "type": "string"
            },
            {
              "internalType": "uint256",
              "name": "userCountryId",
              "type": "uint256"
            },
            {
              "internalType": "uint256",
              "name": "issuedBy",
              "type": "uint256"
            },
            {
              "internalType": "uint256",
              "name": "createdAt",
              "type": "uint256"
            }
          ],
          "internalType": "struct DecentralizedPassport.PassportData",
          "name": "",
          "type": "tuple"
        }
      ],
      "stateMutability": "view",
      "type": "function",
      "constant": true
    },
    {
      "inputs": [
        {
          "internalType": "address",
          "name": "_userAddress",
          "type": "address"
        }
      ],
      "name": "verifyPassport",
      "outputs": [
        {
          "internalType": "bool",
          "name": "",
          "type": "bool"
        }
      ],
      "stateMutability": "view",
      "type": "function",
      "constant": true
    },
    {
      "inputs": [],
      "name": "getPassportStatus",
      "outputs": [
        {
          "internalType": "string",
          "name": "",
          "type": "string"
        }
      ],
      "stateMutability": "view",
      "type": "function",
      "constant": true
    }
  ],
  "bytecode": "0x608060405260006001556000600255600060035534801561001f57600080fd5b50336000806101000a81548173ffffffffffffffffffffffffffffffffffffffff021916908373ffffffffffffffffffffffffffffffffffffffff1602179055506145d68061006f6000396000f3fe608060405234801561001057600080fd5b506004361061010b5760003560e01c8063877b9a67116100a2578063beca800911610071578063beca8009146102ce578063c80039fb146102ec578063e574890d1461031c578063e69b664c1461033a578063f021bdd5146103565761010b565b8063877b9a67146102325780638eb20b0b14610262578063aa033a1a14610280578063b6db75a0146102b05761010b565b806363e41021116100de57806363e41021146101ac57806366025dc8146101c85780636b725a98146101e45780637d45e2d6146102025761010b565b80633072158214610110578063406d92091461012c5780634e6b01581461015c5780635884a05214610190575b600080fd5b61012a6004803603810190610125919061346f565b61038a565b005b61014660048036038101906101419190613516565b6106ff565b6040516101539190613779565b60405180910390f35b610176600480360381019061017191906137c7565b610903565b60405161018795949392919061384d565b60405180910390f35b6101aa60048036038101906101a591906138ae565b610a59565b005b6101c660048036038101906101c19190613965565b610d40565b005b6101e260048036038101906101dd91906139f0565b61124d565b005b6101ec611578565b6040516101f99190613bcd565b60405180910390f35b61021c60048036038101906102179190613bef565b6118e4565b6040516102299190613c37565b60405180910390f35b61024c60048036038101906102479190613bef565b611b83565b6040516102599190613c37565b60405180910390f35b61026a611ba3565b6040516102779190613cf5565b60405180910390f35b61029a60048036038101906102959190613bef565b611e28565b6040516102a79190613cf5565b60405180910390f35b6102b861213b565b6040516102c59190613c37565b60405180910390f35b6102d6612192565b6040516102e39190613e56565b60405180910390f35b61030660048036038101906103019190613516565b612333565b6040516103139190613c37565b60405180910390f35b610324612369565b6040516103319190613e78565b60405180910390f35b610354600480360381019061034f91906137c7565b6124c5565b005b610370600480360381019061036b9190613516565b612ff6565b60405161038195949392919061384d565b60405180910390f35b600c60003373ffffffffffffffffffffffffffffffffffffffff1673ffffffffffffffffffffffffffffffffffffffff16815260200190815260200160002060009054906101000a900460ff1615610417576040517f08c379a000000000000000000000000000000000000000000000000000000000815260040161040e90613ee6565b60405180910390fd5b600d60003373ffffffffffffffffffffffffffffffffffffffff1673ffffffffffffffffffffffffffffffffffffffff16815260200190815260200160002060009054906101000a900460ff16156104a4576040517f08c379a000000000000000000000000000000000000000000000000000000000815260040161049b90613f52565b60405180910390fd5b6004816040516104b49190613fae565b908152602001604051809103902060009054906101000a900460ff1661050f576040517f08c379a000000000000000000000000000000000000000000000000000000000815260040161050690614011565b60405180910390fd5b6003600081548092919061052290614060565b919050555060006040518060e0016040528060035481526020013373ffffffffffffffffffffffffffffffffffffffff1681526020018581526020018481526020016006846040516105749190613fae565b908152602001604051809103902060000154815260200160008152602001428152509050600e60006006846040516105ac9190613fae565b90815260200160405180910390206000015481526020019081526020016000208190806001815401808255809150506001900390600052602060002090600702016000909190919091506000820151816000015560208201518160010160006101000a81548173ffffffffffffffffffffffffffffffffffffffff021916908373ffffffffffffffffffffffffffffffffffffffff1602179055506040820151816002019080519060200190610663929190613152565b506060820151816003019080519060200190610680929190613152565b506080820151816004015560a0820151816005015560c0820151816006015550506001600d60003373ffffffffffffffffffffffffffffffffffffffff1673ffffffffffffffffffffffffffffffffffffffff16815260200190815260200160002060006101000a81548160ff02191690831515021790555050505050565b60606004826040516107119190613fae565b908152602001604051809103902060009054906101000a900460ff1661076c576040517f08c379a000000000000000000000000000000000000000000000000000000000815260040161076390614011565b60405180910390fd5b600b60006006846040516107809190613fae565b9081526020016040518091039020600001548152602001908152602001600020805480602002602001604051908101604052809291908181526020016000905b828210156108f857838290600052602060002090600502016040518060a0016040529081600082015481526020016001820160009054906101000a900473ffffffffffffffffffffffffffffffffffffffff1673ffffffffffffffffffffffffffffffffffffffff1673ffffffffffffffffffffffffffffffffffffffff168152602001600282018054610853906140d7565b80601f016020809104026020016040519081016040528092919081815260200182805461087f906140d7565b80156108cc5780601f106108a1576101008083540402835291602001916108cc565b820191906000526020600020905b8154815290600101906020018083116108af57829003601f168201915b5050505050815260200160038201548152602001600482015481525050815260200190600101906107c0565b505050509050919050565b6007818154811061091357600080fd5b906000526020600020906005020160009150905080600001549080600101805461093c906140d7565b80601f0160208091040260200160405190810160405280929190818152602001828054610968906140d7565b80156109b55780601f1061098a576101008083540402835291602001916109b5565b820191906000526020600020905b81548152906001019060200180831161099857829003601f168201915b5050505050908060020180546109ca906140d7565b80601f01602080910402602001604051908101604052809291908181526020018280546109f6906140d7565b8015610a435780601f10610a1857610100808354040283529160200191610a43565b820191906000526020600020905b815481529060010190602001808311610a2657829003601f168201915b5050505050908060030154908060040154905085565b60008054906101000a900473ffffffffffffffffffffffffffffffffffffffff1673ffffffffffffffffffffffffffffffffffffffff163373ffffffffffffffffffffffffffffffffffffffff1614610ae7576040517f08c379a0000000000000000000000000000000000000000000000000000000008152600401610ade90614154565b60405180910390fd5b600482604051610af79190613fae565b908152602001604051809103902060009054906101000a900460ff16610b52576040517f08c379a0000000000000000000000000000000000000000000000000000000008152600401610b4990614011565b60405180910390fd5b600060056000858152602001908152602001600020905082816001019080519060200190610b81929190613152565b5081816002019080519060200190610b9a929190613152565b5042816004018190555080600684604051610bb59190613fae565b9081526020016040518091039020600082015481600001556001820181600101908054610be1906140d7565b610bec9291906131d8565b506002820181600201908054610c01906140d7565b610c0c9291906131d8565b50600382015481600301556004820154816004015590505060005b600780549050811015610cfc578460078281548110610c4957610c48614174565b5b90600052602060002090600502016000015403610ce9578160078281548110610c7557610c74614174565b5b9060005260206000209060050201600082015481600001556001820181600101908054610ca1906140d7565b610cac9291906131d8565b506002820181600201908054610cc1906140d7565b610ccc9291906131d8565b506003820154816003015560048201548160040155905050610cfc565b8080610cf490614060565b915050610c27565b507fdcd4acac1d3ad3ee43d1d6f76367777717477bbf3dfdb0f47d27e51178d1974384848442604051610d3294939291906141a3565b60405180910390a150505050565b60008054906101000a900473ffffffffffffffffffffffffffffffffffffffff1673ffffffffffffffffffffffffffffffffffffffff163373ffffffffffffffffffffffffffffffffffffffff1614610dce576040517f08c379a0000000000000000000000000000000000000000000000000000000008152600401610dc590614154565b60405180910390fd5b600860008473ffffffffffffffffffffffffffffffffffffffff1673ffffffffffffffffffffffffffffffffffffffff16815260200190815260200160002060009054906101000a900460ff1615610e5b576040517f08c379a0000000000000000000000000000000000000000000000000000000008152600401610e5290614242565b60405180910390fd5b600481604051610e6b9190613fae565b908152602001604051809103902060009054906101000a900460ff16610ec6576040517f08c379a0000000000000000000000000000000000000000000000000000000008152600401610ebd90614011565b60405180910390fd5b60026000815480929190610ed990614060565b919050555060006040518060a0016040528060025481526020018573ffffffffffffffffffffffffffffffffffffffff168152602001848152602001600684604051610f259190613fae565b908152602001604051809103902060000154815260200142815250905080600984604051610f539190613fae565b90815260200160405180910390206000820151816000015560208201518160010160006101000a81548173ffffffffffffffffffffffffffffffffffffffff021916908373ffffffffffffffffffffffffffffffffffffffff1602179055506040820151816002019080519060200190610fce929190613152565b50606082015181600301556080820151816004015590505080600a60008673ffffffffffffffffffffffffffffffffffffffff1673ffffffffffffffffffffffffffffffffffffffff1681526020019081526020016000206000820151816000015560208201518160010160006101000a81548173ffffffffffffffffffffffffffffffffffffffff021916908373ffffffffffffffffffffffffffffffffffffffff1602179055506040820151816002019080519060200190611093929190613152565b5060608201518160030155608082015181600401559050506001600860008673ffffffffffffffffffffffffffffffffffffffff1673ffffffffffffffffffffffffffffffffffffffff16815260200190815260200160002060006101000a81548160ff021916908315150217905550600b60006006846040516111179190613fae565b90815260200160405180910390206000015481526020019081526020016000208190806001815401808255809150506001900390600052602060002090600502016000909190919091506000820151816000015560208201518160010160006101000a81548173ffffffffffffffffffffffffffffffffffffffff021916908373ffffffffffffffffffffffffffffffffffffffff16021790555060408201518160020190805190602001906111ce929190613152565b50606082015181600301556080820151816004015550507f5ebd941c28a27cc5db0027bf5bb808e09998115a0582c6175eeec728cb1bd66c600254858560068660405161121b9190613fae565b9081526020016040518091039020600001544260405161123f959493929190614271565b60405180910390a150505050565b60008054906101000a900473ffffffffffffffffffffffffffffffffffffffff1673ffffffffffffffffffffffffffffffffffffffff163373ffffffffffffffffffffffffffffffffffffffff16146112db576040517f08c379a00000000000000000000000000000000000000000000000000000000081526004016112d290614154565b60405180910390fd5b6004826040516112eb9190613fae565b908152602001604051809103902060009054906101000a900460ff1615611347576040517f08c379a000000000000000000000000000000000000000000000000000000000815260040161133e90614317565b60405180910390fd5b6001600081548092919061135a90614060565b919050555060006040518060a001604052806001548152602001848152602001838152602001428152602001428152509050806005600060015481526020019081526020016000206000820151816000015560208201518160010190805190602001906113c8929190613152565b5060408201518160020190805190602001906113e5929190613152565b5060608201518160030155608082015181600401559050508060068460405161140e9190613fae565b9081526020016040518091039020600082015181600001556020820151816001019080519060200190611442929190613152565b50604082015181600201908051906020019061145f929190613152565b50606082015181600301556080820151816004015590505060016004846040516114899190613fae565b908152602001604051809103902060006101000a81548160ff0219169083151502179055506007819080600181540180825580915050600190039060005260206000209060050201600090919091909150600082015181600001556020820151816001019080519060200190611500929190613152565b50604082015181600201908051906020019061151d929190613152565b50606082015181600301556080820151816004015550507f9cc00184c35d52b732fdd263771c662c54c428b823531516efd3a7cf56586b7b60015484844260405161156b94939291906141a3565b60405180910390a1505050565b6060600860003373ffffffffffffffffffffffffffffffffffffffff1673ffffffffffffffffffffffffffffffffffffffff16815260200190815260200160002060009054906101000a900460ff16611606576040517f08c379a00000000000000000000000000000000000000000000000000000000081526004016115fd90614383565b60405180910390fd5b600860003373ffffffffffffffffffffffffffffffffffffffff1673ffffffffffffffffffffffffffffffffffffffff16815260200190815260200160002060009054906101000a900460ff16611692576040517f08c379a000000000000000000000000000000000000000000000000000000000815260040161168990614383565b60405180910390fd5b600e6000600a60003373ffffffffffffffffffffffffffffffffffffffff1673ffffffffffffffffffffffffffffffffffffffff168152602001908152602001600020600301548152602001908152602001600020805480602002602001604051908101604052809291908181526020016000905b828210156118db57838290600052602060002090600702016040518060e0016040529081600082015481526020016001820160009054906101000a900473ffffffffffffffffffffffffffffffffffffffff1673ffffffffffffffffffffffffffffffffffffffff1673ffffffffffffffffffffffffffffffffffffffff16815260200160028201805461179a906140d7565b80601f01602080910402602001604051908101604052809291908181526020018280546117c6906140d7565b80156118135780601f106117e857610100808354040283529160200191611813565b820191906000526020600020905b8154815290600101906020018083116117f657829003601f168201915b5050505050815260200160038201805461182c906140d7565b80601f0160208091040260200160405190810160405280929190818152602001828054611858906140d7565b80156118a55780601f1061187a576101008083540402835291602001916118a5565b820191906000526020600020905b81548152906001019060200180831161188857829003601f168201915b50505050508152602001600482015481526020016005820154815260200160068201548152505081526020019060010190611707565b50505050905090565b6000600c60008373ffffffffffffffffffffffffffffffffffffffff1673ffffffffffffffffffffffffffffffffffffffff16815260200190815260200160002060009054906101000a900460ff16611972576040517f08c379a0000000000000000000000000000000000000000000000000000000008152600401611969906143ef565b60405180910390fd5b6000601060008473ffffffffffffffffffffffffffffffffffffffff1673ffffffffffffffffffffffffffffffffffffffff1681526020019081526020016000206040518060e0016040529081600082015481526020016001820160009054906101000a900473ffffffffffffffffffffffffffffffffffffffff1673ffffffffffffffffffffffffffffffffffffffff1673ffffffffffffffffffffffffffffffffffffffff168152602001600282018054611a2e906140d7565b80601f0160208091040260200160405190810160405280929190818152602001828054611a5a906140d7565b8015611aa75780601f10611a7c57610100808354040283529160200191611aa7565b820191906000526020600020905b815481529060010190602001808311611a8a57829003601f168201915b50505050508152602001600382018054611ac0906140d7565b80601f0160208091040260200160405190810160405280929190818152602001828054611aec906140d7565b8015611b395780601f10611b0e57610100808354040283529160200191611b39565b820191906000526020600020905b815481529060010190602001808311611b1c57829003601f168201915b505050505081526020016004820154815260200160058201548152602001600682015481525050905060008160a0015103611b78576000915050611b7e565b60019150505b919050565b60086020528060005260406000206000915054906101000a900460ff1681565b611bab613265565b600c60003373ffffffffffffffffffffffffffffffffffffffff1673ffffffffffffffffffffffffffffffffffffffff16815260200190815260200160002060009054906101000a900460ff16611c37576040517f08c379a0000000000000000000000000000000000000000000000000000000008152600401611c2e906143ef565b60405180910390fd5b601060003373ffffffffffffffffffffffffffffffffffffffff1673ffffffffffffffffffffffffffffffffffffffff1681526020019081526020016000206040518060e0016040529081600082015481526020016001820160009054906101000a900473ffffffffffffffffffffffffffffffffffffffff1673ffffffffffffffffffffffffffffffffffffffff1673ffffffffffffffffffffffffffffffffffffffff168152602001600282018054611cf1906140d7565b80601f0160208091040260200160405190810160405280929190818152602001828054611d1d906140d7565b8015611d6a5780601f10611d3f57610100808354040283529160200191611d6a565b820191906000526020600020905b815481529060010190602001808311611d4d57829003601f168201915b50505050508152602001600382018054611d83906140d7565b80601f0160208091040260200160405190810160405280929190818152602001828054611daf906140d7565b8015611dfc5780601f10611dd157610100808354040283529160200191611dfc565b820191906000526020600020905b815481529060010190602001808311611ddf57829003601f168201915b505050505081526020016004820154815260200160058201548152602001600682015481525050905090565b611e30613265565b600860003373ffffffffffffffffffffffffffffffffffffffff1673ffffffffffffffffffffffffffffffffffffffff16815260200190815260200160002060009054906101000a900460ff16611ebc576040517f08c379a0000000000000000000000000000000000000000000000000000000008152600401611eb390614383565b60405180910390fd5b600c60008373ffffffffffffffffffffffffffffffffffffffff1673ffffffffffffffffffffffffffffffffffffffff16815260200190815260200160002060009054906101000a900460ff16611f48576040517f08c379a0000000000000000000000000000000000000000000000000000000008152600401611f3f906143ef565b60405180910390fd5b601060008373ffffffffffffffffffffffffffffffffffffffff1673ffffffffffffffffffffffffffffffffffffffff1681526020019081526020016000206040518060e0016040529081600082015481526020016001820160009054906101000a900473ffffffffffffffffffffffffffffffffffffffff1673ffffffffffffffffffffffffffffffffffffffff1673ffffffffffffffffffffffffffffffffffffffff168152602001600282018054612002906140d7565b80601f016020809104026020016040519081016040528092919081815260200182805461202e906140d7565b801561207b5780601f106120505761010080835404028352916020019161207b565b820191906000526020600020905b81548152906001019060200180831161205e57829003601f168201915b50505050508152602001600382018054612094906140d7565b80601f01602080910402602001604051908101604052809291908181526020018280546120c0906140d7565b801561210d5780601f106120e25761010080835404028352916020019161210d565b820191906000526020600020905b8154815290600101906020018083116120f057829003601f168201915b5050505050815260200160048201548152602001600582015481526020016006820154815250509050919050565b60008060009054906101000a900473ffffffffffffffffffffffffffffffffffffffff1673ffffffffffffffffffffffffffffffffffffffff163373ffffffffffffffffffffffffffffffffffffffff1614905090565b60606007805480602002602001604051908101604052809291908181526020016000905b8282101561232a57838290600052602060002090600502016040518060a0016040529081600082015481526020016001820180546121f3906140d7565b80601f016020809104026020016040519081016040528092919081815260200182805461221f906140d7565b801561226c5780601f106122415761010080835404028352916020019161226c565b820191906000526020600020905b81548152906001019060200180831161224f57829003601f168201915b50505050508152602001600282018054612285906140d7565b80601f01602080910402602001604051908101604052809291908181526020018280546122b1906140d7565b80156122fe5780601f106122d3576101008083540402835291602001916122fe565b820191906000526020600020905b8154815290600101906020018083116122e157829003601f168201915b5050505050815260200160038201548152602001600482015481525050815260200190600101906121b6565b50505050905090565b6004818051602081018201805184825260208301602085012081835280955050505050506000915054906101000a900460ff1681565b6060600c60003373ffffffffffffffffffffffffffffffffffffffff1673ffffffffffffffffffffffffffffffffffffffff16815260200190815260200160002060009054906101000a900460ff16156123fa576040518060400160405280600181526020017f410000000000000000000000000000000000000000000000000000000000000081525090506124c2565b600d60003373ffffffffffffffffffffffffffffffffffffffff1673ffffffffffffffffffffffffffffffffffffffff16815260200190815260200160002060009054906101000a900460ff1615612489576040518060400160405280600181526020017f500000000000000000000000000000000000000000000000000000000000000081525090506124c2565b6040518060400160405280600181526020017f4e0000000000000000000000000000000000000000000000000000000000000081525090505b90565b600860003373ffffffffffffffffffffffffffffffffffffffff1673ffffffffffffffffffffffffffffffffffffffff16815260200190815260200160002060009054906101000a900460ff16612551576040517f08c379a000000000000000000000000000000000000000000000000000000000815260040161254890614383565b60405180910390fd5b600860003373ffffffffffffffffffffffffffffffffffffffff1673ffffffffffffffffffffffffffffffffffffffff16815260200190815260200160002060009054906101000a900460ff166125dd576040517f08c379a00000000000000000000000000000000000000000000000000000000081526004016125d490614383565b60405180910390fd5b6000600e6000600a60003373ffffffffffffffffffffffffffffffffffffffff1673ffffffffffffffffffffffffffffffffffffffff1681526020019081526020016000206003015481526020019081526020016000208054905011612678576040517f08c379a000000000000000000000000000000000000000000000000000000000815260040161266f9061445b565b60405180910390fd5b6000805b600e6000600a60003373ffffffffffffffffffffffffffffffffffffffff1673ffffffffffffffffffffffffffffffffffffffff16815260200190815260200160002060030154815260200190815260200160002080549050811015612fb15782600e6000600a60003373ffffffffffffffffffffffffffffffffffffffff1673ffffffffffffffffffffffffffffffffffffffff168152602001908152602001600020600301548152602001908152602001600020828154811061274457612743614174565b5b90600052602060002090600702016000015403612f9e57600191506000600e6000600a60003373ffffffffffffffffffffffffffffffffffffffff1673ffffffffffffffffffffffffffffffffffffffff16815260200190815260200160002060030154815260200190815260200160002082815481106127c8576127c7614174565b5b90600052602060002090600702016040518060e0016040529081600082015481526020016001820160009054906101000a900473ffffffffffffffffffffffffffffffffffffffff1673ffffffffffffffffffffffffffffffffffffffff1673ffffffffffffffffffffffffffffffffffffffff168152602001600282018054612851906140d7565b80601f016020809104026020016040519081016040528092919081815260200182805461287d906140d7565b80156128ca5780601f1061289f576101008083540402835291602001916128ca565b820191906000526020600020905b8154815290600101906020018083116128ad57829003601f168201915b505050505081526020016003820180546128e3906140d7565b80601f016020809104026020016040519081016040528092919081815260200182805461290f906140d7565b801561295c5780601f106129315761010080835404028352916020019161295c565b820191906000526020600020905b81548152906001019060200180831161293f57829003601f168201915b5050505050815260200160048201548152602001600582015481526020016006820154815250509050600a60003373ffffffffffffffffffffffffffffffffffffffff1673ffffffffffffffffffffffffffffffffffffffff168152602001908152602001600020600001548160a0018181525050600f6000826080015181526020019081526020016000208190806001815401808255809150506001900390600052602060002090600702016000909190919091506000820151816000015560208201518160010160006101000a81548173ffffffffffffffffffffffffffffffffffffffff021916908373ffffffffffffffffffffffffffffffffffffffff1602179055506040820151816002019080519060200190612a7f929190613152565b506060820151816003019080519060200190612a9c929190613152565b506080820151816004015560a0820151816005015560c0820151816006015550506001600c6000836020015173ffffffffffffffffffffffffffffffffffffffff1673ffffffffffffffffffffffffffffffffffffffff16815260200190815260200160002060006101000a81548160ff0219169083151502179055506000600d6000836020015173ffffffffffffffffffffffffffffffffffffffff1673ffffffffffffffffffffffffffffffffffffffff16815260200190815260200160002060006101000a81548160ff0219169083151502179055508060106000836020015173ffffffffffffffffffffffffffffffffffffffff1673ffffffffffffffffffffffffffffffffffffffff1681526020019081526020016000206000820151816000015560208201518160010160006101000a81548173ffffffffffffffffffffffffffffffffffffffff021916908373ffffffffffffffffffffffffffffffffffffffff1602179055506040820151816002019080519060200190612c26929190613152565b506060820151816003019080519060200190612c43929190613152565b506080820151816004015560a0820151816005015560c0820151816006015590505060008290505b6001600e6000600a60003373ffffffffffffffffffffffffffffffffffffffff1673ffffffffffffffffffffffffffffffffffffffff16815260200190815260200160002060030154815260200190815260200160002080549050612cd0919061447b565b811015612eb257600e6000600a60003373ffffffffffffffffffffffffffffffffffffffff1673ffffffffffffffffffffffffffffffffffffffff168152602001908152602001600020600301548152602001908152602001600020600182612d3991906144af565b81548110612d4a57612d49614174565b5b9060005260206000209060070201600e6000600a60003373ffffffffffffffffffffffffffffffffffffffff1673ffffffffffffffffffffffffffffffffffffffff1681526020019081526020016000206003015481526020019081526020016000208281548110612dbf57612dbe614174565b5b9060005260206000209060070201600082015481600001556001820160009054906101000a900473ffffffffffffffffffffffffffffffffffffffff168160010160006101000a81548173ffffffffffffffffffffffffffffffffffffffff021916908373ffffffffffffffffffffffffffffffffffffffff1602179055506002820181600201908054612e52906140d7565b612e5d9291906131d8565b506003820181600301908054612e72906140d7565b612e7d9291906131d8565b506004820154816004015560058201548160050155600682015481600601559050508080612eaa90614060565b915050612c6b565b50600e6000600a60003373ffffffffffffffffffffffffffffffffffffffff1673ffffffffffffffffffffffffffffffffffffffff168152602001908152602001600020600301548152602001908152602001600020805480612f1857612f17614505565b5b60019003818190600052602060002090600702016000808201600090556001820160006101000a81549073ffffffffffffffffffffffffffffffffffffffff0219169055600282016000612f6c91906132b8565b600382016000612f7c91906132b8565b6004820160009055600582016000905560068201600090555050905550612fb1565b8080612fa990614060565b91505061267c565b5080612ff2576040517f08c379a0000000000000000000000000000000000000000000000000000000008152600401612fe990614580565b60405180910390fd5b5050565b600681805160208101820180518482526020830160208501208183528095505050505050600091509050806000015490806001018054613035906140d7565b80601f0160208091040260200160405190810160405280929190818152602001828054613061906140d7565b80156130ae5780601f10613083576101008083540402835291602001916130ae565b820191906000526020600020905b81548152906001019060200180831161309157829003601f168201915b5050505050908060020180546130c3906140d7565b80601f01602080910402602001604051908101604052809291908181526020018280546130ef906140d7565b801561313c5780601f106131115761010080835404028352916020019161313c565b820191906000526020600020905b81548152906001019060200180831161311f57829003601f168201915b5050505050908060030154908060040154905085565b82805461315e906140d7565b90600052602060002090601f01602090048101928261318057600085556131c7565b82601f1061319957805160ff19168380011785556131c7565b828001600101855582156131c7579182015b828111156131c65782518255916020019190600101906131ab565b5b5090506131d491906132f8565b5090565b8280546131e4906140d7565b90600052602060002090601f0160209004810192826132065760008555613254565b82601f106132175780548555613254565b8280016001018555821561325457600052602060002091601f016020900482015b82811115613253578254825591600101919060010190613238565b5b50905061326191906132f8565b5090565b6040518060e0016040528060008152602001600073ffffffffffffffffffffffffffffffffffffffff16815260200160608152602001606081526020016000815260200160008152602001600081525090565b5080546132c4906140d7565b6000825580601f106132d657506132f5565b601f0160209004906000526020600020908101906132f491906132f8565b5b50565b5b808211156133115760008160009055506001016132f9565b5090565b6000604051905090565b600080fd5b600080fd5b600080fd5b600080fd5b6000601f19601f8301169050919050565b7f4e487b7100000000000000000000000000000000000000000000000000000000600052604160045260246000fd5b61337c82613333565b810181811067ffffffffffffffff8211171561339b5761339a613344565b5b80604052505050565b60006133ae613315565b90506133ba8282613373565b919050565b600067ffffffffffffffff8211156133da576133d9613344565b5b6133e382613333565b9050602081019050919050565b82818337600083830152505050565b600061341261340d846133bf565b6133a4565b90508281526020810184848401111561342e5761342d61332e565b5b6134398482856133f0565b509392505050565b600082601f83011261345657613455613329565b5b81356134668482602086016133ff565b91505092915050565b6000806000606084860312156134885761348761331f565b5b600084013567ffffffffffffffff8111156134a6576134a5613324565b5b6134b286828701613441565b935050602084013567ffffffffffffffff8111156134d3576134d2613324565b5b6134df86828701613441565b925050604084013567ffffffffffffffff811115613500576134ff613324565b5b61350c86828701613441565b9150509250925092565b60006020828403121561352c5761352b61331f565b5b600082013567ffffffffffffffff81111561354a57613549613324565b5b61355684828501613441565b91505092915050565b600081519050919050565b600082825260208201905092915050565b6000819050602082019050919050565b6000819050919050565b61359e8161358b565b82525050565b600073ffffffffffffffffffffffffffffffffffffffff82169050919050565b60006135cf826135a4565b9050919050565b6135df816135c4565b82525050565b600081519050919050565b600082825260208201905092915050565b60005b8381101561361f578082015181840152602081019050613604565b8381111561362e576000848401525b50505050565b600061363f826135e5565b61364981856135f0565b9350613659818560208601613601565b61366281613333565b840191505092915050565b600060a0830160008301516136856000860182613595565b50602083015161369860208601826135d6565b50604083015184820360408601526136b08282613634565b91505060608301516136c56060860182613595565b5060808301516136d86080860182613595565b508091505092915050565b60006136ef838361366d565b905092915050565b6000602082019050919050565b600061370f8261355f565b613719818561356a565b93508360208202850161372b8561357b565b8060005b85811015613767578484038952815161374885826136e3565b9450613753836136f7565b925060208a0199505060018101905061372f565b50829750879550505050505092915050565b600060208201905081810360008301526137938184613704565b905092915050565b6137a48161358b565b81146137af57600080fd5b50565b6000813590506137c18161379b565b92915050565b6000602082840312156137dd576137dc61331f565b5b60006137eb848285016137b2565b91505092915050565b6137fd8161358b565b82525050565b600082825260208201905092915050565b600061381f826135e5565b6138298185613803565b9350613839818560208601613601565b61384281613333565b840191505092915050565b600060a08201905061386260008301886137f4565b81810360208301526138748187613814565b905081810360408301526138888186613814565b905061389760608301856137f4565b6138a460808301846137f4565b9695505050505050565b6000806000606084860312156138c7576138c661331f565b5b60006138d5868287016137b2565b935050602084013567ffffffffffffffff8111156138f6576138f5613324565b5b61390286828701613441565b925050604084013567ffffffffffffffff81111561392357613922613324565b5b61392f86828701613441565b9150509250925092565b613942816135c4565b811461394d57600080fd5b50565b60008135905061395f81613939565b92915050565b60008060006060848603121561397e5761397d61331f565b5b600061398c86828701613950565b935050602084013567ffffffffffffffff8111156139ad576139ac613324565b5b6139b986828701613441565b925050604084013567ffffffffffffffff8111156139da576139d9613324565b5b6139e686828701613441565b9150509250925092565b60008060408385031215613a0757613a0661331f565b5b600083013567ffffffffffffffff811115613a2557613a24613324565b5b613a3185828601613441565b925050602083013567ffffffffffffffff811115613a5257613a51613324565b5b613a5e85828601613441565b9150509250929050565b600081519050919050565b600082825260208201905092915050565b6000819050602082019050919050565b600060e083016000830151613aac6000860182613595565b506020830151613abf60208601826135d6565b5060408301518482036040860152613ad78282613634565b91505060608301518482036060860152613af18282613634565b9150506080830151613b066080860182613595565b5060a0830151613b1960a0860182613595565b5060c0830151613b2c60c0860182613595565b508091505092915050565b6000613b438383613a94565b905092915050565b6000602082019050919050565b6000613b6382613a68565b613b6d8185613a73565b935083602082028501613b7f85613a84565b8060005b85811015613bbb5784840389528151613b9c8582613b37565b9450613ba783613b4b565b925060208a01995050600181019050613b83565b50829750879550505050505092915050565b60006020820190508181036000830152613be78184613b58565b905092915050565b600060208284031215613c0557613c0461331f565b5b6000613c1384828501613950565b91505092915050565b60008115159050919050565b613c3181613c1c565b82525050565b6000602082019050613c4c6000830184613c28565b92915050565b600060e083016000830151613c6a6000860182613595565b506020830151613c7d60208601826135d6565b5060408301518482036040860152613c958282613634565b91505060608301518482036060860152613caf8282613634565b9150506080830151613cc46080860182613595565b5060a0830151613cd760a0860182613595565b5060c0830151613cea60c0860182613595565b508091505092915050565b60006020820190508181036000830152613d0f8184613c52565b905092915050565b600081519050919050565b600082825260208201905092915050565b6000819050602082019050919050565b600060a083016000830151613d5b6000860182613595565b5060208301518482036020860152613d738282613634565b91505060408301518482036040860152613d8d8282613634565b9150506060830151613da26060860182613595565b506080830151613db56080860182613595565b508091505092915050565b6000613dcc8383613d43565b905092915050565b6000602082019050919050565b6000613dec82613d17565b613df68185613d22565b935083602082028501613e0885613d33565b8060005b85811015613e445784840389528151613e258582613dc0565b9450613e3083613dd4565b925060208a01995050600181019050613e0c565b50829750879550505050505092915050565b60006020820190508181036000830152613e708184613de1565b905092915050565b60006020820190508181036000830152613e928184613814565b905092915050565b7f50617373706f727420616c726561647920657869737473000000000000000000600082015250565b6000613ed0601783613803565b9150613edb82613e9a565b602082019050919050565b60006020820190508181036000830152613eff81613ec3565b9050919050565b7f50617373706f727420616c726561647920726571756573746564000000000000600082015250565b6000613f3c601a83613803565b9150613f4782613f06565b602082019050919050565b60006020820190508181036000830152613f6b81613f2f565b9050919050565b600081905092915050565b6000613f88826135e5565b613f928185613f72565b9350613fa2818560208601613601565b80840191505092915050565b6000613fba8284613f7d565b915081905092915050565b7f436f756e74727920646f6573206e6f7420657869737473000000000000000000600082015250565b6000613ffb601783613803565b915061400682613fc5565b602082019050919050565b6000602082019050818103600083015261402a81613fee565b9050919050565b7f4e487b7100000000000000000000000000000000000000000000000000000000600052601160045260246000fd5b600061406b8261358b565b91507fffffffffffffffffffffffffffffffffffffffffffffffffffffffffffffffff820361409d5761409c614031565b5b600182019050919050565b7f4e487b7100000000000000000000000000000000000000000000000000000000600052602260045260246000fd5b600060028204905060018216806140ef57607f821691505b602082108103614102576141016140a8565b5b50919050565b7f4f6e6c792041646d696e00000000000000000000000000000000000000000000600082015250565b600061413e600a83613803565b915061414982614108565b602082019050919050565b6000602082019050818103600083015261416d81614131565b9050919050565b7f4e487b7100000000000000000000000000000000000000000000000000000000600052603260045260246000fd5b60006080820190506141b860008301876137f4565b81810360208301526141ca8186613814565b905081810360408301526141de8185613814565b90506141ed60608301846137f4565b95945050505050565b7f49737375657220616c7265616479206578697374730000000000000000000000600082015250565b600061422c601583613803565b9150614237826141f6565b602082019050919050565b6000602082019050818103600083015261425b8161421f565b9050919050565b61426b816135c4565b82525050565b600060a08201905061428660008301886137f4565b6142936020830187614262565b81810360408301526142a58186613814565b90506142b460608301856137f4565b6142c160808301846137f4565b9695505050505050565b7f436f756e74727920616c72656164792065786973747300000000000000000000600082015250565b6000614301601683613803565b915061430c826142cb565b602082019050919050565b60006020820190508181036000830152614330816142f4565b9050919050565b7f4f6e6c7920497373756572000000000000000000000000000000000000000000600082015250565b600061436d600b83613803565b915061437882614337565b602082019050919050565b6000602082019050818103600083015261439c81614360565b9050919050565b7f50617373706f727420646f6573206e6f74206578697374730000000000000000600082015250565b60006143d9601883613803565b91506143e4826143a3565b602082019050919050565b60006020820190508181036000830152614408816143cc565b9050919050565b7f4e6f2070656e64696e672070617373706f727400000000000000000000000000600082015250565b6000614445601383613803565b91506144508261440f565b602082019050919050565b6000602082019050818103600083015261447481614438565b9050919050565b60006144868261358b565b91506144918361358b565b9250828210156144a4576144a3614031565b5b828203905092915050565b60006144ba8261358b565b91506144c58361358b565b9250827fffffffffffffffffffffffffffffffffffffffffffffffffffffffffffffffff038211156144fa576144f9614031565b5b828201905092915050565b7f4e487b7100000000000000000000000000000000000000000000000000000000600052603160045260246000fd5b7f50617373706f7274206e6f7420666f756e640000000000000000000000000000600082015250565b600061456a601283613803565b915061457582614534565b602082019050919050565b600060208201905081810360008301526145998161455d565b905091905056fea26469706673582212209303a472037ad0399b06b827dba7d4db7a7f6d049b6a00b70ee372a309735ddf64736f6c634300080d0033",
  "immutableReferences": {},
  "source": "// SPDX-License-Identifier: MIT\npragma solidity ^0.8.0;\n\ncontract DecentralizedPassport {\n    address private admin;\n    uint256 auto_increment_country_id = 0;\n    uint256 auto_increment_issuer_id = 0;\n    uint256 auto_increment_passport_id = 0;\n\n    constructor() {\n        admin = msg.sender;\n    }\n\n    struct Country {\n        uint256 countryId;\n        string countryName;\n        string latLong;\n        uint256 createdAt;\n        uint256 updatedAt;\n    }\n\n    struct Issuer {\n        uint256 issuerId;\n        address issuerAddress;\n        string issuerName;\n        uint256 issuerCountryId;\n        uint256 createdAt;\n    }\n\n    struct PassportData {\n        uint256 passportId;\n        address userAddress;\n        string userName;\n        string userDob;\n        uint256 userCountryId;\n        uint256 issuedBy;\n        uint256 createdAt;\n    }\n\n    mapping(string => bool) public isCountry;\n    mapping(uint256 => Country) private countryById;\n    mapping(string => Country) public countryByName;\n    Country[] public countryData;\n\n    mapping(address => bool) public isIssuer;\n    mapping(string => Issuer) private issuerByName;\n    mapping(address => Issuer) private issuerByAddress;\n    mapping(uint256 => Issuer[]) private issuerData;\n\n    mapping(address => bool) hasPassport;\n    mapping(address => bool) hasPendingPassport;\n    mapping(uint256 => PassportData[]) private pendingPassportData;\n    mapping(uint256 => PassportData[]) private passportData;\n    mapping(address => PassportData) private myPassport;\n\n    modifier onlyAdmin() {\n        require(msg.sender == admin, \"Only Admin\");\n        _;\n    }\n\n    modifier onlyIssuer() {\n        require(isIssuer[msg.sender], \"Only Issuer\");\n        _;\n    }\n\n    function isAdmin() public view returns (bool) {\n        return msg.sender == admin;\n    }\n\n    // Country API\n    event CountryAdded(\n        uint256 countryId,\n        string countryName,\n        string latLong,\n        uint256 createdAt\n    );\n    function addCountry(\n        string memory _countryName,\n        string memory _latLong\n    ) public onlyAdmin {\n        require(!isCountry[_countryName], \"Country already exists\");\n        auto_increment_country_id++;\n        Country memory country = Country(\n            auto_increment_country_id,\n            _countryName,\n            _latLong,\n            block.timestamp,\n            block.timestamp\n        );\n        countryById[auto_increment_country_id] = country;\n        countryByName[_countryName] = country;\n        isCountry[_countryName] = true;\n\n        countryData.push(country);\n\n        emit CountryAdded(\n            auto_increment_country_id,\n            _countryName,\n            _latLong,\n            block.timestamp\n        );\n    }\n\n    event CountryUpdated(\n        uint256 countryId,\n        string countryName,\n        string latLong,\n        uint256 updatedAt\n    );\n    function updateCountry(\n        uint256 _countryId,\n        string memory _countryName,\n        string memory _latLong\n    ) public onlyAdmin {\n        require(isCountry[_countryName], \"Country does not exists\");\n        Country storage country = countryById[_countryId];\n        country.countryName = _countryName;\n        country.latLong = _latLong;\n        country.updatedAt = block.timestamp;\n        countryByName[_countryName] = country;\n\n\n        // update array\n        for (uint256 i = 0; i < countryData.length; i++) {\n            if (countryData[i].countryId == _countryId) {\n                countryData[i] = country;\n                break;\n            }\n        }\n\n        emit CountryUpdated(\n            _countryId,\n            _countryName,\n            _latLong,\n            block.timestamp\n        );\n    }\n\n    function getCountries() public view returns (Country[] memory) {\n        return countryData;\n    }\n\n    // Issuer API\n    event IssuerAdded(\n        uint256 issuerId,\n        address issuerAddress,\n        string issuerName,\n        uint256 issuerCountryId,\n        uint256 createdAt\n    );\n    function registerIssuer(\n        address _issuerAddress,\n        string memory _issuerName,\n        string memory _issuerCountry\n    ) public onlyAdmin {\n        require(!isIssuer[_issuerAddress], \"Issuer already exists\");\n        require(isCountry[_issuerCountry], \"Country does not exists\");\n        auto_increment_issuer_id++;\n        Issuer memory issuer = Issuer(\n            auto_increment_issuer_id,\n            _issuerAddress,\n            _issuerName,\n            countryByName[_issuerCountry].countryId,\n            block.timestamp\n        );\n        issuerByName[_issuerName] = issuer;\n        issuerByAddress[_issuerAddress] = issuer;\n        isIssuer[_issuerAddress] = true;\n        issuerData[countryByName[_issuerCountry].countryId].push(issuer);\n\n        emit IssuerAdded(\n            auto_increment_issuer_id,\n            _issuerAddress,\n            _issuerName,\n            countryByName[_issuerCountry].countryId,\n            block.timestamp\n        );\n    }\n\n    function getIssuerByCountry(\n        string memory _countryName\n    ) public view returns (Issuer[] memory) {\n        require(isCountry[_countryName], \"Country does not exists\");\n        return issuerData[countryByName[_countryName].countryId];\n    }\n\n    // Passport API\n    // requestPassport, no issuer\n    function requestPassport(\n        string memory _userName,\n        string memory _userDob,\n        string memory _userCountry\n    ) public {\n        require(!hasPassport[msg.sender], \"Passport already exists\");\n        require(!hasPendingPassport[msg.sender], \"Passport already requested\");\n        require(isCountry[_userCountry], \"Country does not exists\");\n        auto_increment_passport_id++;\n        PassportData memory passport = PassportData(\n            auto_increment_passport_id,\n            msg.sender,\n            _userName,\n            _userDob,\n            countryByName[_userCountry].countryId,\n            0,\n            block.timestamp\n        );\n        pendingPassportData[countryByName[_userCountry].countryId].push(\n            passport\n        );\n        hasPendingPassport[msg.sender] = true;\n    }\n\n    // getPendingPassport, issuer, no params. use msg.sender\n    function getPendingPassport()\n        public\n        view\n        onlyIssuer\n        returns (PassportData[] memory)\n    {\n        require(isIssuer[msg.sender], \"Only Issuer\");\n        return pendingPassportData[issuerByAddress[msg.sender].issuerCountryId];\n    }\n\n    // approvePassport, issuer, passportId\n    function approvePassport(uint256 _passportId) public onlyIssuer {\n        require(isIssuer[msg.sender], \"Only Issuer\");\n        require(\n            pendingPassportData[issuerByAddress[msg.sender].issuerCountryId]\n                .length > 0,\n            \"No pending passport\"\n        );\n        bool found = false;\n        for (\n            uint256 i = 0;\n            i <\n            pendingPassportData[issuerByAddress[msg.sender].issuerCountryId]\n                .length;\n            i++\n        ) {\n            if (\n                pendingPassportData[\n                    issuerByAddress[msg.sender].issuerCountryId\n                ][i].passportId == _passportId\n            ) {\n                found = true;\n                PassportData memory passport = pendingPassportData[\n                    issuerByAddress[msg.sender].issuerCountryId\n                ][i];\n                passport.issuedBy = issuerByAddress[msg.sender].issuerId;\n                passportData[passport.userCountryId].push(passport);\n                hasPassport[passport.userAddress] = true;\n                hasPendingPassport[passport.userAddress] = false;\n                myPassport[passport.userAddress] = passport;\n\n                // remove from pending\n                for (\n                    uint256 j = i;\n                    j <\n                    pendingPassportData[\n                        issuerByAddress[msg.sender].issuerCountryId\n                    ].length -\n                        1;\n                    j++\n                ) {\n                    pendingPassportData[\n                        issuerByAddress[msg.sender].issuerCountryId\n                    ][j] = pendingPassportData[\n                        issuerByAddress[msg.sender].issuerCountryId\n                    ][j + 1];\n                }\n                pendingPassportData[issuerByAddress[msg.sender].issuerCountryId]\n                    .pop();\n\n                break;\n            }\n        }\n        require(found, \"Passport not found\");\n    }\n\n    // getPassport, user\n    function getPassport() public view returns (PassportData memory) {\n        require(hasPassport[msg.sender], \"Passport does not exists\");\n        return myPassport[msg.sender];\n    }\n\n    // getPassportByAddress, user\n    function getPassportByAddress(\n        address _userAddress\n    ) public view onlyIssuer returns (PassportData memory) {\n        require(hasPassport[_userAddress], \"Passport does not exists\");\n        return myPassport[_userAddress];\n    }\n\n    // public to verify user passport\n    function verifyPassport(address _userAddress) public view returns (bool) {\n        require(hasPassport[_userAddress], \"Passport does not exists\");\n\n        PassportData memory passport = myPassport[_userAddress];\n\n        if (passport.issuedBy == 0) {\n            return false;\n        }\n\n        return true;\n    }\n\n    function getPassportStatus() public view returns (string memory) {\n        if (hasPassport[msg.sender]) {\n            return \"A\";\n        } else if (hasPendingPassport[msg.sender]) {\n            return \"P\";\n        } else {\n            return \"N\";\n        }\n    }\n}\n",
  "sourcePath": "/Users/ashrock_m13/Ashrockzzz/2024/blockchain/pcontract/contracts/Passport.sol",
  "compiler": {
    "name": "solc",
    "version": "0.8.13+commit.abaa5c0e.Emscripten.clang"
  },
  "schemaVersion": "3.4.16",
  "updatedAt": "2024-05-06T15:45:48.220Z",
  "networkType": "ethereum",
  "devdoc": {
    "kind": "dev",
    "methods": {},
    "version": 1
  },
  "userdoc": {
    "kind": "user",
    "methods": {},
    "version": 1
  }
}