{
  "contractName": "DecentralizedPassport",
  "abi": [
    {
      "inputs": [],
      "stateMutability": "nonpayable",
      "type": "constructor"
    },
    {
      "anonymous": false,
      "inputs": [
        {
          "indexed": false,
          "internalType": "uint256",
          "name": "countryId",
          "type": "uint256"
        },
        {
          "indexed": false,
          "internalType": "string",
          "name": "countryName",
          "type": "string"
        },
        {
          "indexed": false,
          "internalType": "string",
          "name": "latLong",
          "type": "string"
        },
        {
          "indexed": false,
          "internalType": "uint256",
          "name": "createdAt",
          "type": "uint256"
        }
      ],
      "name": "CountryAdded",
      "type": "event"
    },
    {
      "anonymous": false,
      "inputs": [
        {
          "indexed": false,
          "internalType": "uint256",
          "name": "countryId",
          "type": "uint256"
        },
        {
          "indexed": false,
          "internalType": "string",
          "name": "countryName",
          "type": "string"
        },
        {
          "indexed": false,
          "internalType": "string",
          "name": "latLong",
          "type": "string"
        },
        {
          "indexed": false,
          "internalType": "uint256",
          "name": "updatedAt",
          "type": "uint256"
        }
      ],
      "name": "CountryUpdated",
      "type": "event"
    },
    {
      "anonymous": false,
      "inputs": [
        {
          "indexed": false,
          "internalType": "uint256",
          "name": "issuerId",
          "type": "uint256"
        },
        {
          "indexed": false,
          "internalType": "address",
          "name": "issuerAddress",
          "type": "address"
        },
        {
          "indexed": false,
          "internalType": "string",
          "name": "issuerName",
          "type": "string"
        },
        {
          "indexed": false,
          "internalType": "uint256",
          "name": "issuerCountryId",
          "type": "uint256"
        },
        {
          "indexed": false,
          "internalType": "uint256",
          "name": "createdAt",
          "type": "uint256"
        }
      ],
      "name": "IssuerAdded",
      "type": "event"
    },
    {
      "inputs": [
        {
          "internalType": "string",
          "name": "",
          "type": "string"
        }
      ],
      "name": "countryByName",
      "outputs": [
        {
          "internalType": "uint256",
          "name": "countryId",
          "type": "uint256"
        },
        {
          "internalType": "string",
          "name": "countryName",
          "type": "string"
        },
        {
          "internalType": "string",
          "name": "latLong",
          "type": "string"
        },
        {
          "internalType": "uint256",
          "name": "createdAt",
          "type": "uint256"
        },
        {
          "internalType": "uint256",
          "name": "updatedAt",
          "type": "uint256"
        }
      ],
      "stateMutability": "view",
      "type": "function",
      "constant": true
    },
    {
      "inputs": [
        {
          "internalType": "string",
          "name": "",
          "type": "string"
        }
      ],
      "name": "isCountry",
      "outputs": [
        {
          "internalType": "bool",
          "name": "",
          "type": "bool"
        }
      ],
      "stateMutability": "view",
      "type": "function",
      "constant": true
    },
    {
      "inputs": [
        {
          "internalType": "address",
          "name": "",
          "type": "address"
        }
      ],
      "name": "isIssuer",
      "outputs": [
        {
          "internalType": "bool",
          "name": "",
          "type": "bool"
        }
      ],
      "stateMutability": "view",
      "type": "function",
      "constant": true
    },
    {
      "inputs": [
        {
          "internalType": "string",
          "name": "_countryName",
          "type": "string"
        },
        {
          "internalType": "string",
          "name": "_latLong",
          "type": "string"
        }
      ],
      "name": "addCountry",
      "outputs": [],
      "stateMutability": "nonpayable",
      "type": "function"
    },
    {
      "inputs": [
        {
          "internalType": "uint256",
          "name": "_countryId",
          "type": "uint256"
        },
        {
          "internalType": "string",
          "name": "_countryName",
          "type": "string"
        },
        {
          "internalType": "string",
          "name": "_latLong",
          "type": "string"
        }
      ],
      "name": "updateCountry",
      "outputs": [],
      "stateMutability": "nonpayable",
      "type": "function"
    },
    {
      "inputs": [
        {
          "internalType": "address",
          "name": "_issuerAddress",
          "type": "address"
        },
        {
          "internalType": "string",
          "name": "_issuerName",
          "type": "string"
        },
        {
          "internalType": "string",
          "name": "_issuerCountry",
          "type": "string"
        }
      ],
      "name": "registerIssuer",
      "outputs": [],
      "stateMutability": "nonpayable",
      "type": "function"
    },
    {
      "inputs": [
        {
          "internalType": "string",
          "name": "_countryName",
          "type": "string"
        }
      ],
      "name": "getIssuerByCountry",
      "outputs": [
        {
          "components": [
            {
              "internalType": "uint256",
              "name": "issuerId",
              "type": "uint256"
            },
            {
              "internalType": "address",
              "name": "issuerAddress",
              "type": "address"
            },
            {
              "internalType": "string",
              "name": "issuerName",
              "type": "string"
            },
            {
              "internalType": "uint256",
              "name": "issuerCountryId",
              "type": "uint256"
            },
            {
              "internalType": "uint256",
              "name": "createdAt",
              "type": "uint256"
            }
          ],
          "internalType": "struct DecentralizedPassport.Issuer[]",
          "name": "",
          "type": "tuple[]"
        }
      ],
      "stateMutability": "view",
      "type": "function",
      "constant": true
    },
    {
      "inputs": [
        {
          "internalType": "string",
          "name": "_userName",
          "type": "string"
        },
        {
          "internalType": "string",
          "name": "_userDob",
          "type": "string"
        },
        {
          "internalType": "string",
          "name": "_userCountry",
          "type": "string"
        }
      ],
      "name": "requestPassport",
      "outputs": [],
      "stateMutability": "nonpayable",
      "type": "function"
    },
    {
      "inputs": [],
      "name": "getPendingPassport",
      "outputs": [
        {
          "components": [
            {
              "internalType": "uint256",
              "name": "passportId",
              "type": "uint256"
            },
            {
              "internalType": "address",
              "name": "userAddress",
              "type": "address"
            },
            {
              "internalType": "string",
              "name": "userName",
              "type": "string"
            },
            {
              "internalType": "string",
              "name": "userDob",
              "type": "string"
            },
            {
              "internalType": "uint256",
              "name": "userCountryId",
              "type": "uint256"
            },
            {
              "internalType": "uint256",
              "name": "issuedBy",
              "type": "uint256"
            },
            {
              "internalType": "uint256",
              "name": "createdAt",
              "type": "uint256"
            }
          ],
          "internalType": "struct DecentralizedPassport.PassportData[]",
          "name": "",
          "type": "tuple[]"
        }
      ],
      "stateMutability": "view",
      "type": "function",
      "constant": true
    },
    {
      "inputs": [
        {
          "internalType": "uint256",
          "name": "_passportId",
          "type": "uint256"
        }
      ],
      "name": "approvePassport",
      "outputs": [],
      "stateMutability": "nonpayable",
      "type": "function"
    },
    {
      "inputs": [],
      "name": "getPassport",
      "outputs": [
        {
          "components": [
            {
              "internalType": "uint256",
              "name": "passportId",
              "type": "uint256"
            },
            {
              "internalType": "address",
              "name": "userAddress",
              "type": "address"
            },
            {
              "internalType": "string",
              "name": "userName",
              "type": "string"
            },
            {
              "internalType": "string",
              "name": "userDob",
              "type": "string"
            },
            {
              "internalType": "uint256",
              "name": "userCountryId",
              "type": "uint256"
            },
            {
              "internalType": "uint256",
              "name": "issuedBy",
              "type": "uint256"
            },
            {
              "internalType": "uint256",
              "name": "createdAt",
              "type": "uint256"
            }
          ],
          "internalType": "struct DecentralizedPassport.PassportData",
          "name": "",
          "type": "tuple"
        }
      ],
      "stateMutability": "view",
      "type": "function",
      "constant": true
    },
    {
      "inputs": [
        {
          "internalType": "address",
          "name": "_userAddress",
          "type": "address"
        }
      ],
      "name": "getPassportByAddress",
      "outputs": [
        {
          "components": [
            {
              "internalType": "uint256",
              "name": "passportId",
              "type": "uint256"
            },
            {
              "internalType": "address",
              "name": "userAddress",
              "type": "address"
            },
            {
              "internalType": "string",
              "name": "userName",
              "type": "string"
            },
            {
              "internalType": "string",
              "name": "userDob",
              "type": "string"
            },
            {
              "internalType": "uint256",
              "name": "userCountryId",
              "type": "uint256"
            },
            {
              "internalType": "uint256",
              "name": "issuedBy",
              "type": "uint256"
            },
            {
              "internalType": "uint256",
              "name": "createdAt",
              "type": "uint256"
            }
          ],
          "internalType": "struct DecentralizedPassport.PassportData",
          "name": "",
          "type": "tuple"
        }
      ],
      "stateMutability": "view",
      "type": "function",
      "constant": true
    },
    {
      "inputs": [
        {
          "internalType": "address",
          "name": "_userAddress",
          "type": "address"
        }
      ],
      "name": "verifyPassport",
      "outputs": [
        {
          "internalType": "bool",
          "name": "",
          "type": "bool"
        }
      ],
      "stateMutability": "view",
      "type": "function",
      "constant": true
    }
  ],
  "bytecode": "0x608060405260006001556000600255600060035534801561001f57600080fd5b50336000806101000a81548173ffffffffffffffffffffffffffffffffffffffff021916908373ffffffffffffffffffffffffffffffffffffffff160217905550613d808061006f6000396000f3fe608060405234801561001057600080fd5b50600436106100cf5760003560e01c80637d45e2d61161008c578063aa033a1a11610066578063aa033a1a14610210578063c80039fb14610240578063e69b664c14610270578063f021bdd51461028c576100cf565b80637d45e2d614610192578063877b9a67146101c25780638eb20b0b146101f2576100cf565b806330721582146100d4578063406d9209146100f05780635884a0521461012057806363e410211461013c57806366025dc8146101585780636b725a9814610174575b600080fd5b6100ee60048036038101906100e99190612d9c565b6102c0565b005b61010a60048036038101906101059190612e43565b610635565b60405161011791906130a6565b60405180910390f35b61013a600480360381019061013591906130f4565b610839565b005b610156600480360381019061015191906131ab565b610a47565b005b610172600480360381019061016d9190613236565b610f54565b005b61017c6111f9565b6040516101899190613413565b60405180910390f35b6101ac60048036038101906101a79190613435565b611565565b6040516101b9919061347d565b60405180910390f35b6101dc60048036038101906101d79190613435565b611804565b6040516101e9919061347d565b60405180910390f35b6101fa611824565b604051610207919061353b565b60405180910390f35b61022a60048036038101906102259190613435565b611aa9565b604051610237919061353b565b60405180910390f35b61025a60048036038101906102559190612e43565b611dbc565b604051610267919061347d565b60405180910390f35b61028a6004803603810190610285919061355d565b611df2565b005b6102a660048036038101906102a19190612e43565b612923565b6040516102b79594939291906135e3565b60405180910390f35b600b60003373ffffffffffffffffffffffffffffffffffffffff1673ffffffffffffffffffffffffffffffffffffffff16815260200190815260200160002060009054906101000a900460ff161561034d576040517f08c379a000000000000000000000000000000000000000000000000000000000815260040161034490613690565b60405180910390fd5b600c60003373ffffffffffffffffffffffffffffffffffffffff1673ffffffffffffffffffffffffffffffffffffffff16815260200190815260200160002060009054906101000a900460ff16156103da576040517f08c379a00000000000000000000000000000000000000000000000000000000081526004016103d1906136fc565b60405180910390fd5b6004816040516103ea9190613758565b908152602001604051809103902060009054906101000a900460ff16610445576040517f08c379a000000000000000000000000000000000000000000000000000000000815260040161043c906137bb565b60405180910390fd5b600360008154809291906104589061380a565b919050555060006040518060e0016040528060035481526020013373ffffffffffffffffffffffffffffffffffffffff1681526020018581526020018481526020016006846040516104aa9190613758565b908152602001604051809103902060000154815260200160008152602001428152509050600d60006006846040516104e29190613758565b90815260200160405180910390206000015481526020019081526020016000208190806001815401808255809150506001900390600052602060002090600702016000909190919091506000820151816000015560208201518160010160006101000a81548173ffffffffffffffffffffffffffffffffffffffff021916908373ffffffffffffffffffffffffffffffffffffffff1602179055506040820151816002019080519060200190610599929190612a7f565b5060608201518160030190805190602001906105b6929190612a7f565b506080820151816004015560a0820151816005015560c0820151816006015550506001600c60003373ffffffffffffffffffffffffffffffffffffffff1673ffffffffffffffffffffffffffffffffffffffff16815260200190815260200160002060006101000a81548160ff02191690831515021790555050505050565b60606004826040516106479190613758565b908152602001604051809103902060009054906101000a900460ff166106a2576040517f08c379a0000000000000000000000000000000000000000000000000000000008152600401610699906137bb565b60405180910390fd5b600a60006006846040516106b69190613758565b9081526020016040518091039020600001548152602001908152602001600020805480602002602001604051908101604052809291908181526020016000905b8282101561082e57838290600052602060002090600502016040518060a0016040529081600082015481526020016001820160009054906101000a900473ffffffffffffffffffffffffffffffffffffffff1673ffffffffffffffffffffffffffffffffffffffff1673ffffffffffffffffffffffffffffffffffffffff16815260200160028201805461078990613881565b80601f01602080910402602001604051908101604052809291908181526020018280546107b590613881565b80156108025780601f106107d757610100808354040283529160200191610802565b820191906000526020600020905b8154815290600101906020018083116107e557829003601f168201915b5050505050815260200160038201548152602001600482015481525050815260200190600101906106f6565b505050509050919050565b60008054906101000a900473ffffffffffffffffffffffffffffffffffffffff1673ffffffffffffffffffffffffffffffffffffffff163373ffffffffffffffffffffffffffffffffffffffff16146108c7576040517f08c379a00000000000000000000000000000000000000000000000000000000081526004016108be906138fe565b60405180910390fd5b6004826040516108d79190613758565b908152602001604051809103902060009054906101000a900460ff16610932576040517f08c379a0000000000000000000000000000000000000000000000000000000008152600401610929906137bb565b60405180910390fd5b600060056000858152602001908152602001600020905082816001019080519060200190610961929190612a7f565b508181600201908051906020019061097a929190612a7f565b50428160040181905550806006846040516109959190613758565b90815260200160405180910390206000820154816000015560018201816001019080546109c190613881565b6109cc929190612b05565b5060028201816002019080546109e190613881565b6109ec929190612b05565b5060038201548160030155600482015481600401559050507fdcd4acac1d3ad3ee43d1d6f76367777717477bbf3dfdb0f47d27e51178d1974384848442604051610a39949392919061391e565b60405180910390a150505050565b60008054906101000a900473ffffffffffffffffffffffffffffffffffffffff1673ffffffffffffffffffffffffffffffffffffffff163373ffffffffffffffffffffffffffffffffffffffff1614610ad5576040517f08c379a0000000000000000000000000000000000000000000000000000000008152600401610acc906138fe565b60405180910390fd5b600760008473ffffffffffffffffffffffffffffffffffffffff1673ffffffffffffffffffffffffffffffffffffffff16815260200190815260200160002060009054906101000a900460ff1615610b62576040517f08c379a0000000000000000000000000000000000000000000000000000000008152600401610b59906139bd565b60405180910390fd5b600481604051610b729190613758565b908152602001604051809103902060009054906101000a900460ff16610bcd576040517f08c379a0000000000000000000000000000000000000000000000000000000008152600401610bc4906137bb565b60405180910390fd5b60026000815480929190610be09061380a565b919050555060006040518060a0016040528060025481526020018573ffffffffffffffffffffffffffffffffffffffff168152602001848152602001600684604051610c2c9190613758565b908152602001604051809103902060000154815260200142815250905080600884604051610c5a9190613758565b90815260200160405180910390206000820151816000015560208201518160010160006101000a81548173ffffffffffffffffffffffffffffffffffffffff021916908373ffffffffffffffffffffffffffffffffffffffff1602179055506040820151816002019080519060200190610cd5929190612a7f565b50606082015181600301556080820151816004015590505080600960008673ffffffffffffffffffffffffffffffffffffffff1673ffffffffffffffffffffffffffffffffffffffff1681526020019081526020016000206000820151816000015560208201518160010160006101000a81548173ffffffffffffffffffffffffffffffffffffffff021916908373ffffffffffffffffffffffffffffffffffffffff1602179055506040820151816002019080519060200190610d9a929190612a7f565b5060608201518160030155608082015181600401559050506001600760008673ffffffffffffffffffffffffffffffffffffffff1673ffffffffffffffffffffffffffffffffffffffff16815260200190815260200160002060006101000a81548160ff021916908315150217905550600a6000600684604051610e1e9190613758565b90815260200160405180910390206000015481526020019081526020016000208190806001815401808255809150506001900390600052602060002090600502016000909190919091506000820151816000015560208201518160010160006101000a81548173ffffffffffffffffffffffffffffffffffffffff021916908373ffffffffffffffffffffffffffffffffffffffff1602179055506040820151816002019080519060200190610ed5929190612a7f565b50606082015181600301556080820151816004015550507f5ebd941c28a27cc5db0027bf5bb808e09998115a0582c6175eeec728cb1bd66c6002548585600686604051610f229190613758565b90815260200160405180910390206000015442604051610f469594939291906139ec565b60405180910390a150505050565b60008054906101000a900473ffffffffffffffffffffffffffffffffffffffff1673ffffffffffffffffffffffffffffffffffffffff163373ffffffffffffffffffffffffffffffffffffffff1614610fe2576040517f08c379a0000000000000000000000000000000000000000000000000000000008152600401610fd9906138fe565b60405180910390fd5b600482604051610ff29190613758565b908152602001604051809103902060009054906101000a900460ff161561104e576040517f08c379a000000000000000000000000000000000000000000000000000000000815260040161104590613a92565b60405180910390fd5b600160008154809291906110619061380a565b919050555060006040518060a001604052806001548152602001848152602001838152602001428152602001428152509050806005600060015481526020019081526020016000206000820151816000015560208201518160010190805190602001906110cf929190612a7f565b5060408201518160020190805190602001906110ec929190612a7f565b506060820151816003015560808201518160040155905050806006846040516111159190613758565b9081526020016040518091039020600082015181600001556020820151816001019080519060200190611149929190612a7f565b506040820151816002019080519060200190611166929190612a7f565b50606082015181600301556080820151816004015590505060016004846040516111909190613758565b908152602001604051809103902060006101000a81548160ff0219169083151502179055507f9cc00184c35d52b732fdd263771c662c54c428b823531516efd3a7cf56586b7b6001548484426040516111ec949392919061391e565b60405180910390a1505050565b6060600760003373ffffffffffffffffffffffffffffffffffffffff1673ffffffffffffffffffffffffffffffffffffffff16815260200190815260200160002060009054906101000a900460ff16611287576040517f08c379a000000000000000000000000000000000000000000000000000000000815260040161127e90613afe565b60405180910390fd5b600760003373ffffffffffffffffffffffffffffffffffffffff1673ffffffffffffffffffffffffffffffffffffffff16815260200190815260200160002060009054906101000a900460ff16611313576040517f08c379a000000000000000000000000000000000000000000000000000000000815260040161130a90613afe565b60405180910390fd5b600d6000600960003373ffffffffffffffffffffffffffffffffffffffff1673ffffffffffffffffffffffffffffffffffffffff168152602001908152602001600020600301548152602001908152602001600020805480602002602001604051908101604052809291908181526020016000905b8282101561155c57838290600052602060002090600702016040518060e0016040529081600082015481526020016001820160009054906101000a900473ffffffffffffffffffffffffffffffffffffffff1673ffffffffffffffffffffffffffffffffffffffff1673ffffffffffffffffffffffffffffffffffffffff16815260200160028201805461141b90613881565b80601f016020809104026020016040519081016040528092919081815260200182805461144790613881565b80156114945780601f1061146957610100808354040283529160200191611494565b820191906000526020600020905b81548152906001019060200180831161147757829003601f168201915b505050505081526020016003820180546114ad90613881565b80601f01602080910402602001604051908101604052809291908181526020018280546114d990613881565b80156115265780601f106114fb57610100808354040283529160200191611526565b820191906000526020600020905b81548152906001019060200180831161150957829003601f168201915b50505050508152602001600482015481526020016005820154815260200160068201548152505081526020019060010190611388565b50505050905090565b6000600b60008373ffffffffffffffffffffffffffffffffffffffff1673ffffffffffffffffffffffffffffffffffffffff16815260200190815260200160002060009054906101000a900460ff166115f3576040517f08c379a00000000000000000000000000000000000000000000000000000000081526004016115ea90613b6a565b60405180910390fd5b6000600f60008473ffffffffffffffffffffffffffffffffffffffff1673ffffffffffffffffffffffffffffffffffffffff1681526020019081526020016000206040518060e0016040529081600082015481526020016001820160009054906101000a900473ffffffffffffffffffffffffffffffffffffffff1673ffffffffffffffffffffffffffffffffffffffff1673ffffffffffffffffffffffffffffffffffffffff1681526020016002820180546116af90613881565b80601f01602080910402602001604051908101604052809291908181526020018280546116db90613881565b80156117285780601f106116fd57610100808354040283529160200191611728565b820191906000526020600020905b81548152906001019060200180831161170b57829003601f168201915b5050505050815260200160038201805461174190613881565b80601f016020809104026020016040519081016040528092919081815260200182805461176d90613881565b80156117ba5780601f1061178f576101008083540402835291602001916117ba565b820191906000526020600020905b81548152906001019060200180831161179d57829003601f168201915b505050505081526020016004820154815260200160058201548152602001600682015481525050905060008160a00151036117f95760009150506117ff565b60019150505b919050565b60076020528060005260406000206000915054906101000a900460ff1681565b61182c612b92565b600b60003373ffffffffffffffffffffffffffffffffffffffff1673ffffffffffffffffffffffffffffffffffffffff16815260200190815260200160002060009054906101000a900460ff166118b8576040517f08c379a00000000000000000000000000000000000000000000000000000000081526004016118af90613b6a565b60405180910390fd5b600f60003373ffffffffffffffffffffffffffffffffffffffff1673ffffffffffffffffffffffffffffffffffffffff1681526020019081526020016000206040518060e0016040529081600082015481526020016001820160009054906101000a900473ffffffffffffffffffffffffffffffffffffffff1673ffffffffffffffffffffffffffffffffffffffff1673ffffffffffffffffffffffffffffffffffffffff16815260200160028201805461197290613881565b80601f016020809104026020016040519081016040528092919081815260200182805461199e90613881565b80156119eb5780601f106119c0576101008083540402835291602001916119eb565b820191906000526020600020905b8154815290600101906020018083116119ce57829003601f168201915b50505050508152602001600382018054611a0490613881565b80601f0160208091040260200160405190810160405280929190818152602001828054611a3090613881565b8015611a7d5780601f10611a5257610100808354040283529160200191611a7d565b820191906000526020600020905b815481529060010190602001808311611a6057829003601f168201915b505050505081526020016004820154815260200160058201548152602001600682015481525050905090565b611ab1612b92565b600760003373ffffffffffffffffffffffffffffffffffffffff1673ffffffffffffffffffffffffffffffffffffffff16815260200190815260200160002060009054906101000a900460ff16611b3d576040517f08c379a0000000000000000000000000000000000000000000000000000000008152600401611b3490613afe565b60405180910390fd5b600b60008373ffffffffffffffffffffffffffffffffffffffff1673ffffffffffffffffffffffffffffffffffffffff16815260200190815260200160002060009054906101000a900460ff16611bc9576040517f08c379a0000000000000000000000000000000000000000000000000000000008152600401611bc090613b6a565b60405180910390fd5b600f60008373ffffffffffffffffffffffffffffffffffffffff1673ffffffffffffffffffffffffffffffffffffffff1681526020019081526020016000206040518060e0016040529081600082015481526020016001820160009054906101000a900473ffffffffffffffffffffffffffffffffffffffff1673ffffffffffffffffffffffffffffffffffffffff1673ffffffffffffffffffffffffffffffffffffffff168152602001600282018054611c8390613881565b80601f0160208091040260200160405190810160405280929190818152602001828054611caf90613881565b8015611cfc5780601f10611cd157610100808354040283529160200191611cfc565b820191906000526020600020905b815481529060010190602001808311611cdf57829003601f168201915b50505050508152602001600382018054611d1590613881565b80601f0160208091040260200160405190810160405280929190818152602001828054611d4190613881565b8015611d8e5780601f10611d6357610100808354040283529160200191611d8e565b820191906000526020600020905b815481529060010190602001808311611d7157829003601f168201915b5050505050815260200160048201548152602001600582015481526020016006820154815250509050919050565b6004818051602081018201805184825260208301602085012081835280955050505050506000915054906101000a900460ff1681565b600760003373ffffffffffffffffffffffffffffffffffffffff1673ffffffffffffffffffffffffffffffffffffffff16815260200190815260200160002060009054906101000a900460ff16611e7e576040517f08c379a0000000000000000000000000000000000000000000000000000000008152600401611e7590613afe565b60405180910390fd5b600760003373ffffffffffffffffffffffffffffffffffffffff1673ffffffffffffffffffffffffffffffffffffffff16815260200190815260200160002060009054906101000a900460ff16611f0a576040517f08c379a0000000000000000000000000000000000000000000000000000000008152600401611f0190613afe565b60405180910390fd5b6000600d6000600960003373ffffffffffffffffffffffffffffffffffffffff1673ffffffffffffffffffffffffffffffffffffffff1681526020019081526020016000206003015481526020019081526020016000208054905011611fa5576040517f08c379a0000000000000000000000000000000000000000000000000000000008152600401611f9c90613bd6565b60405180910390fd5b6000805b600d6000600960003373ffffffffffffffffffffffffffffffffffffffff1673ffffffffffffffffffffffffffffffffffffffff168152602001908152602001600020600301548152602001908152602001600020805490508110156128de5782600d6000600960003373ffffffffffffffffffffffffffffffffffffffff1673ffffffffffffffffffffffffffffffffffffffff168152602001908152602001600020600301548152602001908152602001600020828154811061207157612070613bf6565b5b906000526020600020906007020160000154036128cb57600191506000600d6000600960003373ffffffffffffffffffffffffffffffffffffffff1673ffffffffffffffffffffffffffffffffffffffff16815260200190815260200160002060030154815260200190815260200160002082815481106120f5576120f4613bf6565b5b90600052602060002090600702016040518060e0016040529081600082015481526020016001820160009054906101000a900473ffffffffffffffffffffffffffffffffffffffff1673ffffffffffffffffffffffffffffffffffffffff1673ffffffffffffffffffffffffffffffffffffffff16815260200160028201805461217e90613881565b80601f01602080910402602001604051908101604052809291908181526020018280546121aa90613881565b80156121f75780601f106121cc576101008083540402835291602001916121f7565b820191906000526020600020905b8154815290600101906020018083116121da57829003601f168201915b5050505050815260200160038201805461221090613881565b80601f016020809104026020016040519081016040528092919081815260200182805461223c90613881565b80156122895780601f1061225e57610100808354040283529160200191612289565b820191906000526020600020905b81548152906001019060200180831161226c57829003601f168201915b5050505050815260200160048201548152602001600582015481526020016006820154815250509050600960003373ffffffffffffffffffffffffffffffffffffffff1673ffffffffffffffffffffffffffffffffffffffff168152602001908152602001600020600001548160a0018181525050600e6000826080015181526020019081526020016000208190806001815401808255809150506001900390600052602060002090600702016000909190919091506000820151816000015560208201518160010160006101000a81548173ffffffffffffffffffffffffffffffffffffffff021916908373ffffffffffffffffffffffffffffffffffffffff16021790555060408201518160020190805190602001906123ac929190612a7f565b5060608201518160030190805190602001906123c9929190612a7f565b506080820151816004015560a0820151816005015560c0820151816006015550506001600b6000836020015173ffffffffffffffffffffffffffffffffffffffff1673ffffffffffffffffffffffffffffffffffffffff16815260200190815260200160002060006101000a81548160ff0219169083151502179055506000600c6000836020015173ffffffffffffffffffffffffffffffffffffffff1673ffffffffffffffffffffffffffffffffffffffff16815260200190815260200160002060006101000a81548160ff02191690831515021790555080600f6000836020015173ffffffffffffffffffffffffffffffffffffffff1673ffffffffffffffffffffffffffffffffffffffff1681526020019081526020016000206000820151816000015560208201518160010160006101000a81548173ffffffffffffffffffffffffffffffffffffffff021916908373ffffffffffffffffffffffffffffffffffffffff1602179055506040820151816002019080519060200190612553929190612a7f565b506060820151816003019080519060200190612570929190612a7f565b506080820151816004015560a0820151816005015560c0820151816006015590505060008290505b6001600d6000600960003373ffffffffffffffffffffffffffffffffffffffff1673ffffffffffffffffffffffffffffffffffffffff168152602001908152602001600020600301548152602001908152602001600020805490506125fd9190613c25565b8110156127df57600d6000600960003373ffffffffffffffffffffffffffffffffffffffff1673ffffffffffffffffffffffffffffffffffffffff1681526020019081526020016000206003015481526020019081526020016000206001826126669190613c59565b8154811061267757612676613bf6565b5b9060005260206000209060070201600d6000600960003373ffffffffffffffffffffffffffffffffffffffff1673ffffffffffffffffffffffffffffffffffffffff16815260200190815260200160002060030154815260200190815260200160002082815481106126ec576126eb613bf6565b5b9060005260206000209060070201600082015481600001556001820160009054906101000a900473ffffffffffffffffffffffffffffffffffffffff168160010160006101000a81548173ffffffffffffffffffffffffffffffffffffffff021916908373ffffffffffffffffffffffffffffffffffffffff160217905550600282018160020190805461277f90613881565b61278a929190612b05565b50600382018160030190805461279f90613881565b6127aa929190612b05565b5060048201548160040155600582015481600501556006820154816006015590505080806127d79061380a565b915050612598565b50600d6000600960003373ffffffffffffffffffffffffffffffffffffffff1673ffffffffffffffffffffffffffffffffffffffff16815260200190815260200160002060030154815260200190815260200160002080548061284557612844613caf565b5b60019003818190600052602060002090600702016000808201600090556001820160006101000a81549073ffffffffffffffffffffffffffffffffffffffff02191690556002820160006128999190612be5565b6003820160006128a99190612be5565b60048201600090556005820160009055600682016000905550509055506128de565b80806128d69061380a565b915050611fa9565b508061291f576040517f08c379a000000000000000000000000000000000000000000000000000000000815260040161291690613d2a565b60405180910390fd5b5050565b60068180516020810182018051848252602083016020850120818352809550505050505060009150905080600001549080600101805461296290613881565b80601f016020809104026020016040519081016040528092919081815260200182805461298e90613881565b80156129db5780601f106129b0576101008083540402835291602001916129db565b820191906000526020600020905b8154815290600101906020018083116129be57829003601f168201915b5050505050908060020180546129f090613881565b80601f0160208091040260200160405190810160405280929190818152602001828054612a1c90613881565b8015612a695780601f10612a3e57610100808354040283529160200191612a69565b820191906000526020600020905b815481529060010190602001808311612a4c57829003601f168201915b5050505050908060030154908060040154905085565b828054612a8b90613881565b90600052602060002090601f016020900481019282612aad5760008555612af4565b82601f10612ac657805160ff1916838001178555612af4565b82800160010185558215612af4579182015b82811115612af3578251825591602001919060010190612ad8565b5b509050612b019190612c25565b5090565b828054612b1190613881565b90600052602060002090601f016020900481019282612b335760008555612b81565b82601f10612b445780548555612b81565b82800160010185558215612b8157600052602060002091601f016020900482015b82811115612b80578254825591600101919060010190612b65565b5b509050612b8e9190612c25565b5090565b6040518060e0016040528060008152602001600073ffffffffffffffffffffffffffffffffffffffff16815260200160608152602001606081526020016000815260200160008152602001600081525090565b508054612bf190613881565b6000825580601f10612c035750612c22565b601f016020900490600052602060002090810190612c219190612c25565b5b50565b5b80821115612c3e576000816000905550600101612c26565b5090565b6000604051905090565b600080fd5b600080fd5b600080fd5b600080fd5b6000601f19601f8301169050919050565b7f4e487b7100000000000000000000000000000000000000000000000000000000600052604160045260246000fd5b612ca982612c60565b810181811067ffffffffffffffff82111715612cc857612cc7612c71565b5b80604052505050565b6000612cdb612c42565b9050612ce78282612ca0565b919050565b600067ffffffffffffffff821115612d0757612d06612c71565b5b612d1082612c60565b9050602081019050919050565b82818337600083830152505050565b6000612d3f612d3a84612cec565b612cd1565b905082815260208101848484011115612d5b57612d5a612c5b565b5b612d66848285612d1d565b509392505050565b600082601f830112612d8357612d82612c56565b5b8135612d93848260208601612d2c565b91505092915050565b600080600060608486031215612db557612db4612c4c565b5b600084013567ffffffffffffffff811115612dd357612dd2612c51565b5b612ddf86828701612d6e565b935050602084013567ffffffffffffffff811115612e0057612dff612c51565b5b612e0c86828701612d6e565b925050604084013567ffffffffffffffff811115612e2d57612e2c612c51565b5b612e3986828701612d6e565b9150509250925092565b600060208284031215612e5957612e58612c4c565b5b600082013567ffffffffffffffff811115612e7757612e76612c51565b5b612e8384828501612d6e565b91505092915050565b600081519050919050565b600082825260208201905092915050565b6000819050602082019050919050565b6000819050919050565b612ecb81612eb8565b82525050565b600073ffffffffffffffffffffffffffffffffffffffff82169050919050565b6000612efc82612ed1565b9050919050565b612f0c81612ef1565b82525050565b600081519050919050565b600082825260208201905092915050565b60005b83811015612f4c578082015181840152602081019050612f31565b83811115612f5b576000848401525b50505050565b6000612f6c82612f12565b612f768185612f1d565b9350612f86818560208601612f2e565b612f8f81612c60565b840191505092915050565b600060a083016000830151612fb26000860182612ec2565b506020830151612fc56020860182612f03565b5060408301518482036040860152612fdd8282612f61565b9150506060830151612ff26060860182612ec2565b5060808301516130056080860182612ec2565b508091505092915050565b600061301c8383612f9a565b905092915050565b6000602082019050919050565b600061303c82612e8c565b6130468185612e97565b93508360208202850161305885612ea8565b8060005b8581101561309457848403895281516130758582613010565b945061308083613024565b925060208a0199505060018101905061305c565b50829750879550505050505092915050565b600060208201905081810360008301526130c08184613031565b905092915050565b6130d181612eb8565b81146130dc57600080fd5b50565b6000813590506130ee816130c8565b92915050565b60008060006060848603121561310d5761310c612c4c565b5b600061311b868287016130df565b935050602084013567ffffffffffffffff81111561313c5761313b612c51565b5b61314886828701612d6e565b925050604084013567ffffffffffffffff81111561316957613168612c51565b5b61317586828701612d6e565b9150509250925092565b61318881612ef1565b811461319357600080fd5b50565b6000813590506131a58161317f565b92915050565b6000806000606084860312156131c4576131c3612c4c565b5b60006131d286828701613196565b935050602084013567ffffffffffffffff8111156131f3576131f2612c51565b5b6131ff86828701612d6e565b925050604084013567ffffffffffffffff8111156132205761321f612c51565b5b61322c86828701612d6e565b9150509250925092565b6000806040838503121561324d5761324c612c4c565b5b600083013567ffffffffffffffff81111561326b5761326a612c51565b5b61327785828601612d6e565b925050602083013567ffffffffffffffff81111561329857613297612c51565b5b6132a485828601612d6e565b9150509250929050565b600081519050919050565b600082825260208201905092915050565b6000819050602082019050919050565b600060e0830160008301516132f26000860182612ec2565b5060208301516133056020860182612f03565b506040830151848203604086015261331d8282612f61565b915050606083015184820360608601526133378282612f61565b915050608083015161334c6080860182612ec2565b5060a083015161335f60a0860182612ec2565b5060c083015161337260c0860182612ec2565b508091505092915050565b600061338983836132da565b905092915050565b6000602082019050919050565b60006133a9826132ae565b6133b381856132b9565b9350836020820285016133c5856132ca565b8060005b8581101561340157848403895281516133e2858261337d565b94506133ed83613391565b925060208a019950506001810190506133c9565b50829750879550505050505092915050565b6000602082019050818103600083015261342d818461339e565b905092915050565b60006020828403121561344b5761344a612c4c565b5b600061345984828501613196565b91505092915050565b60008115159050919050565b61347781613462565b82525050565b6000602082019050613492600083018461346e565b92915050565b600060e0830160008301516134b06000860182612ec2565b5060208301516134c36020860182612f03565b50604083015184820360408601526134db8282612f61565b915050606083015184820360608601526134f58282612f61565b915050608083015161350a6080860182612ec2565b5060a083015161351d60a0860182612ec2565b5060c083015161353060c0860182612ec2565b508091505092915050565b600060208201905081810360008301526135558184613498565b905092915050565b60006020828403121561357357613572612c4c565b5b6000613581848285016130df565b91505092915050565b61359381612eb8565b82525050565b600082825260208201905092915050565b60006135b582612f12565b6135bf8185613599565b93506135cf818560208601612f2e565b6135d881612c60565b840191505092915050565b600060a0820190506135f8600083018861358a565b818103602083015261360a81876135aa565b9050818103604083015261361e81866135aa565b905061362d606083018561358a565b61363a608083018461358a565b9695505050505050565b7f50617373706f727420616c726561647920657869737473000000000000000000600082015250565b600061367a601783613599565b915061368582613644565b602082019050919050565b600060208201905081810360008301526136a98161366d565b9050919050565b7f50617373706f727420616c726561647920726571756573746564000000000000600082015250565b60006136e6601a83613599565b91506136f1826136b0565b602082019050919050565b60006020820190508181036000830152613715816136d9565b9050919050565b600081905092915050565b600061373282612f12565b61373c818561371c565b935061374c818560208601612f2e565b80840191505092915050565b60006137648284613727565b915081905092915050565b7f436f756e74727920646f6573206e6f7420657869737473000000000000000000600082015250565b60006137a5601783613599565b91506137b08261376f565b602082019050919050565b600060208201905081810360008301526137d481613798565b9050919050565b7f4e487b7100000000000000000000000000000000000000000000000000000000600052601160045260246000fd5b600061381582612eb8565b91507fffffffffffffffffffffffffffffffffffffffffffffffffffffffffffffffff8203613847576138466137db565b5b600182019050919050565b7f4e487b7100000000000000000000000000000000000000000000000000000000600052602260045260246000fd5b6000600282049050600182168061389957607f821691505b6020821081036138ac576138ab613852565b5b50919050565b7f4f6e6c792041646d696e00000000000000000000000000000000000000000000600082015250565b60006138e8600a83613599565b91506138f3826138b2565b602082019050919050565b60006020820190508181036000830152613917816138db565b9050919050565b6000608082019050613933600083018761358a565b818103602083015261394581866135aa565b9050818103604083015261395981856135aa565b9050613968606083018461358a565b95945050505050565b7f49737375657220616c7265616479206578697374730000000000000000000000600082015250565b60006139a7601583613599565b91506139b282613971565b602082019050919050565b600060208201905081810360008301526139d68161399a565b9050919050565b6139e681612ef1565b82525050565b600060a082019050613a01600083018861358a565b613a0e60208301876139dd565b8181036040830152613a2081866135aa565b9050613a2f606083018561358a565b613a3c608083018461358a565b9695505050505050565b7f436f756e74727920616c72656164792065786973747300000000000000000000600082015250565b6000613a7c601683613599565b9150613a8782613a46565b602082019050919050565b60006020820190508181036000830152613aab81613a6f565b9050919050565b7f4f6e6c7920497373756572000000000000000000000000000000000000000000600082015250565b6000613ae8600b83613599565b9150613af382613ab2565b602082019050919050565b60006020820190508181036000830152613b1781613adb565b9050919050565b7f50617373706f727420646f6573206e6f74206578697374730000000000000000600082015250565b6000613b54601883613599565b9150613b5f82613b1e565b602082019050919050565b60006020820190508181036000830152613b8381613b47565b9050919050565b7f4e6f2070656e64696e672070617373706f727400000000000000000000000000600082015250565b6000613bc0601383613599565b9150613bcb82613b8a565b602082019050919050565b60006020820190508181036000830152613bef81613bb3565b9050919050565b7f4e487b7100000000000000000000000000000000000000000000000000000000600052603260045260246000fd5b6000613c3082612eb8565b9150613c3b83612eb8565b925082821015613c4e57613c4d6137db565b5b828203905092915050565b6000613c6482612eb8565b9150613c6f83612eb8565b9250827fffffffffffffffffffffffffffffffffffffffffffffffffffffffffffffffff03821115613ca457613ca36137db565b5b828201905092915050565b7f4e487b7100000000000000000000000000000000000000000000000000000000600052603160045260246000fd5b7f50617373706f7274206e6f7420666f756e640000000000000000000000000000600082015250565b6000613d14601283613599565b9150613d1f82613cde565b602082019050919050565b60006020820190508181036000830152613d4381613d07565b905091905056fea2646970667358221220ef288eaa8edb34d70f501eaebfd2eb72d9133c67ff0c7286505573843c8e8b1064736f6c634300080d0033",
  "immutableReferences": {},
  "source": "// SPDX-License-Identifier: MIT\npragma solidity ^0.8.0;\n\ncontract DecentralizedPassport {\n    address private admin;\n    uint256 auto_increment_country_id = 0;\n    uint256 auto_increment_issuer_id = 0;\n    uint256 auto_increment_passport_id = 0;\n\n    constructor() {\n        admin = msg.sender;\n    }\n\n    struct Country {\n        uint256 countryId;\n        string countryName;\n        string latLong;\n        uint256 createdAt;\n        uint256 updatedAt;\n    }\n\n    struct Issuer {\n        uint256 issuerId;\n        address issuerAddress;\n        string issuerName;\n        uint256 issuerCountryId;\n        uint256 createdAt;\n    }\n\n    struct PassportData {\n        uint256 passportId;\n        address userAddress;\n        string userName;\n        string userDob;\n        uint256 userCountryId;\n        uint256 issuedBy;\n        uint256 createdAt;\n    }\n\n    mapping(string => bool) public isCountry;\n    mapping(uint256 => Country) private countryById;\n    mapping(string => Country) public countryByName;\n\n    mapping(address => bool) public isIssuer;\n    mapping(string => Issuer) private issuerByName;\n    mapping(address => Issuer) private issuerByAddress;\n    mapping(uint256 => Issuer[]) private issuerData;\n\n    mapping(address => bool) hasPassport;\n    mapping(address => bool) hasPendingPassport;\n    mapping(uint256 => PassportData[]) private pendingPassportData;\n    mapping(uint256 => PassportData[]) private passportData;\n    mapping(address => PassportData) private myPassport;\n\n    modifier onlyAdmin() {\n        require(msg.sender == admin, \"Only Admin\");\n        _;\n    }\n\n    modifier onlyIssuer() {\n        require(isIssuer[msg.sender], \"Only Issuer\");\n        _;\n    }\n\n    // Country API\n    event CountryAdded(\n        uint256 countryId,\n        string countryName,\n        string latLong,\n        uint256 createdAt\n    );\n    function addCountry(\n        string memory _countryName,\n        string memory _latLong\n    ) public onlyAdmin {\n        require(!isCountry[_countryName], \"Country already exists\");\n        auto_increment_country_id++;\n        Country memory country = Country(\n            auto_increment_country_id,\n            _countryName,\n            _latLong,\n            block.timestamp,\n            block.timestamp\n        );\n        countryById[auto_increment_country_id] = country;\n        countryByName[_countryName] = country;\n        isCountry[_countryName] = true;\n\n        emit CountryAdded(\n            auto_increment_country_id,\n            _countryName,\n            _latLong,\n            block.timestamp\n        );\n    }\n\n    event CountryUpdated(\n        uint256 countryId,\n        string countryName,\n        string latLong,\n        uint256 updatedAt\n    );\n    function updateCountry(\n        uint256 _countryId,\n        string memory _countryName,\n        string memory _latLong\n    ) public onlyAdmin {\n        require(isCountry[_countryName], \"Country does not exists\");\n        Country storage country = countryById[_countryId];\n        country.countryName = _countryName;\n        country.latLong = _latLong;\n        country.updatedAt = block.timestamp;\n        countryByName[_countryName] = country;\n\n        emit CountryUpdated(\n            _countryId,\n            _countryName,\n            _latLong,\n            block.timestamp\n        );\n    }\n\n    // Issuer API\n    event IssuerAdded(\n        uint256 issuerId,\n        address issuerAddress,\n        string issuerName,\n        uint256 issuerCountryId,\n        uint256 createdAt\n    );\n    function registerIssuer(\n        address _issuerAddress,\n        string memory _issuerName,\n        string memory _issuerCountry\n    ) public onlyAdmin {\n        require(!isIssuer[_issuerAddress], \"Issuer already exists\");\n        require(isCountry[_issuerCountry], \"Country does not exists\");\n        auto_increment_issuer_id++;\n        Issuer memory issuer = Issuer(\n            auto_increment_issuer_id,\n            _issuerAddress,\n            _issuerName,\n            countryByName[_issuerCountry].countryId,\n            block.timestamp\n        );\n        issuerByName[_issuerName] = issuer;\n        issuerByAddress[_issuerAddress] = issuer;\n        isIssuer[_issuerAddress] = true;\n        issuerData[countryByName[_issuerCountry].countryId].push(issuer);\n\n        emit IssuerAdded(\n            auto_increment_issuer_id,\n            _issuerAddress,\n            _issuerName,\n            countryByName[_issuerCountry].countryId,\n            block.timestamp\n        );\n    }\n\n    function getIssuerByCountry(\n        string memory _countryName\n    ) public view returns (Issuer[] memory) {\n        require(isCountry[_countryName], \"Country does not exists\");\n        return issuerData[countryByName[_countryName].countryId];\n    }\n\n    // Passport API\n    // requestPassport, no issuer\n    function requestPassport(\n        string memory _userName,\n        string memory _userDob,\n        string memory _userCountry\n    ) public {\n        require(!hasPassport[msg.sender], \"Passport already exists\");\n        require(!hasPendingPassport[msg.sender], \"Passport already requested\");\n        require(isCountry[_userCountry], \"Country does not exists\");\n        auto_increment_passport_id++;\n        PassportData memory passport = PassportData(\n            auto_increment_passport_id,\n            msg.sender,\n            _userName,\n            _userDob,\n            countryByName[_userCountry].countryId,\n            0,\n            block.timestamp\n        );\n        pendingPassportData[countryByName[_userCountry].countryId].push(\n            passport\n        );\n        hasPendingPassport[msg.sender] = true;\n    }\n\n    // getPendingPassport, issuer, no params. use msg.sender\n    function getPendingPassport()\n        public\n        view\n        onlyIssuer\n        returns (PassportData[] memory)\n    {\n        require(isIssuer[msg.sender], \"Only Issuer\");\n        return pendingPassportData[issuerByAddress[msg.sender].issuerCountryId];\n    }\n\n    // approvePassport, issuer, passportId\n    function approvePassport(uint256 _passportId) public onlyIssuer {\n        require(isIssuer[msg.sender], \"Only Issuer\");\n        require(\n            pendingPassportData[issuerByAddress[msg.sender].issuerCountryId]\n                .length > 0,\n            \"No pending passport\"\n        );\n        bool found = false;\n        for (\n            uint256 i = 0;\n            i <\n            pendingPassportData[issuerByAddress[msg.sender].issuerCountryId]\n                .length;\n            i++\n        ) {\n            if (\n                pendingPassportData[\n                    issuerByAddress[msg.sender].issuerCountryId\n                ][i].passportId == _passportId\n            ) {\n                found = true;\n                PassportData memory passport = pendingPassportData[\n                    issuerByAddress[msg.sender].issuerCountryId\n                ][i];\n                passport.issuedBy = issuerByAddress[msg.sender].issuerId;\n                passportData[passport.userCountryId].push(passport);\n                hasPassport[passport.userAddress] = true;\n                hasPendingPassport[passport.userAddress] = false;\n                myPassport[passport.userAddress] = passport;\n\n                // remove from pending\n                for (\n                    uint256 j = i;\n                    j <\n                    pendingPassportData[\n                        issuerByAddress[msg.sender].issuerCountryId\n                    ].length -\n                        1;\n                    j++\n                ) {\n                    pendingPassportData[\n                        issuerByAddress[msg.sender].issuerCountryId\n                    ][j] = pendingPassportData[\n                        issuerByAddress[msg.sender].issuerCountryId\n                    ][j + 1];\n                }\n                pendingPassportData[issuerByAddress[msg.sender].issuerCountryId]\n                    .pop();\n\n                break;\n            }\n        }\n        require(found, \"Passport not found\");\n    }\n\n    // getPassport, user\n    function getPassport() public view returns (PassportData memory) {\n        require(hasPassport[msg.sender], \"Passport does not exists\");\n        return myPassport[msg.sender];\n    }\n\n    // getPassportByAddress, user\n    function getPassportByAddress(\n        address _userAddress\n    ) public view onlyIssuer returns (PassportData memory) {\n        require(hasPassport[_userAddress], \"Passport does not exists\");\n        return myPassport[_userAddress];\n    }\n\n    // public to verify user passport\n    function verifyPassport(address _userAddress) public view returns (bool) {\n        require(hasPassport[_userAddress], \"Passport does not exists\");\n\n        PassportData memory passport = myPassport[_userAddress];\n\n        if (passport.issuedBy == 0) {\n            return false;\n        }\n\n        return true;\n    }\n}\n",
  "sourcePath": "/Users/ashrock_m13/Ashrockzzz/2024/blockchain/passport_contract/contracts/Passport.sol",
  "compiler": {
    "name": "solc",
    "version": "0.8.13+commit.abaa5c0e.Emscripten.clang"
  },
  "schemaVersion": "3.4.16",
  "updatedAt": "2024-05-03T09:45:41.776Z",
  "networkType": "ethereum",
  "devdoc": {
    "kind": "dev",
    "methods": {},
    "version": 1
  },
  "userdoc": {
    "kind": "user",
    "methods": {},
    "version": 1
  }
}